{
  "_format": "hh-sol-artifact-1",
  "contractName": "CariocaGreenSC",
  "sourceName": "contracts/CariocaGreenSC.sol",
  "abi": [
    {
      "inputs": [
        {
          "internalType": "uint256",
          "name": "_creditsPerTree",
          "type": "uint256"
        }
      ],
      "stateMutability": "nonpayable",
      "type": "constructor"
    },
    {
      "anonymous": false,
      "inputs": [
        {
          "indexed": true,
          "internalType": "address",
          "name": "owner",
          "type": "address"
        }
      ],
      "name": "CariocaGreenSCCreated",
      "type": "event"
    },
    {
      "anonymous": false,
      "inputs": [
        {
          "indexed": true,
          "internalType": "address",
          "name": "owner",
          "type": "address"
        }
      ],
      "name": "CariocaGreenTreeTokenCreated",
      "type": "event"
    },
    {
      "anonymous": false,
      "inputs": [
        {
          "indexed": true,
          "internalType": "address",
          "name": "owner",
          "type": "address"
        }
      ],
      "name": "RioIPTUTokenCreated",
      "type": "event"
    },
    {
      "anonymous": false,
      "inputs": [
        {
          "indexed": true,
          "internalType": "address",
          "name": "citizen",
          "type": "address"
        },
        {
          "indexed": true,
          "internalType": "uint256",
          "name": "trees",
          "type": "uint256"
        },
        {
          "indexed": true,
          "internalType": "uint256",
          "name": "credits",
          "type": "uint256"
        }
      ],
      "name": "TreeRegistered",
      "type": "event"
    },
    {
      "anonymous": false,
      "inputs": [
        {
          "indexed": true,
          "internalType": "address",
          "name": "citizen",
          "type": "address"
        },
        {
          "indexed": true,
          "internalType": "uint256",
          "name": "trees",
          "type": "uint256"
        },
        {
          "indexed": true,
          "internalType": "uint256",
          "name": "credits",
          "type": "uint256"
        }
      ],
      "name": "TreeUnregistered",
      "type": "event"
    },
    {
      "inputs": [],
      "name": "getCariocaGreenTreeTokenAddress",
      "outputs": [
        {
          "internalType": "address",
          "name": "",
          "type": "address"
        }
      ],
      "stateMutability": "view",
      "type": "function"
    },
    {
      "inputs": [],
      "name": "getCariocaGreenTreeTokenBalance",
      "outputs": [
        {
          "internalType": "uint256",
          "name": "",
          "type": "uint256"
        }
      ],
      "stateMutability": "view",
      "type": "function"
    },
    {
      "inputs": [
        {
          "internalType": "address",
          "name": "_address",
          "type": "address"
        }
      ],
      "name": "getNumCredits",
      "outputs": [
        {
          "internalType": "uint256",
          "name": "",
          "type": "uint256"
        }
      ],
      "stateMutability": "view",
      "type": "function"
    },
    {
      "inputs": [
        {
          "internalType": "address",
          "name": "_address",
          "type": "address"
        }
      ],
      "name": "getNumTrees",
      "outputs": [
        {
          "internalType": "uint256",
          "name": "",
          "type": "uint256"
        }
      ],
      "stateMutability": "view",
      "type": "function"
    },
    {
      "inputs": [],
      "name": "getRioIPTUTokenAddress",
      "outputs": [
        {
          "internalType": "address",
          "name": "",
          "type": "address"
        }
      ],
      "stateMutability": "view",
      "type": "function"
    },
    {
      "inputs": [],
      "name": "getRioIPTUTokenBalance",
      "outputs": [
        {
          "internalType": "uint256",
          "name": "",
          "type": "uint256"
        }
      ],
      "stateMutability": "view",
      "type": "function"
    },
    {
      "inputs": [],
      "name": "minTransferAmount",
      "outputs": [
        {
          "internalType": "uint256",
          "name": "",
          "type": "uint256"
        }
      ],
      "stateMutability": "view",
      "type": "function"
    },
    {
      "inputs": [
        {
          "internalType": "address",
          "name": "_address",
          "type": "address"
        }
      ],
      "name": "registerTree",
      "outputs": [],
      "stateMutability": "nonpayable",
      "type": "function"
    },
    {
      "inputs": [
        {
          "internalType": "address",
          "name": "_address",
          "type": "address"
        },
        {
          "internalType": "uint256",
          "name": "_amount",
          "type": "uint256"
        }
      ],
      "name": "transferCredits",
      "outputs": [],
      "stateMutability": "nonpayable",
      "type": "function"
    },
    {
      "inputs": [
        {
          "internalType": "address",
          "name": "_address",
          "type": "address"
        }
      ],
      "name": "unregisterTree",
      "outputs": [],
      "stateMutability": "nonpayable",
      "type": "function"
    }
  ],
  "bytecode": "0x6080604052600060025534801561001557600080fd5b50604051612fd8380380612fd88339810160408190526100349161025c565b600081116100ae5760405162461bcd60e51b815260206004820152603a60248201527f546f74616c206e756d626572206f66206372656469747320706572205472656560448201527f206d7573742062652067726561746572207468616e207a65726f000000000000606482015260840160405180910390fd5b600080546001600160a01b0319163390811790915560028290556040516100d490610242565b6001600160a01b039091168152602001604051809103906000f080158015610100573d6000803e3d6000fd5b50600580546001600160a01b0319166001600160a01b039283161790556000546040519116906064906101329061024f565b6001600160a01b0390921682526020820152604001604051809103906000f080158015610163573d6000803e3d6000fd5b50600680546001600160a01b039283166001600160a01b03199182168117909255600554600380548316918516919091179055600480549091169091179055600080546040519216917f9238bbe20e118c3abc5fb944ec3214e9bb640b4d404d9b99f39c5aa7ed1185a49190a2600080546040516001600160a01b03909116917f05d82cfd09f220671e62142e2e21d1e477aad24779ad95066c585bb0d6aea26291a2600080546040516001600160a01b03909116917f2321824f22e2deb606c364e8ce3e9cda9160a6e926ce8050ba555649172a5ee991a250610275565b61180f8061098d83390190565b610e3c8061219c83390190565b60006020828403121561026e57600080fd5b5051919050565b610709806102846000396000f3fe608060405234801561001057600080fd5b506004361061009e5760003560e01c80639b0dd06e116100665780639b0dd06e1461013e578063b46266c714610146578063d56ded671461015b578063f3a5b3c01461016c578063fb97033e1461017f57600080fd5b806306454e9a146100a35780635e49c89e146100df57806368841431146100e757806378fdf85e146100f05780639276267b14610119575b600080fd5b6100cc6100b136600461060a565b6001600160a01b031660009081526008602052604090205490565b6040519081526020015b60405180910390f35b6100cc610192565b6100cc60015481565b6100cc6100fe36600461060a565b6001600160a01b031660009081526007602052604090205490565b6003546001600160a01b03165b6040516001600160a01b0390911681526020016100d6565b6100cc610205565b61015961015436600461060a565b610236565b005b6004546001600160a01b0316610126565b61015961017a36600461060a565b610336565b61015961018d36600461062c565b6103fa565b6006546040516370a0823160e01b81523360048201526000916001600160a01b0316906370a08231906024015b602060405180830381865afa1580156101dc573d6000803e3d6000fd5b505050506040513d601f19601f820116820180604052508101906102009190610656565b905090565b6005546040516370a0823160e01b81523360048201526000916001600160a01b0316906370a08231906024016101bf565b336000908152600760205260409020546102975760405162461bcd60e51b815260206004820152601f60248201527f436974697a656e20646f6573206e6f74206861766520616e7920747265652e0060448201526064015b60405180910390fd5b3360009081526007602052604081208054600192906102b7908490610685565b909155505060025433600090815260086020526040812080549091906102de908490610685565b9091555050336000908152600860209081526040808320546007909252808320549051919290916001600160a01b038516917f84ba5c63e24033a34412828848f02121dd937d58ca27430fe4d168d991fd188091a450565b6001600160a01b038116600090815260076020526040812080546001929061035f90849061069e565b90915550506002546001600160a01b0382166000908152600860205260408120805490919061038f90849061069e565b9091555061039e9050816104d3565b6103a781610536565b336000908152600860209081526040808320546007909252808320549051919290916001600160a01b038516917f66457b50781bae7ca297d22b360ea97824c8dc6f11ddc861fa45bb190f15085991a450565b336000908152600860205260409020548111156104735760405162461bcd60e51b815260206004820152603160248201527f436974697a656e20646f6573206e6f74206861766520656e6f756768206372656044820152703234ba39903a37903a3930b739b332b91760791b606482015260840161028e565b3360009081526008602052604081208054839290610492908490610685565b90915550506001600160a01b038216600090815260086020526040812080548392906104bf90849061069e565b909155506104cf90508282610572565b5050565b6005546040516340d097c360e01b81526001600160a01b038381166004830152909116906340d097c3906024015b600060405180830381600087803b15801561051b57600080fd5b505af115801561052f573d6000803e3d6000fd5b5050505050565b6006546002546040516340c10f1960e01b81526001600160a01b03848116600483015260248201929092529116906340c10f1990604401610501565b60065460405163a9059cbb60e01b81526001600160a01b038481166004830152602482018490529091169063a9059cbb906044016020604051808303816000875af11580156105c5573d6000803e3d6000fd5b505050506040513d601f19601f820116820180604052508101906105e991906106b1565b505050565b80356001600160a01b038116811461060557600080fd5b919050565b60006020828403121561061c57600080fd5b610625826105ee565b9392505050565b6000806040838503121561063f57600080fd5b610648836105ee565b946020939093013593505050565b60006020828403121561066857600080fd5b5051919050565b634e487b7160e01b600052601160045260246000fd5b818103818111156106985761069861066f565b92915050565b808201808211156106985761069861066f565b6000602082840312156106c357600080fd5b8151801515811461062557600080fdfea26469706673582212208d61cde34dfddc4be15de69f7fbf79c594206aa0948e91f2e40696024aff706064736f6c6343000814003360806040523480156200001157600080fd5b506040516200180f3803806200180f8339810160408190526200003491620000d5565b6040518060400160405280601881526020017f436172696f636120477265656e205472656520546f6b656e00000000000000008152506040518060400160405280600381526020016210d1d560ea1b8152508160009081620000979190620001ac565b506001620000a68282620001ac565b5050600a80546001600160a01b03909316610100026001600160a81b0319909316929092179091555062000278565b600060208284031215620000e857600080fd5b81516001600160a01b03811681146200010057600080fd5b9392505050565b634e487b7160e01b600052604160045260246000fd5b600181811c908216806200013257607f821691505b6020821081036200015357634e487b7160e01b600052602260045260246000fd5b50919050565b601f821115620001a757600081815260208120601f850160051c81016020861015620001825750805b601f850160051c820191505b81811015620001a3578281556001016200018e565b5050505b505050565b81516001600160401b03811115620001c857620001c862000107565b620001e081620001d984546200011d565b8462000159565b602080601f831160018114620002185760008415620001ff5750858301515b600019600386901b1c1916600185901b178555620001a3565b600085815260208120601f198616915b82811015620002495788860151825594840194600190910190840162000228565b5085821015620002685787850151600019600388901b60f8161c191681555b5050505050600190811b01905550565b61158780620002886000396000f3fe608060405234801561001057600080fd5b50600436106101425760003560e01c80634f6ccce7116100b857806395d89b411161007c57806395d89b4114610289578063a22cb46514610291578063b88d4fde146102a4578063c87b56dd146102b7578063ce606ee0146102ca578063e985e9c5146102e257600080fd5b80634f6ccce71461023d5780635c975abb146102505780636352211e1461025b57806370a082311461026e5780638456cb591461028157600080fd5b806323b872dd1161010a57806323b872dd146101d65780632f745c59146101e95780633f4ba83a146101fc57806340d097c31461020457806342842e0e1461021757806342966c681461022a57600080fd5b806301ffc9a71461014757806306fdde031461016f578063081812fc14610184578063095ea7b3146101af57806318160ddd146101c4575b600080fd5b61015a610155366004611189565b6102f5565b60405190151581526020015b60405180910390f35b610177610306565b60405161016691906111f6565b610197610192366004611209565b610398565b6040516001600160a01b039091168152602001610166565b6101c26101bd36600461123e565b6103c1565b005b6008545b604051908152602001610166565b6101c26101e4366004611268565b6103d0565b6101c86101f736600461123e565b610460565b6101c26104c5565b6101c26102123660046112a4565b6104cf565b6101c2610225366004611268565b6104f0565b6101c2610238366004611209565b610510565b6101c861024b366004611209565b61051c565b600a5460ff1661015a565b610197610269366004611209565b610575565b6101c861027c3660046112a4565b610580565b6101c26105c8565b6101776105d0565b6101c261029f3660046112bf565b6105df565b6101c26102b2366004611311565b6105ea565b6101776102c5366004611209565b610601565b600a546101979061010090046001600160a01b031681565b61015a6102f03660046113ed565b61069b565b6000610300826106c9565b92915050565b60606000805461031590611420565b80601f016020809104026020016040519081016040528092919081815260200182805461034190611420565b801561038e5780601f106103635761010080835404028352916020019161038e565b820191906000526020600020905b81548152906001019060200180831161037157829003601f168201915b5050505050905090565b60006103a3826106ee565b506000828152600460205260409020546001600160a01b0316610300565b6103cc828233610727565b5050565b6001600160a01b0382166103ff57604051633250574960e11b8152600060048201526024015b60405180910390fd5b600061040c838333610734565b9050836001600160a01b0316816001600160a01b03161461045a576040516364283d7b60e01b81526001600160a01b03808616600483015260248201849052821660448201526064016103f6565b50505050565b600061046b83610580565b821061049c5760405163295f44f760e21b81526001600160a01b0384166004820152602481018390526044016103f6565b506001600160a01b03919091166000908152600660209081526040808320938352929052205490565b6104cd610749565b565b600b8054600091826104e083611470565b9190505590506103cc828261079b565b61050b838383604051806020016040528060008152506105ea565b505050565b6103cc60008233610734565b600061052760085490565b82106105505760405163295f44f760e21b815260006004820152602481018390526044016103f6565b6008828154811061056357610563611489565b90600052602060002001549050919050565b6000610300826106ee565b60006001600160a01b0382166105ac576040516322718ad960e21b8152600060048201526024016103f6565b506001600160a01b031660009081526003602052604090205490565b6104cd6107b5565b60606001805461031590611420565b6103cc3383836107f2565b6105f58484846103d0565b61045a84848484610891565b606061060c826106ee565b50600061064960408051808201909152601b81527f68747470733a2f2f72696f64656a616e6569726f2e676f762e62720000000000602082015290565b905060008151116106695760405180602001604052806000815250610694565b80610673846109ba565b60405160200161068492919061149f565b6040516020818303038152906040525b9392505050565b6001600160a01b03918216600090815260056020908152604080832093909416825291909152205460ff1690565b60006001600160e01b0319821663780e9d6360e01b1480610300575061030082610a4d565b6000818152600260205260408120546001600160a01b03168061030057604051637e27328960e01b8152600481018490526024016103f6565b61050b8383836001610a9d565b6000610741848484610ba3565b949350505050565b610751610bb8565b600a805460ff191690557f5db9ee0a495bf2e6ff9c91a7834c1ba4fdd244a5e8aa4e537bd38aeae4b073aa335b6040516001600160a01b03909116815260200160405180910390a1565b6103cc828260405180602001604052806000815250610bdb565b6107bd610bf2565b600a805460ff191660011790557f62e78cea01bee320cd4e420270b5ea74000d11b0c9f74754ebdbfc544b05a25861077e3390565b6001600160a01b03821661082457604051630b61174360e31b81526001600160a01b03831660048201526024016103f6565b6001600160a01b03838116600081815260056020908152604080832094871680845294825291829020805460ff191686151590811790915591519182527f17307eab39ab6107e8899845ad3d59bd9653f200f220920489ca2b5937696c31910160405180910390a3505050565b6001600160a01b0383163b1561045a57604051630a85bd0160e11b81526001600160a01b0384169063150b7a02906108d39033908890879087906004016114ce565b6020604051808303816000875af192505050801561090e575060408051601f3d908101601f1916820190925261090b9181019061150b565b60015b610977573d80801561093c576040519150601f19603f3d011682016040523d82523d6000602084013e610941565b606091505b50805160000361096f57604051633250574960e11b81526001600160a01b03851660048201526024016103f6565b805181602001fd5b6001600160e01b03198116630a85bd0160e11b146109b357604051633250574960e11b81526001600160a01b03851660048201526024016103f6565b5050505050565b606060006109c783610c16565b600101905060008167ffffffffffffffff8111156109e7576109e76112fb565b6040519080825280601f01601f191660200182016040528015610a11576020820181803683370190505b5090508181016020015b600019016f181899199a1a9b1b9c1cb0b131b232b360811b600a86061a8153600a8504945084610a1b57509392505050565b60006001600160e01b031982166380ac58cd60e01b1480610a7e57506001600160e01b03198216635b5e139f60e01b145b8061030057506301ffc9a760e01b6001600160e01b0319831614610300565b8080610ab157506001600160a01b03821615155b15610b73576000610ac1846106ee565b90506001600160a01b03831615801590610aed5750826001600160a01b0316816001600160a01b031614155b8015610b005750610afe818461069b565b155b15610b295760405163a9fbf51f60e01b81526001600160a01b03841660048201526024016103f6565b8115610b715783856001600160a01b0316826001600160a01b03167f8c5be1e5ebec7d5bd14f71427d1e84f3dd0314c0f7b2291e5b200ac8c7c3b92560405160405180910390a45b505b5050600090815260046020526040902080546001600160a01b0319166001600160a01b0392909216919091179055565b6000610bad610bf2565b610741848484610cee565b600a5460ff166104cd57604051638dfc202b60e01b815260040160405180910390fd5b610be58383610dbb565b61050b6000848484610891565b600a5460ff16156104cd5760405163d93c066560e01b815260040160405180910390fd5b60008072184f03e93ff9f4daa797ed6e38ed64bf6a1f0160401b8310610c555772184f03e93ff9f4daa797ed6e38ed64bf6a1f0160401b830492506040015b6d04ee2d6d415b85acef81000000008310610c81576d04ee2d6d415b85acef8100000000830492506020015b662386f26fc100008310610c9f57662386f26fc10000830492506010015b6305f5e1008310610cb7576305f5e100830492506008015b6127108310610ccb57612710830492506004015b60648310610cdd576064830492506002015b600a83106103005760010192915050565b600080610cfc858585610e20565b90506001600160a01b038116610d5957610d5484600880546000838152600960205260408120829055600182018355919091527ff3f7a9fe364faab93b216da50a3214154f22a0a2b415b23a84c8169e8b636ee30155565b610d7c565b846001600160a01b0316816001600160a01b031614610d7c57610d7c8185610f19565b6001600160a01b038516610d9857610d9384610faa565b610741565b846001600160a01b0316816001600160a01b031614610741576107418585611059565b6001600160a01b038216610de557604051633250574960e11b8152600060048201526024016103f6565b6000610df383836000610734565b90506001600160a01b0381161561050b576040516339e3563760e11b8152600060048201526024016103f6565b6000828152600260205260408120546001600160a01b0390811690831615610e4d57610e4d8184866110a9565b6001600160a01b03811615610e8b57610e6a600085600080610a9d565b6001600160a01b038116600090815260036020526040902080546000190190555b6001600160a01b03851615610eba576001600160a01b0385166000908152600360205260409020805460010190555b60008481526002602052604080822080546001600160a01b0319166001600160a01b0389811691821790925591518793918516917fddf252ad1be2c89b69c2b068fc378daa952ba7f163c4a11628f55a4df523b3ef91a4949350505050565b6000610f2483610580565b600083815260076020526040902054909150808214610f77576001600160a01b03841660009081526006602090815260408083208584528252808320548484528184208190558352600790915290208190555b5060009182526007602090815260408084208490556001600160a01b039094168352600681528383209183525290812055565b600854600090610fbc90600190611528565b60008381526009602052604081205460088054939450909284908110610fe457610fe4611489565b90600052602060002001549050806008838154811061100557611005611489565b600091825260208083209091019290925582815260099091526040808220849055858252812055600880548061103d5761103d61153b565b6001900381819060005260206000200160009055905550505050565b6000600161106684610580565b6110709190611528565b6001600160a01b039093166000908152600660209081526040808320868452825280832085905593825260079052919091209190915550565b6110b483838361110d565b61050b576001600160a01b0383166110e257604051637e27328960e01b8152600481018290526024016103f6565b60405163177e802f60e01b81526001600160a01b0383166004820152602481018290526044016103f6565b60006001600160a01b038316158015906107415750826001600160a01b0316846001600160a01b031614806111475750611147848461069b565b806107415750506000908152600460205260409020546001600160a01b03908116911614919050565b6001600160e01b03198116811461118657600080fd5b50565b60006020828403121561119b57600080fd5b813561069481611170565b60005b838110156111c15781810151838201526020016111a9565b50506000910152565b600081518084526111e28160208601602086016111a6565b601f01601f19169290920160200192915050565b60208152600061069460208301846111ca565b60006020828403121561121b57600080fd5b5035919050565b80356001600160a01b038116811461123957600080fd5b919050565b6000806040838503121561125157600080fd5b61125a83611222565b946020939093013593505050565b60008060006060848603121561127d57600080fd5b61128684611222565b925061129460208501611222565b9150604084013590509250925092565b6000602082840312156112b657600080fd5b61069482611222565b600080604083850312156112d257600080fd5b6112db83611222565b9150602083013580151581146112f057600080fd5b809150509250929050565b634e487b7160e01b600052604160045260246000fd5b6000806000806080858703121561132757600080fd5b61133085611222565b935061133e60208601611222565b925060408501359150606085013567ffffffffffffffff8082111561136257600080fd5b818701915087601f83011261137657600080fd5b813581811115611388576113886112fb565b604051601f8201601f19908116603f011681019083821181831017156113b0576113b06112fb565b816040528281528a60208487010111156113c957600080fd5b82602086016020830137600060208483010152809550505050505092959194509250565b6000806040838503121561140057600080fd5b61140983611222565b915061141760208401611222565b90509250929050565b600181811c9082168061143457607f821691505b60208210810361145457634e487b7160e01b600052602260045260246000fd5b50919050565b634e487b7160e01b600052601160045260246000fd5b6000600182016114825761148261145a565b5060010190565b634e487b7160e01b600052603260045260246000fd5b600083516114b18184602088016111a6565b8351908301906114c58183602088016111a6565b01949350505050565b6001600160a01b0385811682528416602082015260408101839052608060608201819052600090611501908301846111ca565b9695505050505050565b60006020828403121561151d57600080fd5b815161069481611170565b818103818111156103005761030061145a565b634e487b7160e01b600052603160045260246000fdfea26469706673582212207fcfa32d3e3eb346e130fd66a6ac2a3f01b03329edb38e8c8d85e9fbc4e2cfd064736f6c6343000814003360806040523480156200001157600080fd5b5060405162000e3c38038062000e3c8339810160408190526200003491620000cb565b6040518060400160405280600e81526020016d2934b79024a82a2a902a37b5b2b760911b81525060405180604001604052806005815260200164524950545560d81b81525081600390816200008a9190620001ac565b506004620000998282620001ac565b5050600580546001600160a01b03909416610100026001600160a81b0319909416939093179092556006555062000278565b60008060408385031215620000df57600080fd5b82516001600160a01b0381168114620000f757600080fd5b6020939093015192949293505050565b634e487b7160e01b600052604160045260246000fd5b600181811c908216806200013257607f821691505b6020821081036200015357634e487b7160e01b600052602260045260246000fd5b50919050565b601f821115620001a757600081815260208120601f850160051c81016020861015620001825750805b601f850160051c820191505b81811015620001a3578281556001016200018e565b5050505b505050565b81516001600160401b03811115620001c857620001c862000107565b620001e081620001d984546200011d565b8462000159565b602080601f831160018114620002185760008415620001ff5750858301515b600019600386901b1c1916600185901b178555620001a3565b600085815260208120601f198616915b82811015620002495788860151825594840194600190910190840162000228565b5085821015620002685787850151600019600388901b60f8161c191681555b5050505050600190811b01905550565b610bb480620002886000396000f3fe608060405234801561001057600080fd5b50600436106101215760003560e01c80635c975abb116100ad57806395d89b411161007157806395d89b4114610236578063a9059cbb1461023e578063b92e639614610251578063ce606ee014610264578063dd62ed3e1461029457600080fd5b80635c975abb146101de57806368841431146101e957806370a08231146101f257806379cc67901461021b5780638456cb591461022e57600080fd5b8063313ce567116100f4578063313ce5671461018c578063365342ca1461019b5780633f4ba83a146101b057806340c10f19146101b857806342966c68146101cb57600080fd5b806306fdde0314610126578063095ea7b31461014457806318160ddd1461016757806323b872dd14610179575b600080fd5b61012e6102cd565b60405161013b919061098f565b60405180910390f35b6101576101523660046109f9565b61035f565b604051901515815260200161013b565b6002545b60405190815260200161013b565b610157610187366004610a23565b610379565b6040516000815260200161013b565b6101ae6101a93660046109f9565b6103b9565b005b6101ae6104a0565b6101ae6101c63660046109f9565b6104aa565b6101ae6101d9366004610a5f565b6104b4565b60055460ff16610157565b61016b60065481565b61016b610200366004610a78565b6001600160a01b031660009081526020819052604090205490565b6101ae6102293660046109f9565b6104c1565b6101ae6104cc565b61012e6104d4565b61015761024c3660046109f9565b6104e3565b6101ae61025f366004610a5f565b600655565b60055461027c9061010090046001600160a01b031681565b6040516001600160a01b03909116815260200161013b565b61016b6102a2366004610a93565b6001600160a01b03918216600090815260016020908152604080832093909416825291909152205490565b6060600380546102dc90610ac6565b80601f016020809104026020016040519081016040528092919081815260200182805461030890610ac6565b80156103555780601f1061032a57610100808354040283529160200191610355565b820191906000526020600020905b81548152906001019060200180831161033857829003601f168201915b5050505050905090565b60003361036d818585610518565b60019150505b92915050565b60006006548210156103a65760405162461bcd60e51b815260040161039d90610b00565b60405180910390fd5b6103b184848461052a565b949350505050565b6001600160a01b0382166104195760405162461bcd60e51b815260206004820152602160248201527f45524332303a206275726e2066726f6d20746865207a65726f206164647265736044820152607360f81b606482015260840161039d565b80610439836001600160a01b031660009081526020819052604090205490565b10156104925760405162461bcd60e51b815260206004820152602260248201527f45524332303a206275726e20616d6f756e7420657863656564732062616c616e604482015261636560f01b606482015260840161039d565b61049c828261054e565b5050565b6104a8610584565b565b61049c82826105d6565b6104be338261054e565b50565b61049282338361060c565b6104a861068a565b6060600480546102dc90610ac6565b60006006548210156105075760405162461bcd60e51b815260040161039d90610b00565b61051183836106c7565b9392505050565b61052583838360016106d5565b505050565b60003361053885828561060c565b6105438585856107aa565b506001949350505050565b6001600160a01b03821661057857604051634b637e8f60e11b81526000600482015260240161039d565b61049c82600083610805565b61058c610810565b6005805460ff191690557f5db9ee0a495bf2e6ff9c91a7834c1ba4fdd244a5e8aa4e537bd38aeae4b073aa335b6040516001600160a01b03909116815260200160405180910390a1565b6001600160a01b0382166106005760405163ec442f0560e01b81526000600482015260240161039d565b61049c60008383610805565b6001600160a01b038381166000908152600160209081526040808320938616835292905220546000198114610684578181101561067557604051637dc7a0d960e11b81526001600160a01b0384166004820152602481018290526044810183905260640161039d565b610684848484840360006106d5565b50505050565b610692610833565b6005805460ff191660011790557f62e78cea01bee320cd4e420270b5ea74000d11b0c9f74754ebdbfc544b05a2586105b93390565b60003361036d8185856107aa565b6001600160a01b0384166106ff5760405163e602df0560e01b81526000600482015260240161039d565b6001600160a01b03831661072957604051634a1406b160e11b81526000600482015260240161039d565b6001600160a01b038085166000908152600160209081526040808320938716835292905220829055801561068457826001600160a01b0316846001600160a01b03167f8c5be1e5ebec7d5bd14f71427d1e84f3dd0314c0f7b2291e5b200ac8c7c3b9258460405161079c91815260200190565b60405180910390a350505050565b6001600160a01b0383166107d457604051634b637e8f60e11b81526000600482015260240161039d565b6001600160a01b0382166107fe5760405163ec442f0560e01b81526000600482015260240161039d565b6105258383835b610525838383610857565b60055460ff166104a857604051638dfc202b60e01b815260040160405180910390fd5b60055460ff16156104a85760405163d93c066560e01b815260040160405180910390fd5b61085f610833565b6105258383836001600160a01b0383166108905780600260008282546108859190610b5d565b909155506109029050565b6001600160a01b038316600090815260208190526040902054818110156108e35760405163391434e360e21b81526001600160a01b0385166004820152602481018290526044810183905260640161039d565b6001600160a01b03841660009081526020819052604090209082900390555b6001600160a01b03821661091e5760028054829003905561093d565b6001600160a01b03821660009081526020819052604090208054820190555b816001600160a01b0316836001600160a01b03167fddf252ad1be2c89b69c2b068fc378daa952ba7f163c4a11628f55a4df523b3ef8360405161098291815260200190565b60405180910390a3505050565b600060208083528351808285015260005b818110156109bc578581018301518582016040015282016109a0565b506000604082860101526040601f19601f8301168501019250505092915050565b80356001600160a01b03811681146109f457600080fd5b919050565b60008060408385031215610a0c57600080fd5b610a15836109dd565b946020939093013593505050565b600080600060608486031215610a3857600080fd5b610a41846109dd565b9250610a4f602085016109dd565b9150604084013590509250925092565b600060208284031215610a7157600080fd5b5035919050565b600060208284031215610a8a57600080fd5b610511826109dd565b60008060408385031215610aa657600080fd5b610aaf836109dd565b9150610abd602084016109dd565b90509250929050565b600181811c90821680610ada57607f821691505b602082108103610afa57634e487b7160e01b600052602260045260246000fd5b50919050565b60208082526039908201527f416d6f756e74206d7573742062652067726561746572207468616e206f72206560408201527f7175616c20746f206d696e5472616e73666572416d6f756e7400000000000000606082015260800190565b8082018082111561037357634e487b7160e01b600052601160045260246000fdfea2646970667358221220808b0a072b5dd658d09d2f5e73a0f5ff067237d76a9da8356b0babca6188561a64736f6c63430008140033",
  "linkReferences": {},
  "deployedLinkReferences": {}
}