{
  "_format": "hh-sol-artifact-1",
  "contractName": "CariocaGreenSC",
  "sourceName": "contracts/CariocaGreenSC.sol",
  "abi": [
    {
      "inputs": [
        {
          "internalType": "address",
          "name": "initialOwner",
          "type": "address"
        },
        {
          "internalType": "uint256",
          "name": "amount",
          "type": "uint256"
        }
      ],
      "stateMutability": "nonpayable",
      "type": "constructor"
    },
    {
      "inputs": [
        {
          "internalType": "address",
          "name": "owner",
          "type": "address"
        }
      ],
      "name": "OwnableInvalidOwner",
      "type": "error"
    },
    {
      "inputs": [
        {
          "internalType": "address",
          "name": "account",
          "type": "address"
        }
      ],
      "name": "OwnableUnauthorizedAccount",
      "type": "error"
    },
    {
      "anonymous": false,
      "inputs": [
        {
          "indexed": true,
          "internalType": "address",
          "name": "owner",
          "type": "address"
        }
      ],
      "name": "CariocaGreenSCCreated",
      "type": "event"
    },
    {
      "anonymous": false,
      "inputs": [
        {
          "indexed": true,
          "internalType": "address",
          "name": "previousOwner",
          "type": "address"
        },
        {
          "indexed": true,
          "internalType": "address",
          "name": "newOwner",
          "type": "address"
        }
      ],
      "name": "OwnershipTransferred",
      "type": "event"
    },
    {
      "inputs": [],
      "name": "cariocaGreenTreeToken",
      "outputs": [
        {
          "internalType": "contract CariocaGreenTreeToken",
          "name": "",
          "type": "address"
        }
      ],
      "stateMutability": "view",
      "type": "function"
    },
    {
      "inputs": [
        {
          "internalType": "address",
          "name": "to",
          "type": "address"
        }
      ],
      "name": "geraCreditosIPTU",
      "outputs": [],
      "stateMutability": "nonpayable",
      "type": "function"
    },
    {
      "inputs": [],
      "name": "numRIPTUperTree",
      "outputs": [
        {
          "internalType": "uint256",
          "name": "",
          "type": "uint256"
        }
      ],
      "stateMutability": "view",
      "type": "function"
    },
    {
      "inputs": [],
      "name": "owner",
      "outputs": [
        {
          "internalType": "address",
          "name": "",
          "type": "address"
        }
      ],
      "stateMutability": "view",
      "type": "function"
    },
    {
      "inputs": [],
      "name": "renounceOwnership",
      "outputs": [],
      "stateMutability": "nonpayable",
      "type": "function"
    },
    {
      "inputs": [],
      "name": "rioIPTUToken",
      "outputs": [
        {
          "internalType": "contract RioIPTUToken",
          "name": "",
          "type": "address"
        }
      ],
      "stateMutability": "view",
      "type": "function"
    },
    {
      "inputs": [
        {
          "internalType": "address",
          "name": "from",
          "type": "address"
        },
        {
          "internalType": "address",
          "name": "to",
          "type": "address"
        },
        {
          "internalType": "uint256",
          "name": "amount",
          "type": "uint256"
        }
      ],
      "name": "transferCreditosIPTU",
      "outputs": [],
      "stateMutability": "nonpayable",
      "type": "function"
    },
    {
      "inputs": [
        {
          "internalType": "address",
          "name": "newOwner",
          "type": "address"
        }
      ],
      "name": "transferOwnership",
      "outputs": [],
      "stateMutability": "nonpayable",
      "type": "function"
    }
  ],
  "bytecode": "0x608060405234801561001057600080fd5b50604051612eed380380612eed83398101604081905261002f916101bd565b816001600160a01b03811661005e57604051631e4fbdf760e01b81526000600482015260240160405180910390fd5b61006781610153565b506001819055604051829061007b906101a3565b6001600160a01b039091168152602001604051809103906000f0801580156100a7573d6000803e3d6000fd5b50600280546001600160a01b0319166001600160a01b039290921691909117905560405182906100d6906101b0565b6001600160a01b039091168152602001604051809103906000f080158015610102573d6000803e3d6000fd5b50600380546001600160a01b0319166001600160a01b03928316179055604051908316907f9238bbe20e118c3abc5fb944ec3214e9bb640b4d404d9b99f39c5aa7ed1185a490600090a250506101f7565b600080546001600160a01b038381166001600160a01b0319831681178455604051919092169283917f8be0079c531659141344cd1fd0a4f28419497f9722a3daafe3b4186f6b6457e09190a35050565b6119868061060f83390190565b610f5880611f9583390190565b600080604083850312156101d057600080fd5b82516001600160a01b03811681146101e757600080fd5b6020939093015192949293505050565b610409806102066000396000f3fe608060405234801561001057600080fd5b50600436106100885760003560e01c8063a80887d21161005b578063a80887d2146100eb578063b8562400146100fe578063b8aeffa514610111578063f2fde38b1461012457600080fd5b80631d1224041461008d57806359cfa55a146100a2578063715018a6146100be5780638da5cb5b146100c6575b600080fd5b6100a061009b366004610375565b610137565b005b6100ab60015481565b6040519081526020015b60405180910390f35b6100a061020a565b6000546001600160a01b03165b6040516001600160a01b0390911681526020016100b5565b6002546100d3906001600160a01b031681565b6003546100d3906001600160a01b031681565b6100a061011f366004610397565b61021e565b6100a0610132366004610375565b610299565b61013f6102dc565b6002546040516340d097c360e01b81526001600160a01b038381166004830152909116906340d097c390602401600060405180830381600087803b15801561018657600080fd5b505af115801561019a573d6000803e3d6000fd5b50506003546001546040516340c10f1960e01b81526001600160a01b0386811660048301526024820192909252911692506340c10f199150604401600060405180830381600087803b1580156101ef57600080fd5b505af1158015610203573d6000803e3d6000fd5b5050505050565b6102126102dc565b61021c6000610309565b565b6102266102dc565b6003546040516317d5759960e31b81526001600160a01b0385811660048301528481166024830152604482018490529091169063beabacc890606401600060405180830381600087803b15801561027c57600080fd5b505af1158015610290573d6000803e3d6000fd5b50505050505050565b6102a16102dc565b6001600160a01b0381166102d057604051631e4fbdf760e01b8152600060048201526024015b60405180910390fd5b6102d981610309565b50565b6000546001600160a01b0316331461021c5760405163118cdaa760e01b81523360048201526024016102c7565b600080546001600160a01b038381166001600160a01b0319831681178455604051919092169283917f8be0079c531659141344cd1fd0a4f28419497f9722a3daafe3b4186f6b6457e09190a35050565b80356001600160a01b038116811461037057600080fd5b919050565b60006020828403121561038757600080fd5b61039082610359565b9392505050565b6000806000606084860312156103ac57600080fd5b6103b584610359565b92506103c360208501610359565b915060408401359050925092509256fea26469706673582212202dfa428f35c1c64b6a9e4b4febb01868975f13d75d07b19f42a7cc354076340164736f6c6343000814003360806040523480156200001157600080fd5b506040516200198638038062001986833981016040819052620000349162000150565b806040518060400160405280601881526020017f436172696f636120477265656e205472656520546f6b656e00000000000000008152506040518060400160405280600381526020016210d1d560ea1b815250816000908162000098919062000227565b506001620000a7828262000227565b5050600a805460ff19169055506001600160a01b038116620000e357604051631e4fbdf760e01b81526000600482015260240160405180910390fd5b620000ee81620000f6565b5050620002f3565b600a80546001600160a01b03838116610100818102610100600160a81b031985161790945560405193909204169182907f8be0079c531659141344cd1fd0a4f28419497f9722a3daafe3b4186f6b6457e090600090a35050565b6000602082840312156200016357600080fd5b81516001600160a01b03811681146200017b57600080fd5b9392505050565b634e487b7160e01b600052604160045260246000fd5b600181811c90821680620001ad57607f821691505b602082108103620001ce57634e487b7160e01b600052602260045260246000fd5b50919050565b601f8211156200022257600081815260208120601f850160051c81016020861015620001fd5750805b601f850160051c820191505b818110156200021e5782815560010162000209565b5050505b505050565b81516001600160401b0381111562000243576200024362000182565b6200025b8162000254845462000198565b84620001d4565b602080601f8311600181146200029357600084156200027a5750858301515b600019600386901b1c1916600185901b1785556200021e565b600085815260208120601f198616915b82811015620002c457888601518255948401946001909101908401620002a3565b5085821015620002e35787850151600019600388901b60f8161c191681555b5050505050600190811b01905550565b61168380620003036000396000f3fe608060405234801561001057600080fd5b50600436106101585760003560e01c80635c975abb116100c357806395d89b411161007c57806395d89b41146102bd578063a22cb465146102c5578063b88d4fde146102d8578063c87b56dd146102eb578063e985e9c5146102fe578063f2fde38b1461031157600080fd5b80635c975abb146102665780636352211e1461027157806370a0823114610284578063715018a6146102975780638456cb591461029f5780638da5cb5b146102a757600080fd5b80632f745c59116101155780632f745c59146101ff5780633f4ba83a1461021257806340d097c31461021a57806342842e0e1461022d57806342966c68146102405780634f6ccce71461025357600080fd5b806301ffc9a71461015d57806306fdde0314610185578063081812fc1461019a578063095ea7b3146101c557806318160ddd146101da57806323b872dd146101ec575b600080fd5b61017061016b366004611285565b610324565b60405190151581526020015b60405180910390f35b61018d610335565b60405161017c91906112f2565b6101ad6101a8366004611305565b6103c7565b6040516001600160a01b03909116815260200161017c565b6101d86101d336600461133a565b6103f0565b005b6008545b60405190815260200161017c565b6101d86101fa366004611364565b6103ff565b6101de61020d36600461133a565b61048f565b6101d86104f4565b6101d86102283660046113a0565b610506565b6101d861023b366004611364565b61052f565b6101d861024e366004611305565b61054f565b6101de610261366004611305565b61055b565b600a5460ff16610170565b6101ad61027f366004611305565b6105b4565b6101de6102923660046113a0565b6105bf565b6101d8610607565b6101d8610619565b600a5461010090046001600160a01b03166101ad565b61018d610629565b6101d86102d33660046113bb565b610638565b6101d86102e636600461140d565b610643565b61018d6102f9366004611305565b61065a565b61017061030c3660046114e9565b6106cf565b6101d861031f3660046113a0565b6106fd565b600061032f8261073b565b92915050565b6060600080546103449061151c565b80601f01602080910402602001604051908101604052809291908181526020018280546103709061151c565b80156103bd5780601f10610392576101008083540402835291602001916103bd565b820191906000526020600020905b8154815290600101906020018083116103a057829003601f168201915b5050505050905090565b60006103d282610760565b506000828152600460205260409020546001600160a01b031661032f565b6103fb828233610799565b5050565b6001600160a01b03821661042e57604051633250574960e11b8152600060048201526024015b60405180910390fd5b600061043b8383336107a6565b9050836001600160a01b0316816001600160a01b031614610489576040516364283d7b60e01b81526001600160a01b0380861660048301526024820184905282166044820152606401610425565b50505050565b600061049a836105bf565b82106104cb5760405163295f44f760e21b81526001600160a01b038416600482015260248101839052604401610425565b506001600160a01b03919091166000908152600660209081526040808320938352929052205490565b6104fc6107bb565b6105046107ee565b565b61050e6107bb565b600b80546000918261051f8361156c565b9190505590506103fb8282610840565b61054a83838360405180602001604052806000815250610643565b505050565b6103fb600082336107a6565b600061056660085490565b821061058f5760405163295f44f760e21b81526000600482015260248101839052604401610425565b600882815481106105a2576105a2611585565b90600052602060002001549050919050565b600061032f82610760565b60006001600160a01b0382166105eb576040516322718ad960e21b815260006004820152602401610425565b506001600160a01b031660009081526003602052604090205490565b61060f6107bb565b610504600061085a565b6106216107bb565b6105046108b4565b6060600180546103449061151c565b6103fb3383836108f1565b61064e8484846103ff565b61048984848484610990565b606061066582610760565b50600061067d60408051602081019091526000815290565b9050600081511161069d57604051806020016040528060008152506106c8565b806106a784610ab9565b6040516020016106b892919061159b565b6040516020818303038152906040525b9392505050565b6001600160a01b03918216600090815260056020908152604080832093909416825291909152205460ff1690565b6107056107bb565b6001600160a01b03811661072f57604051631e4fbdf760e01b815260006004820152602401610425565b6107388161085a565b50565b60006001600160e01b0319821663780e9d6360e01b148061032f575061032f82610b4c565b6000818152600260205260408120546001600160a01b03168061032f57604051637e27328960e01b815260048101849052602401610425565b61054a8383836001610b9c565b60006107b3848484610ca2565b949350505050565b600a546001600160a01b036101009091041633146105045760405163118cdaa760e01b8152336004820152602401610425565b6107f6610cb7565b600a805460ff191690557f5db9ee0a495bf2e6ff9c91a7834c1ba4fdd244a5e8aa4e537bd38aeae4b073aa335b6040516001600160a01b03909116815260200160405180910390a1565b6103fb828260405180602001604052806000815250610cda565b600a80546001600160a01b03838116610100818102610100600160a81b031985161790945560405193909204169182907f8be0079c531659141344cd1fd0a4f28419497f9722a3daafe3b4186f6b6457e090600090a35050565b6108bc610cf1565b600a805460ff191660011790557f62e78cea01bee320cd4e420270b5ea74000d11b0c9f74754ebdbfc544b05a2586108233390565b6001600160a01b03821661092357604051630b61174360e31b81526001600160a01b0383166004820152602401610425565b6001600160a01b03838116600081815260056020908152604080832094871680845294825291829020805460ff191686151590811790915591519182527f17307eab39ab6107e8899845ad3d59bd9653f200f220920489ca2b5937696c31910160405180910390a3505050565b6001600160a01b0383163b1561048957604051630a85bd0160e11b81526001600160a01b0384169063150b7a02906109d29033908890879087906004016115ca565b6020604051808303816000875af1925050508015610a0d575060408051601f3d908101601f19168201909252610a0a91810190611607565b60015b610a76573d808015610a3b576040519150601f19603f3d011682016040523d82523d6000602084013e610a40565b606091505b508051600003610a6e57604051633250574960e11b81526001600160a01b0385166004820152602401610425565b805181602001fd5b6001600160e01b03198116630a85bd0160e11b14610ab257604051633250574960e11b81526001600160a01b0385166004820152602401610425565b5050505050565b60606000610ac683610d15565b600101905060008167ffffffffffffffff811115610ae657610ae66113f7565b6040519080825280601f01601f191660200182016040528015610b10576020820181803683370190505b5090508181016020015b600019016f181899199a1a9b1b9c1cb0b131b232b360811b600a86061a8153600a8504945084610b1a57509392505050565b60006001600160e01b031982166380ac58cd60e01b1480610b7d57506001600160e01b03198216635b5e139f60e01b145b8061032f57506301ffc9a760e01b6001600160e01b031983161461032f565b8080610bb057506001600160a01b03821615155b15610c72576000610bc084610760565b90506001600160a01b03831615801590610bec5750826001600160a01b0316816001600160a01b031614155b8015610bff5750610bfd81846106cf565b155b15610c285760405163a9fbf51f60e01b81526001600160a01b0384166004820152602401610425565b8115610c705783856001600160a01b0316826001600160a01b03167f8c5be1e5ebec7d5bd14f71427d1e84f3dd0314c0f7b2291e5b200ac8c7c3b92560405160405180910390a45b505b5050600090815260046020526040902080546001600160a01b0319166001600160a01b0392909216919091179055565b6000610cac610cf1565b6107b3848484610ded565b600a5460ff1661050457604051638dfc202b60e01b815260040160405180910390fd5b610ce48383610eba565b61054a6000848484610990565b600a5460ff16156105045760405163d93c066560e01b815260040160405180910390fd5b60008072184f03e93ff9f4daa797ed6e38ed64bf6a1f0160401b8310610d545772184f03e93ff9f4daa797ed6e38ed64bf6a1f0160401b830492506040015b6d04ee2d6d415b85acef81000000008310610d80576d04ee2d6d415b85acef8100000000830492506020015b662386f26fc100008310610d9e57662386f26fc10000830492506010015b6305f5e1008310610db6576305f5e100830492506008015b6127108310610dca57612710830492506004015b60648310610ddc576064830492506002015b600a831061032f5760010192915050565b600080610dfb858585610f1f565b90506001600160a01b038116610e5857610e5384600880546000838152600960205260408120829055600182018355919091527ff3f7a9fe364faab93b216da50a3214154f22a0a2b415b23a84c8169e8b636ee30155565b610e7b565b846001600160a01b0316816001600160a01b031614610e7b57610e7b8185611018565b6001600160a01b038516610e9757610e92846110a9565b6107b3565b846001600160a01b0316816001600160a01b0316146107b3576107b38585611158565b6001600160a01b038216610ee457604051633250574960e11b815260006004820152602401610425565b6000610ef2838360006107a6565b90506001600160a01b0381161561054a576040516339e3563760e11b815260006004820152602401610425565b6000828152600260205260408120546001600160a01b0390811690831615610f4c57610f4c8184866111a8565b6001600160a01b03811615610f8a57610f69600085600080610b9c565b6001600160a01b038116600090815260036020526040902080546000190190555b6001600160a01b03851615610fb9576001600160a01b0385166000908152600360205260409020805460010190555b60008481526002602052604080822080546001600160a01b0319166001600160a01b0389811691821790925591518793918516917fddf252ad1be2c89b69c2b068fc378daa952ba7f163c4a11628f55a4df523b3ef91a4949350505050565b6000611023836105bf565b600083815260076020526040902054909150808214611076576001600160a01b03841660009081526006602090815260408083208584528252808320548484528184208190558352600790915290208190555b5060009182526007602090815260408084208490556001600160a01b039094168352600681528383209183525290812055565b6008546000906110bb90600190611624565b600083815260096020526040812054600880549394509092849081106110e3576110e3611585565b90600052602060002001549050806008838154811061110457611104611585565b600091825260208083209091019290925582815260099091526040808220849055858252812055600880548061113c5761113c611637565b6001900381819060005260206000200160009055905550505050565b60006001611165846105bf565b61116f9190611624565b6001600160a01b039093166000908152600660209081526040808320868452825280832085905593825260079052919091209190915550565b6111b383838361120c565b61054a576001600160a01b0383166111e157604051637e27328960e01b815260048101829052602401610425565b60405163177e802f60e01b81526001600160a01b038316600482015260248101829052604401610425565b60006001600160a01b038316158015906107b35750826001600160a01b0316846001600160a01b03161480611246575061124684846106cf565b806107b35750506000908152600460205260409020546001600160a01b03908116911614919050565b6001600160e01b03198116811461073857600080fd5b60006020828403121561129757600080fd5b81356106c88161126f565b60005b838110156112bd5781810151838201526020016112a5565b50506000910152565b600081518084526112de8160208601602086016112a2565b601f01601f19169290920160200192915050565b6020815260006106c860208301846112c6565b60006020828403121561131757600080fd5b5035919050565b80356001600160a01b038116811461133557600080fd5b919050565b6000806040838503121561134d57600080fd5b6113568361131e565b946020939093013593505050565b60008060006060848603121561137957600080fd5b6113828461131e565b92506113906020850161131e565b9150604084013590509250925092565b6000602082840312156113b257600080fd5b6106c88261131e565b600080604083850312156113ce57600080fd5b6113d78361131e565b9150602083013580151581146113ec57600080fd5b809150509250929050565b634e487b7160e01b600052604160045260246000fd5b6000806000806080858703121561142357600080fd5b61142c8561131e565b935061143a6020860161131e565b925060408501359150606085013567ffffffffffffffff8082111561145e57600080fd5b818701915087601f83011261147257600080fd5b813581811115611484576114846113f7565b604051601f8201601f19908116603f011681019083821181831017156114ac576114ac6113f7565b816040528281528a60208487010111156114c557600080fd5b82602086016020830137600060208483010152809550505050505092959194509250565b600080604083850312156114fc57600080fd5b6115058361131e565b91506115136020840161131e565b90509250929050565b600181811c9082168061153057607f821691505b60208210810361155057634e487b7160e01b600052602260045260246000fd5b50919050565b634e487b7160e01b600052601160045260246000fd5b60006001820161157e5761157e611556565b5060010190565b634e487b7160e01b600052603260045260246000fd5b600083516115ad8184602088016112a2565b8351908301906115c18183602088016112a2565b01949350505050565b6001600160a01b03858116825284166020820152604081018390526080606082018190526000906115fd908301846112c6565b9695505050505050565b60006020828403121561161957600080fd5b81516106c88161126f565b8181038181111561032f5761032f611556565b634e487b7160e01b600052603160045260246000fdfea26469706673582212205cf8c316a61df89b8a5d1a7016f1514dbe43cc4cd6aa8a9bac84ddfcfeb62b1a64736f6c6343000814003360806040523480156200001157600080fd5b5060405162000f5838038062000f58833981016040819052620000349162000312565b806040518060400160405280600e81526020016d2934b79024a82a2a902a37b5b2b760911b81525060405180604001604052806005815260200164524950545560d81b81525081600390816200008b9190620003e8565b5060046200009a8282620003e8565b50506005805460ff19169055506001600160a01b038116620000d757604051631e4fbdf760e01b8152600060048201526024015b60405180910390fd5b620000e281620000f7565b50620000f08160c862000151565b50620004dc565b600580546001600160a01b03838116610100818102610100600160a81b031985161790945560405193909204169182907f8be0079c531659141344cd1fd0a4f28419497f9722a3daafe3b4186f6b6457e090600090a35050565b6001600160a01b0382166200017d5760405163ec442f0560e01b815260006004820152602401620000ce565b6200018b600083836200018f565b5050565b6200019c838383620001a1565b505050565b620001ab620001b8565b6200019c838383620001df565b60055460ff1615620001dd5760405163d93c066560e01b815260040160405180910390fd5b565b6001600160a01b0383166200020e578060026000828254620002029190620004b4565b90915550620002829050565b6001600160a01b03831660009081526020819052604090205481811015620002635760405163391434e360e21b81526001600160a01b03851660048201526024810182905260448101839052606401620000ce565b6001600160a01b03841660009081526020819052604090209082900390555b6001600160a01b038216620002a057600280548290039055620002bf565b6001600160a01b03821660009081526020819052604090208054820190555b816001600160a01b0316836001600160a01b03167fddf252ad1be2c89b69c2b068fc378daa952ba7f163c4a11628f55a4df523b3ef836040516200030591815260200190565b60405180910390a3505050565b6000602082840312156200032557600080fd5b81516001600160a01b03811681146200033d57600080fd5b9392505050565b634e487b7160e01b600052604160045260246000fd5b600181811c908216806200036f57607f821691505b6020821081036200039057634e487b7160e01b600052602260045260246000fd5b50919050565b601f8211156200019c57600081815260208120601f850160051c81016020861015620003bf5750805b601f850160051c820191505b81811015620003e057828155600101620003cb565b505050505050565b81516001600160401b0381111562000404576200040462000344565b6200041c816200041584546200035a565b8462000396565b602080601f8311600181146200045457600084156200043b5750858301515b600019600386901b1c1916600185901b178555620003e0565b600085815260208120601f198616915b82811015620004855788860151825594840194600190910190840162000464565b5085821015620004a45787850151600019600388901b60f8161c191681555b5050505050600190811b01905550565b80820180821115620004d657634e487b7160e01b600052601160045260246000fd5b92915050565b610a6c80620004ec6000396000f3fe608060405234801561001057600080fd5b506004361061010b5760003560e01c806370a08231116100a257806395d89b411161007157806395d89b411461020f578063a9059cbb14610217578063beabacc81461022a578063dd62ed3e1461023d578063f2fde38b1461027657600080fd5b806370a08231146101ad578063715018a6146101d65780638456cb59146101de5780638da5cb5b146101e657600080fd5b8063313ce567116100de578063313ce567146101765780633f4ba83a1461018557806340c10f191461018f5780635c975abb146101a257600080fd5b806306fdde0314610110578063095ea7b31461012e57806318160ddd1461015157806323b872dd14610163575b600080fd5b610118610289565b60405161012591906108b6565b60405180910390f35b61014161013c366004610920565b61031b565b6040519015158152602001610125565b6002545b604051908152602001610125565b61014161017136600461094a565b610335565b60405160008152602001610125565b61018d610359565b005b61018d61019d366004610920565b61036b565b60055460ff16610141565b6101556101bb366004610986565b6001600160a01b031660009081526020819052604090205490565b61018d610381565b61018d610393565b60055461010090046001600160a01b03166040516001600160a01b039091168152602001610125565b6101186103a3565b610141610225366004610920565b6103b2565b61018d61023836600461094a565b6103c0565b61015561024b3660046109a8565b6001600160a01b03918216600090815260016020908152604080832093909416825291909152205490565b61018d610284366004610986565b6103d9565b606060038054610298906109db565b80601f01602080910402602001604051908101604052809291908181526020018280546102c4906109db565b80156103115780601f106102e657610100808354040283529160200191610311565b820191906000526020600020905b8154815290600101906020018083116102f457829003601f168201915b5050505050905090565b60003361032981858561041c565b60019150505b92915050565b60003361034385828561042e565b61034e8585856104a6565b506001949350505050565b610361610505565b610369610538565b565b610373610505565b61037d828261058a565b5050565b610389610505565b61036960006105c0565b61039b610505565b61036961061a565b606060048054610298906109db565b6000336103298185856104a6565b6103c8610505565b6103d3838383610335565b50505050565b6103e1610505565b6001600160a01b03811661041057604051631e4fbdf760e01b8152600060048201526024015b60405180910390fd5b610419816105c0565b50565b6104298383836001610657565b505050565b6001600160a01b0383811660009081526001602090815260408083209386168352929052205460001981146103d3578181101561049757604051637dc7a0d960e11b81526001600160a01b03841660048201526024810182905260448101839052606401610407565b6103d384848484036000610657565b6001600160a01b0383166104d057604051634b637e8f60e11b815260006004820152602401610407565b6001600160a01b0382166104fa5760405163ec442f0560e01b815260006004820152602401610407565b61042983838361072c565b6005546001600160a01b036101009091041633146103695760405163118cdaa760e01b8152336004820152602401610407565b610540610737565b6005805460ff191690557f5db9ee0a495bf2e6ff9c91a7834c1ba4fdd244a5e8aa4e537bd38aeae4b073aa335b6040516001600160a01b03909116815260200160405180910390a1565b6001600160a01b0382166105b45760405163ec442f0560e01b815260006004820152602401610407565b61037d6000838361072c565b600580546001600160a01b03838116610100818102610100600160a81b031985161790945560405193909204169182907f8be0079c531659141344cd1fd0a4f28419497f9722a3daafe3b4186f6b6457e090600090a35050565b61062261075a565b6005805460ff191660011790557f62e78cea01bee320cd4e420270b5ea74000d11b0c9f74754ebdbfc544b05a25861056d3390565b6001600160a01b0384166106815760405163e602df0560e01b815260006004820152602401610407565b6001600160a01b0383166106ab57604051634a1406b160e11b815260006004820152602401610407565b6001600160a01b03808516600090815260016020908152604080832093871683529290522082905580156103d357826001600160a01b0316846001600160a01b03167f8c5be1e5ebec7d5bd14f71427d1e84f3dd0314c0f7b2291e5b200ac8c7c3b9258460405161071e91815260200190565b60405180910390a350505050565b61042983838361077e565b60055460ff1661036957604051638dfc202b60e01b815260040160405180910390fd5b60055460ff16156103695760405163d93c066560e01b815260040160405180910390fd5b61078661075a565b6104298383836001600160a01b0383166107b75780600260008282546107ac9190610a15565b909155506108299050565b6001600160a01b0383166000908152602081905260409020548181101561080a5760405163391434e360e21b81526001600160a01b03851660048201526024810182905260448101839052606401610407565b6001600160a01b03841660009081526020819052604090209082900390555b6001600160a01b03821661084557600280548290039055610864565b6001600160a01b03821660009081526020819052604090208054820190555b816001600160a01b0316836001600160a01b03167fddf252ad1be2c89b69c2b068fc378daa952ba7f163c4a11628f55a4df523b3ef836040516108a991815260200190565b60405180910390a3505050565b600060208083528351808285015260005b818110156108e3578581018301518582016040015282016108c7565b506000604082860101526040601f19601f8301168501019250505092915050565b80356001600160a01b038116811461091b57600080fd5b919050565b6000806040838503121561093357600080fd5b61093c83610904565b946020939093013593505050565b60008060006060848603121561095f57600080fd5b61096884610904565b925061097660208501610904565b9150604084013590509250925092565b60006020828403121561099857600080fd5b6109a182610904565b9392505050565b600080604083850312156109bb57600080fd5b6109c483610904565b91506109d260208401610904565b90509250929050565b600181811c908216806109ef57607f821691505b602082108103610a0f57634e487b7160e01b600052602260045260246000fd5b50919050565b8082018082111561032f57634e487b7160e01b600052601160045260246000fdfea2646970667358221220710e7496e6c74d105b25369e2f03dd7198d80f3b5c3376730c69c9be1d79557364736f6c63430008140033",
  "linkReferences": {},
  "deployedLinkReferences": {}
}