{
  "_format": "hh-sol-artifact-1",
  "contractName": "CariocaGreenSC",
  "sourceName": "contracts/CariocaGreenSC.sol",
  "abi": [
    {
      "inputs": [
        {
          "internalType": "uint256",
          "name": "_creditsPerPlantedTree",
          "type": "uint256"
        }
      ],
      "stateMutability": "nonpayable",
      "type": "constructor"
    },
    {
      "inputs": [
        {
          "internalType": "address",
          "name": "owner",
          "type": "address"
        }
      ],
      "name": "OwnableInvalidOwner",
      "type": "error"
    },
    {
      "inputs": [
        {
          "internalType": "address",
          "name": "account",
          "type": "address"
        }
      ],
      "name": "OwnableUnauthorizedAccount",
      "type": "error"
    },
    {
      "anonymous": false,
      "inputs": [
        {
          "indexed": true,
          "internalType": "address",
          "name": "owner",
          "type": "address"
        }
      ],
      "name": "CariocaGreenSCCreated",
      "type": "event"
    },
    {
      "anonymous": false,
      "inputs": [
        {
          "indexed": true,
          "internalType": "address",
          "name": "previousOwner",
          "type": "address"
        },
        {
          "indexed": true,
          "internalType": "address",
          "name": "newOwner",
          "type": "address"
        }
      ],
      "name": "OwnershipTransferred",
      "type": "event"
    },
    {
      "anonymous": false,
      "inputs": [
        {
          "indexed": true,
          "internalType": "address",
          "name": "citizen",
          "type": "address"
        },
        {
          "indexed": true,
          "internalType": "uint256",
          "name": "trees",
          "type": "uint256"
        },
        {
          "indexed": true,
          "internalType": "uint256",
          "name": "credits",
          "type": "uint256"
        }
      ],
      "name": "PlantedTreeRegistered",
      "type": "event"
    },
    {
      "anonymous": false,
      "inputs": [
        {
          "indexed": true,
          "internalType": "address",
          "name": "citizen",
          "type": "address"
        },
        {
          "indexed": true,
          "internalType": "uint256",
          "name": "trees",
          "type": "uint256"
        },
        {
          "indexed": true,
          "internalType": "uint256",
          "name": "credits",
          "type": "uint256"
        }
      ],
      "name": "PlantedTreeUnRegistered",
      "type": "event"
    },
    {
      "inputs": [
        {
          "internalType": "address",
          "name": "_citizen",
          "type": "address"
        }
      ],
      "name": "getPlantedTrees",
      "outputs": [
        {
          "internalType": "uint256",
          "name": "",
          "type": "uint256"
        }
      ],
      "stateMutability": "view",
      "type": "function"
    },
    {
      "inputs": [
        {
          "internalType": "address",
          "name": "_citizen",
          "type": "address"
        }
      ],
      "name": "getTotalCredits",
      "outputs": [
        {
          "internalType": "uint256",
          "name": "",
          "type": "uint256"
        }
      ],
      "stateMutability": "view",
      "type": "function"
    },
    {
      "inputs": [],
      "name": "owner",
      "outputs": [
        {
          "internalType": "address",
          "name": "",
          "type": "address"
        }
      ],
      "stateMutability": "view",
      "type": "function"
    },
    {
      "inputs": [
        {
          "internalType": "address",
          "name": "_citizen",
          "type": "address"
        }
      ],
      "name": "registerPlantedTree",
      "outputs": [
        {
          "internalType": "uint256",
          "name": "",
          "type": "uint256"
        }
      ],
      "stateMutability": "nonpayable",
      "type": "function"
    },
    {
      "inputs": [],
      "name": "renounceOwnership",
      "outputs": [],
      "stateMutability": "nonpayable",
      "type": "function"
    },
    {
      "inputs": [
        {
          "internalType": "address",
          "name": "_citizen",
          "type": "address"
        },
        {
          "internalType": "uint256",
          "name": "_amount",
          "type": "uint256"
        }
      ],
      "name": "transferCredits",
      "outputs": [
        {
          "internalType": "uint256",
          "name": "",
          "type": "uint256"
        }
      ],
      "stateMutability": "nonpayable",
      "type": "function"
    },
    {
      "inputs": [
        {
          "internalType": "address",
          "name": "newOwner",
          "type": "address"
        }
      ],
      "name": "transferOwnership",
      "outputs": [],
      "stateMutability": "nonpayable",
      "type": "function"
    },
    {
      "inputs": [
        {
          "internalType": "address",
          "name": "_citizen",
          "type": "address"
        }
      ],
      "name": "unregisterPlantedTree",
      "outputs": [],
      "stateMutability": "nonpayable",
      "type": "function"
    }
  ],
  "bytecode": "0x608060405234801561001057600080fd5b5060405161085e38038061085e83398101604081905261002f9161016f565b338061005657604051631e4fbdf760e01b8152600060048201526024015b60405180910390fd5b61005f8161011f565b50600081116100d65760405162461bcd60e51b815260206004820152603a60248201527f546f74616c206e756d626572206f66206372656469747320706572205472656560448201527f206d7573742062652067726561746572207468616e207a65726f000000000000606482015260840161004d565b600180546001600160a01b0319163390811790915560028290556040517f9238bbe20e118c3abc5fb944ec3214e9bb640b4d404d9b99f39c5aa7ed1185a490600090a250610188565b600080546001600160a01b038381166001600160a01b0319831681178455604051919092169283917f8be0079c531659141344cd1fd0a4f28419497f9722a3daafe3b4186f6b6457e09190a35050565b60006020828403121561018157600080fd5b5051919050565b6106c7806101976000396000f3fe608060405234801561001057600080fd5b50600436106100885760003560e01c806397f605b01161005b57806397f605b0146100eb578063d8166732146100fe578063f2fde38b14610111578063fb97033e1461012457600080fd5b806356c31f5a1461008d578063715018a6146100b35780637d6c4ef2146100bd5780638da5cb5b146100d0575b600080fd5b6100a061009b3660046105ac565b610137565b6040519081526020015b60405180910390f35b6100bb61019c565b005b6100a06100cb3660046105ac565b6101b0565b6000546040516001600160a01b0390911681526020016100aa565b6100a06100f93660046105ac565b61020c565b6100bb61010c3660046105ac565b6102e4565b6100bb61011f3660046105ac565b6103f7565b6100a06101323660046105ce565b610435565b6001546000906001600160a01b031633148061015b5750336001600160a01b038316145b6101805760405162461bcd60e51b8152600401610177906105f8565b60405180910390fd5b506001600160a01b031660009081526004602052604090205490565b6101a4610518565b6101ae6000610545565b565b6001546000906001600160a01b03163314806101d45750336001600160a01b038316145b6101f05760405162461bcd60e51b8152600401610177906105f8565b506001600160a01b031660009081526003602052604090205490565b6000610216610518565b6001600160a01b038216600090815260036020526040812080546001929061023f90849061066b565b90915550506002546001600160a01b0383166000908152600460205260408120805490919061026f90849061066b565b9091555050336000908152600460209081526040808320546003909252808320549051919290916001600160a01b038616917f15496e80c4ac81f9165d19c2043ed741817b9de5085c6a7bc9bf97ca7e30c86a91a4506001600160a01b0381166000908152600360205260409020545b919050565b6102ec610518565b336000908152600360205260409020546103585760405162461bcd60e51b815260206004820152602760248201527f436974697a656e20646f6573206e6f74206861766520616e7920706c616e746560448201526632103a3932b29760c91b6064820152608401610177565b33600090815260036020526040812080546001929061037890849061067e565b9091555050600254336000908152600460205260408120805490919061039f90849061067e565b9091555050336000908152600460209081526040808320546003909252808320549051919290916001600160a01b038516917fdfed91c5a3eea108ff698e16f24fee5de3a6acf8244a7bc6e7ba1a207937f93a91a450565b6103ff610518565b6001600160a01b03811661042957604051631e4fbdf760e01b815260006004820152602401610177565b61043281610545565b50565b336000908152600460205260408120548211156104ae5760405162461bcd60e51b815260206004820152603160248201527f436974697a656e20646f6573206e6f74206861766520656e6f756768206372656044820152703234ba39903a37903a3930b739b332b91760791b6064820152608401610177565b33600090815260046020526040812080548492906104cd90849061067e565b90915550506001600160a01b038316600090815260046020526040812080548492906104fa90849061066b565b90915550503360009081526004602052604090205490505b92915050565b6000546001600160a01b031633146101ae5760405163118cdaa760e01b8152336004820152602401610177565b600080546001600160a01b038381166001600160a01b0319831681178455604051919092169283917f8be0079c531659141344cd1fd0a4f28419497f9722a3daafe3b4186f6b6457e09190a35050565b80356001600160a01b03811681146102df57600080fd5b6000602082840312156105be57600080fd5b6105c782610595565b9392505050565b600080604083850312156105e157600080fd5b6105ea83610595565b946020939093013593505050565b6020808252603a908201527f4f6e6c79206f776e20636974697a656e206f7220636f6e7472616374206f776e60408201527f65722063616e2063616c6c20746869732066756e6374696f6e2e000000000000606082015260800190565b634e487b7160e01b600052601160045260246000fd5b8082018082111561051257610512610655565b818103818111156105125761051261065556fea2646970667358221220a0d9553d665708b4c6ceaaf9ddf5d5927823ffd51725836af79cf0c02ce1461264736f6c63430008140033",
  "linkReferences": {},
  "deployedLinkReferences": {}
}