{
  "_format": "hh-sol-artifact-1",
  "contractName": "CariocaGreenTreeToken",
  "sourceName": "contracts/CariocaGreenTreeToken.sol",
  "abi": [
    {
      "inputs": [
        {
          "internalType": "address",
          "name": "initialOwner",
          "type": "address"
        }
      ],
      "stateMutability": "nonpayable",
      "type": "constructor"
    },
    {
      "inputs": [],
      "name": "ERC721EnumerableForbiddenBatchMint",
      "type": "error"
    },
    {
      "inputs": [
        {
          "internalType": "address",
          "name": "sender",
          "type": "address"
        },
        {
          "internalType": "uint256",
          "name": "tokenId",
          "type": "uint256"
        },
        {
          "internalType": "address",
          "name": "owner",
          "type": "address"
        }
      ],
      "name": "ERC721IncorrectOwner",
      "type": "error"
    },
    {
      "inputs": [
        {
          "internalType": "address",
          "name": "operator",
          "type": "address"
        },
        {
          "internalType": "uint256",
          "name": "tokenId",
          "type": "uint256"
        }
      ],
      "name": "ERC721InsufficientApproval",
      "type": "error"
    },
    {
      "inputs": [
        {
          "internalType": "address",
          "name": "approver",
          "type": "address"
        }
      ],
      "name": "ERC721InvalidApprover",
      "type": "error"
    },
    {
      "inputs": [
        {
          "internalType": "address",
          "name": "operator",
          "type": "address"
        }
      ],
      "name": "ERC721InvalidOperator",
      "type": "error"
    },
    {
      "inputs": [
        {
          "internalType": "address",
          "name": "owner",
          "type": "address"
        }
      ],
      "name": "ERC721InvalidOwner",
      "type": "error"
    },
    {
      "inputs": [
        {
          "internalType": "address",
          "name": "receiver",
          "type": "address"
        }
      ],
      "name": "ERC721InvalidReceiver",
      "type": "error"
    },
    {
      "inputs": [
        {
          "internalType": "address",
          "name": "sender",
          "type": "address"
        }
      ],
      "name": "ERC721InvalidSender",
      "type": "error"
    },
    {
      "inputs": [
        {
          "internalType": "uint256",
          "name": "tokenId",
          "type": "uint256"
        }
      ],
      "name": "ERC721NonexistentToken",
      "type": "error"
    },
    {
      "inputs": [
        {
          "internalType": "address",
          "name": "owner",
          "type": "address"
        },
        {
          "internalType": "uint256",
          "name": "index",
          "type": "uint256"
        }
      ],
      "name": "ERC721OutOfBoundsIndex",
      "type": "error"
    },
    {
      "inputs": [],
      "name": "EnforcedPause",
      "type": "error"
    },
    {
      "inputs": [],
      "name": "ExpectedPause",
      "type": "error"
    },
    {
      "inputs": [
        {
          "internalType": "address",
          "name": "owner",
          "type": "address"
        }
      ],
      "name": "OwnableInvalidOwner",
      "type": "error"
    },
    {
      "inputs": [
        {
          "internalType": "address",
          "name": "account",
          "type": "address"
        }
      ],
      "name": "OwnableUnauthorizedAccount",
      "type": "error"
    },
    {
      "anonymous": false,
      "inputs": [
        {
          "indexed": true,
          "internalType": "address",
          "name": "owner",
          "type": "address"
        },
        {
          "indexed": true,
          "internalType": "address",
          "name": "approved",
          "type": "address"
        },
        {
          "indexed": true,
          "internalType": "uint256",
          "name": "tokenId",
          "type": "uint256"
        }
      ],
      "name": "Approval",
      "type": "event"
    },
    {
      "anonymous": false,
      "inputs": [
        {
          "indexed": true,
          "internalType": "address",
          "name": "owner",
          "type": "address"
        },
        {
          "indexed": true,
          "internalType": "address",
          "name": "operator",
          "type": "address"
        },
        {
          "indexed": false,
          "internalType": "bool",
          "name": "approved",
          "type": "bool"
        }
      ],
      "name": "ApprovalForAll",
      "type": "event"
    },
    {
      "anonymous": false,
      "inputs": [
        {
          "indexed": true,
          "internalType": "address",
          "name": "previousOwner",
          "type": "address"
        },
        {
          "indexed": true,
          "internalType": "address",
          "name": "newOwner",
          "type": "address"
        }
      ],
      "name": "OwnershipTransferred",
      "type": "event"
    },
    {
      "anonymous": false,
      "inputs": [
        {
          "indexed": false,
          "internalType": "address",
          "name": "account",
          "type": "address"
        }
      ],
      "name": "Paused",
      "type": "event"
    },
    {
      "anonymous": false,
      "inputs": [
        {
          "indexed": true,
          "internalType": "address",
          "name": "from",
          "type": "address"
        },
        {
          "indexed": true,
          "internalType": "address",
          "name": "to",
          "type": "address"
        },
        {
          "indexed": true,
          "internalType": "uint256",
          "name": "tokenId",
          "type": "uint256"
        }
      ],
      "name": "Transfer",
      "type": "event"
    },
    {
      "anonymous": false,
      "inputs": [
        {
          "indexed": false,
          "internalType": "address",
          "name": "account",
          "type": "address"
        }
      ],
      "name": "Unpaused",
      "type": "event"
    },
    {
      "inputs": [
        {
          "internalType": "address",
          "name": "to",
          "type": "address"
        },
        {
          "internalType": "uint256",
          "name": "tokenId",
          "type": "uint256"
        }
      ],
      "name": "approve",
      "outputs": [],
      "stateMutability": "nonpayable",
      "type": "function"
    },
    {
      "inputs": [
        {
          "internalType": "address",
          "name": "owner",
          "type": "address"
        }
      ],
      "name": "balanceOf",
      "outputs": [
        {
          "internalType": "uint256",
          "name": "",
          "type": "uint256"
        }
      ],
      "stateMutability": "view",
      "type": "function"
    },
    {
      "inputs": [
        {
          "internalType": "uint256",
          "name": "tokenId",
          "type": "uint256"
        }
      ],
      "name": "burn",
      "outputs": [],
      "stateMutability": "nonpayable",
      "type": "function"
    },
    {
      "inputs": [
        {
          "internalType": "uint256",
          "name": "tokenId",
          "type": "uint256"
        }
      ],
      "name": "getApproved",
      "outputs": [
        {
          "internalType": "address",
          "name": "",
          "type": "address"
        }
      ],
      "stateMutability": "view",
      "type": "function"
    },
    {
      "inputs": [
        {
          "internalType": "address",
          "name": "owner",
          "type": "address"
        },
        {
          "internalType": "address",
          "name": "operator",
          "type": "address"
        }
      ],
      "name": "isApprovedForAll",
      "outputs": [
        {
          "internalType": "bool",
          "name": "",
          "type": "bool"
        }
      ],
      "stateMutability": "view",
      "type": "function"
    },
    {
      "inputs": [],
      "name": "name",
      "outputs": [
        {
          "internalType": "string",
          "name": "",
          "type": "string"
        }
      ],
      "stateMutability": "view",
      "type": "function"
    },
    {
      "inputs": [],
      "name": "owner",
      "outputs": [
        {
          "internalType": "address",
          "name": "",
          "type": "address"
        }
      ],
      "stateMutability": "view",
      "type": "function"
    },
    {
      "inputs": [
        {
          "internalType": "uint256",
          "name": "tokenId",
          "type": "uint256"
        }
      ],
      "name": "ownerOf",
      "outputs": [
        {
          "internalType": "address",
          "name": "",
          "type": "address"
        }
      ],
      "stateMutability": "view",
      "type": "function"
    },
    {
      "inputs": [],
      "name": "pause",
      "outputs": [],
      "stateMutability": "nonpayable",
      "type": "function"
    },
    {
      "inputs": [],
      "name": "paused",
      "outputs": [
        {
          "internalType": "bool",
          "name": "",
          "type": "bool"
        }
      ],
      "stateMutability": "view",
      "type": "function"
    },
    {
      "inputs": [],
      "name": "renounceOwnership",
      "outputs": [],
      "stateMutability": "nonpayable",
      "type": "function"
    },
    {
      "inputs": [
        {
          "internalType": "address",
          "name": "to",
          "type": "address"
        }
      ],
      "name": "safeMint",
      "outputs": [],
      "stateMutability": "nonpayable",
      "type": "function"
    },
    {
      "inputs": [
        {
          "internalType": "address",
          "name": "from",
          "type": "address"
        },
        {
          "internalType": "address",
          "name": "to",
          "type": "address"
        },
        {
          "internalType": "uint256",
          "name": "tokenId",
          "type": "uint256"
        }
      ],
      "name": "safeTransferFrom",
      "outputs": [],
      "stateMutability": "nonpayable",
      "type": "function"
    },
    {
      "inputs": [
        {
          "internalType": "address",
          "name": "from",
          "type": "address"
        },
        {
          "internalType": "address",
          "name": "to",
          "type": "address"
        },
        {
          "internalType": "uint256",
          "name": "tokenId",
          "type": "uint256"
        },
        {
          "internalType": "bytes",
          "name": "data",
          "type": "bytes"
        }
      ],
      "name": "safeTransferFrom",
      "outputs": [],
      "stateMutability": "nonpayable",
      "type": "function"
    },
    {
      "inputs": [
        {
          "internalType": "address",
          "name": "operator",
          "type": "address"
        },
        {
          "internalType": "bool",
          "name": "approved",
          "type": "bool"
        }
      ],
      "name": "setApprovalForAll",
      "outputs": [],
      "stateMutability": "nonpayable",
      "type": "function"
    },
    {
      "inputs": [
        {
          "internalType": "bytes4",
          "name": "interfaceId",
          "type": "bytes4"
        }
      ],
      "name": "supportsInterface",
      "outputs": [
        {
          "internalType": "bool",
          "name": "",
          "type": "bool"
        }
      ],
      "stateMutability": "view",
      "type": "function"
    },
    {
      "inputs": [],
      "name": "symbol",
      "outputs": [
        {
          "internalType": "string",
          "name": "",
          "type": "string"
        }
      ],
      "stateMutability": "view",
      "type": "function"
    },
    {
      "inputs": [
        {
          "internalType": "uint256",
          "name": "index",
          "type": "uint256"
        }
      ],
      "name": "tokenByIndex",
      "outputs": [
        {
          "internalType": "uint256",
          "name": "",
          "type": "uint256"
        }
      ],
      "stateMutability": "view",
      "type": "function"
    },
    {
      "inputs": [
        {
          "internalType": "address",
          "name": "owner",
          "type": "address"
        },
        {
          "internalType": "uint256",
          "name": "index",
          "type": "uint256"
        }
      ],
      "name": "tokenOfOwnerByIndex",
      "outputs": [
        {
          "internalType": "uint256",
          "name": "",
          "type": "uint256"
        }
      ],
      "stateMutability": "view",
      "type": "function"
    },
    {
      "inputs": [
        {
          "internalType": "uint256",
          "name": "tokenId",
          "type": "uint256"
        }
      ],
      "name": "tokenURI",
      "outputs": [
        {
          "internalType": "string",
          "name": "",
          "type": "string"
        }
      ],
      "stateMutability": "view",
      "type": "function"
    },
    {
      "inputs": [],
      "name": "totalSupply",
      "outputs": [
        {
          "internalType": "uint256",
          "name": "",
          "type": "uint256"
        }
      ],
      "stateMutability": "view",
      "type": "function"
    },
    {
      "inputs": [
        {
          "internalType": "address",
          "name": "from",
          "type": "address"
        },
        {
          "internalType": "address",
          "name": "to",
          "type": "address"
        },
        {
          "internalType": "uint256",
          "name": "tokenId",
          "type": "uint256"
        }
      ],
      "name": "transferFrom",
      "outputs": [],
      "stateMutability": "nonpayable",
      "type": "function"
    },
    {
      "inputs": [
        {
          "internalType": "address",
          "name": "newOwner",
          "type": "address"
        }
      ],
      "name": "transferOwnership",
      "outputs": [],
      "stateMutability": "nonpayable",
      "type": "function"
    },
    {
      "inputs": [],
      "name": "unpause",
      "outputs": [],
      "stateMutability": "nonpayable",
      "type": "function"
    }
  ],
  "bytecode": "0x60806040523480156200001157600080fd5b50604051620019ab380380620019ab833981016040819052620000349162000150565b806040518060400160405280601881526020017f436172696f636120477265656e205472656520546f6b656e00000000000000008152506040518060400160405280600381526020016210d1d560ea1b815250816000908162000098919062000227565b506001620000a7828262000227565b5050600a805460ff19169055506001600160a01b038116620000e357604051631e4fbdf760e01b81526000600482015260240160405180910390fd5b620000ee81620000f6565b5050620002f3565b600a80546001600160a01b03838116610100818102610100600160a81b031985161790945560405193909204169182907f8be0079c531659141344cd1fd0a4f28419497f9722a3daafe3b4186f6b6457e090600090a35050565b6000602082840312156200016357600080fd5b81516001600160a01b03811681146200017b57600080fd5b9392505050565b634e487b7160e01b600052604160045260246000fd5b600181811c90821680620001ad57607f821691505b602082108103620001ce57634e487b7160e01b600052602260045260246000fd5b50919050565b601f8211156200022257600081815260208120601f850160051c81016020861015620001fd5750805b601f850160051c820191505b818110156200021e5782815560010162000209565b5050505b505050565b81516001600160401b0381111562000243576200024362000182565b6200025b8162000254845462000198565b84620001d4565b602080601f8311600181146200029357600084156200027a5750858301515b600019600386901b1c1916600185901b1785556200021e565b600085815260208120601f198616915b82811015620002c457888601518255948401946001909101908401620002a3565b5085821015620002e35787850151600019600388901b60f8161c191681555b5050505050600190811b01905550565b6116a880620003036000396000f3fe608060405234801561001057600080fd5b50600436106101585760003560e01c80635c975abb116100c357806395d89b411161007c57806395d89b41146102bd578063a22cb465146102c5578063b88d4fde146102d8578063c87b56dd146102eb578063e985e9c5146102fe578063f2fde38b1461031157600080fd5b80635c975abb146102665780636352211e1461027157806370a0823114610284578063715018a6146102975780638456cb591461029f5780638da5cb5b146102a757600080fd5b80632f745c59116101155780632f745c59146101ff5780633f4ba83a1461021257806340d097c31461021a57806342842e0e1461022d57806342966c68146102405780634f6ccce71461025357600080fd5b806301ffc9a71461015d57806306fdde0314610185578063081812fc1461019a578063095ea7b3146101c557806318160ddd146101da57806323b872dd146101ec575b600080fd5b61017061016b3660046112aa565b610324565b60405190151581526020015b60405180910390f35b61018d610335565b60405161017c9190611317565b6101ad6101a836600461132a565b6103c7565b6040516001600160a01b03909116815260200161017c565b6101d86101d336600461135f565b6103f0565b005b6008545b60405190815260200161017c565b6101d86101fa366004611389565b6103ff565b6101de61020d36600461135f565b61048f565b6101d86104f4565b6101d86102283660046113c5565b610506565b6101d861023b366004611389565b61052f565b6101d861024e36600461132a565b61054f565b6101de61026136600461132a565b61055b565b600a5460ff16610170565b6101ad61027f36600461132a565b6105b4565b6101de6102923660046113c5565b6105bf565b6101d8610607565b6101d8610619565b600a5461010090046001600160a01b03166101ad565b61018d610629565b6101d86102d33660046113e0565b610638565b6101d86102e6366004611432565b610643565b61018d6102f936600461132a565b61065a565b61017061030c36600461150e565b6106f4565b6101d861031f3660046113c5565b610722565b600061032f82610760565b92915050565b60606000805461034490611541565b80601f016020809104026020016040519081016040528092919081815260200182805461037090611541565b80156103bd5780601f10610392576101008083540402835291602001916103bd565b820191906000526020600020905b8154815290600101906020018083116103a057829003601f168201915b5050505050905090565b60006103d282610785565b506000828152600460205260409020546001600160a01b031661032f565b6103fb8282336107be565b5050565b6001600160a01b03821661042e57604051633250574960e11b8152600060048201526024015b60405180910390fd5b600061043b8383336107cb565b9050836001600160a01b0316816001600160a01b031614610489576040516364283d7b60e01b81526001600160a01b0380861660048301526024820184905282166044820152606401610425565b50505050565b600061049a836105bf565b82106104cb5760405163295f44f760e21b81526001600160a01b038416600482015260248101839052604401610425565b506001600160a01b03919091166000908152600660209081526040808320938352929052205490565b6104fc6107e0565b610504610813565b565b61050e6107e0565b600b80546000918261051f83611591565b9190505590506103fb8282610865565b61054a83838360405180602001604052806000815250610643565b505050565b6103fb600082336107cb565b600061056660085490565b821061058f5760405163295f44f760e21b81526000600482015260248101839052604401610425565b600882815481106105a2576105a26115aa565b90600052602060002001549050919050565b600061032f82610785565b60006001600160a01b0382166105eb576040516322718ad960e21b815260006004820152602401610425565b506001600160a01b031660009081526003602052604090205490565b61060f6107e0565b610504600061087f565b6106216107e0565b6105046108d9565b60606001805461034490611541565b6103fb338383610916565b61064e8484846103ff565b610489848484846109b5565b606061066582610785565b5060006106a260408051808201909152601b81527f68747470733a2f2f72696f64656a616e6569726f2e676f762e62720000000000602082015290565b905060008151116106c257604051806020016040528060008152506106ed565b806106cc84610ade565b6040516020016106dd9291906115c0565b6040516020818303038152906040525b9392505050565b6001600160a01b03918216600090815260056020908152604080832093909416825291909152205460ff1690565b61072a6107e0565b6001600160a01b03811661075457604051631e4fbdf760e01b815260006004820152602401610425565b61075d8161087f565b50565b60006001600160e01b0319821663780e9d6360e01b148061032f575061032f82610b71565b6000818152600260205260408120546001600160a01b03168061032f57604051637e27328960e01b815260048101849052602401610425565b61054a8383836001610bc1565b60006107d8848484610cc7565b949350505050565b600a546001600160a01b036101009091041633146105045760405163118cdaa760e01b8152336004820152602401610425565b61081b610cdc565b600a805460ff191690557f5db9ee0a495bf2e6ff9c91a7834c1ba4fdd244a5e8aa4e537bd38aeae4b073aa335b6040516001600160a01b03909116815260200160405180910390a1565b6103fb828260405180602001604052806000815250610cff565b600a80546001600160a01b03838116610100818102610100600160a81b031985161790945560405193909204169182907f8be0079c531659141344cd1fd0a4f28419497f9722a3daafe3b4186f6b6457e090600090a35050565b6108e1610d16565b600a805460ff191660011790557f62e78cea01bee320cd4e420270b5ea74000d11b0c9f74754ebdbfc544b05a2586108483390565b6001600160a01b03821661094857604051630b61174360e31b81526001600160a01b0383166004820152602401610425565b6001600160a01b03838116600081815260056020908152604080832094871680845294825291829020805460ff191686151590811790915591519182527f17307eab39ab6107e8899845ad3d59bd9653f200f220920489ca2b5937696c31910160405180910390a3505050565b6001600160a01b0383163b1561048957604051630a85bd0160e11b81526001600160a01b0384169063150b7a02906109f79033908890879087906004016115ef565b6020604051808303816000875af1925050508015610a32575060408051601f3d908101601f19168201909252610a2f9181019061162c565b60015b610a9b573d808015610a60576040519150601f19603f3d011682016040523d82523d6000602084013e610a65565b606091505b508051600003610a9357604051633250574960e11b81526001600160a01b0385166004820152602401610425565b805181602001fd5b6001600160e01b03198116630a85bd0160e11b14610ad757604051633250574960e11b81526001600160a01b0385166004820152602401610425565b5050505050565b60606000610aeb83610d3a565b600101905060008167ffffffffffffffff811115610b0b57610b0b61141c565b6040519080825280601f01601f191660200182016040528015610b35576020820181803683370190505b5090508181016020015b600019016f181899199a1a9b1b9c1cb0b131b232b360811b600a86061a8153600a8504945084610b3f57509392505050565b60006001600160e01b031982166380ac58cd60e01b1480610ba257506001600160e01b03198216635b5e139f60e01b145b8061032f57506301ffc9a760e01b6001600160e01b031983161461032f565b8080610bd557506001600160a01b03821615155b15610c97576000610be584610785565b90506001600160a01b03831615801590610c115750826001600160a01b0316816001600160a01b031614155b8015610c245750610c2281846106f4565b155b15610c4d5760405163a9fbf51f60e01b81526001600160a01b0384166004820152602401610425565b8115610c955783856001600160a01b0316826001600160a01b03167f8c5be1e5ebec7d5bd14f71427d1e84f3dd0314c0f7b2291e5b200ac8c7c3b92560405160405180910390a45b505b5050600090815260046020526040902080546001600160a01b0319166001600160a01b0392909216919091179055565b6000610cd1610d16565b6107d8848484610e12565b600a5460ff1661050457604051638dfc202b60e01b815260040160405180910390fd5b610d098383610edf565b61054a60008484846109b5565b600a5460ff16156105045760405163d93c066560e01b815260040160405180910390fd5b60008072184f03e93ff9f4daa797ed6e38ed64bf6a1f0160401b8310610d795772184f03e93ff9f4daa797ed6e38ed64bf6a1f0160401b830492506040015b6d04ee2d6d415b85acef81000000008310610da5576d04ee2d6d415b85acef8100000000830492506020015b662386f26fc100008310610dc357662386f26fc10000830492506010015b6305f5e1008310610ddb576305f5e100830492506008015b6127108310610def57612710830492506004015b60648310610e01576064830492506002015b600a831061032f5760010192915050565b600080610e20858585610f44565b90506001600160a01b038116610e7d57610e7884600880546000838152600960205260408120829055600182018355919091527ff3f7a9fe364faab93b216da50a3214154f22a0a2b415b23a84c8169e8b636ee30155565b610ea0565b846001600160a01b0316816001600160a01b031614610ea057610ea0818561103d565b6001600160a01b038516610ebc57610eb7846110ce565b6107d8565b846001600160a01b0316816001600160a01b0316146107d8576107d8858561117d565b6001600160a01b038216610f0957604051633250574960e11b815260006004820152602401610425565b6000610f17838360006107cb565b90506001600160a01b0381161561054a576040516339e3563760e11b815260006004820152602401610425565b6000828152600260205260408120546001600160a01b0390811690831615610f7157610f718184866111cd565b6001600160a01b03811615610faf57610f8e600085600080610bc1565b6001600160a01b038116600090815260036020526040902080546000190190555b6001600160a01b03851615610fde576001600160a01b0385166000908152600360205260409020805460010190555b60008481526002602052604080822080546001600160a01b0319166001600160a01b0389811691821790925591518793918516917fddf252ad1be2c89b69c2b068fc378daa952ba7f163c4a11628f55a4df523b3ef91a4949350505050565b6000611048836105bf565b60008381526007602052604090205490915080821461109b576001600160a01b03841660009081526006602090815260408083208584528252808320548484528184208190558352600790915290208190555b5060009182526007602090815260408084208490556001600160a01b039094168352600681528383209183525290812055565b6008546000906110e090600190611649565b60008381526009602052604081205460088054939450909284908110611108576111086115aa565b906000526020600020015490508060088381548110611129576111296115aa565b60009182526020808320909101929092558281526009909152604080822084905585825281205560088054806111615761116161165c565b6001900381819060005260206000200160009055905550505050565b6000600161118a846105bf565b6111949190611649565b6001600160a01b039093166000908152600660209081526040808320868452825280832085905593825260079052919091209190915550565b6111d8838383611231565b61054a576001600160a01b03831661120657604051637e27328960e01b815260048101829052602401610425565b60405163177e802f60e01b81526001600160a01b038316600482015260248101829052604401610425565b60006001600160a01b038316158015906107d85750826001600160a01b0316846001600160a01b0316148061126b575061126b84846106f4565b806107d85750506000908152600460205260409020546001600160a01b03908116911614919050565b6001600160e01b03198116811461075d57600080fd5b6000602082840312156112bc57600080fd5b81356106ed81611294565b60005b838110156112e25781810151838201526020016112ca565b50506000910152565b600081518084526113038160208601602086016112c7565b601f01601f19169290920160200192915050565b6020815260006106ed60208301846112eb565b60006020828403121561133c57600080fd5b5035919050565b80356001600160a01b038116811461135a57600080fd5b919050565b6000806040838503121561137257600080fd5b61137b83611343565b946020939093013593505050565b60008060006060848603121561139e57600080fd5b6113a784611343565b92506113b560208501611343565b9150604084013590509250925092565b6000602082840312156113d757600080fd5b6106ed82611343565b600080604083850312156113f357600080fd5b6113fc83611343565b91506020830135801515811461141157600080fd5b809150509250929050565b634e487b7160e01b600052604160045260246000fd5b6000806000806080858703121561144857600080fd5b61145185611343565b935061145f60208601611343565b925060408501359150606085013567ffffffffffffffff8082111561148357600080fd5b818701915087601f83011261149757600080fd5b8135818111156114a9576114a961141c565b604051601f8201601f19908116603f011681019083821181831017156114d1576114d161141c565b816040528281528a60208487010111156114ea57600080fd5b82602086016020830137600060208483010152809550505050505092959194509250565b6000806040838503121561152157600080fd5b61152a83611343565b915061153860208401611343565b90509250929050565b600181811c9082168061155557607f821691505b60208210810361157557634e487b7160e01b600052602260045260246000fd5b50919050565b634e487b7160e01b600052601160045260246000fd5b6000600182016115a3576115a361157b565b5060010190565b634e487b7160e01b600052603260045260246000fd5b600083516115d28184602088016112c7565b8351908301906115e68183602088016112c7565b01949350505050565b6001600160a01b0385811682528416602082015260408101839052608060608201819052600090611622908301846112eb565b9695505050505050565b60006020828403121561163e57600080fd5b81516106ed81611294565b8181038181111561032f5761032f61157b565b634e487b7160e01b600052603160045260246000fdfea2646970667358221220e95b53d3fa884bbebd601e77eafb486e0ebf2b626ce154c20fc66cfc55a55ed164736f6c63430008140033",
  "linkReferences": {},
  "deployedLinkReferences": {}
}