{
  "_format": "hh-sol-artifact-1",
  "contractName": "CariocaGreenSC",
  "sourceName": "contracts/CariocaGreenSC.sol",
  "abi": [
    {
      "inputs": [
        {
          "internalType": "uint256",
          "name": "_creditsPerPlantedTree",
          "type": "uint256"
        }
      ],
      "stateMutability": "nonpayable",
      "type": "constructor"
    },
    {
      "inputs": [
        {
          "internalType": "address",
          "name": "owner",
          "type": "address"
        }
      ],
      "name": "OwnableInvalidOwner",
      "type": "error"
    },
    {
      "inputs": [
        {
          "internalType": "address",
          "name": "account",
          "type": "address"
        }
      ],
      "name": "OwnableUnauthorizedAccount",
      "type": "error"
    },
    {
      "anonymous": false,
      "inputs": [
        {
          "indexed": true,
          "internalType": "address",
          "name": "owner",
          "type": "address"
        }
      ],
      "name": "CariocaGreenSCCreated",
      "type": "event"
    },
    {
      "anonymous": false,
      "inputs": [
        {
          "indexed": true,
          "internalType": "address",
          "name": "owner",
          "type": "address"
        }
      ],
      "name": "CariocaGreenTreeTokenCreated",
      "type": "event"
    },
    {
      "anonymous": false,
      "inputs": [
        {
          "indexed": true,
          "internalType": "address",
          "name": "previousOwner",
          "type": "address"
        },
        {
          "indexed": true,
          "internalType": "address",
          "name": "newOwner",
          "type": "address"
        }
      ],
      "name": "OwnershipTransferred",
      "type": "event"
    },
    {
      "anonymous": false,
      "inputs": [
        {
          "indexed": true,
          "internalType": "address",
          "name": "citizen",
          "type": "address"
        },
        {
          "indexed": true,
          "internalType": "uint256",
          "name": "trees",
          "type": "uint256"
        },
        {
          "indexed": true,
          "internalType": "uint256",
          "name": "credits",
          "type": "uint256"
        }
      ],
      "name": "PlantedTreeRegistered",
      "type": "event"
    },
    {
      "anonymous": false,
      "inputs": [
        {
          "indexed": true,
          "internalType": "address",
          "name": "citizen",
          "type": "address"
        },
        {
          "indexed": true,
          "internalType": "uint256",
          "name": "trees",
          "type": "uint256"
        },
        {
          "indexed": true,
          "internalType": "uint256",
          "name": "credits",
          "type": "uint256"
        }
      ],
      "name": "PlantedTreeUnregistered",
      "type": "event"
    },
    {
      "anonymous": false,
      "inputs": [
        {
          "indexed": true,
          "internalType": "address",
          "name": "owner",
          "type": "address"
        }
      ],
      "name": "RioIPTUTokenCreated",
      "type": "event"
    },
    {
      "inputs": [
        {
          "internalType": "address",
          "name": "_address",
          "type": "address"
        }
      ],
      "name": "balanceOf",
      "outputs": [],
      "stateMutability": "nonpayable",
      "type": "function"
    },
    {
      "inputs": [],
      "name": "cariocaGreenTreeToken",
      "outputs": [
        {
          "internalType": "contract CariocaGreenTreeToken",
          "name": "",
          "type": "address"
        }
      ],
      "stateMutability": "view",
      "type": "function"
    },
    {
      "inputs": [],
      "name": "cariocaGreenTreeTokenAddress",
      "outputs": [
        {
          "internalType": "address",
          "name": "",
          "type": "address"
        }
      ],
      "stateMutability": "view",
      "type": "function"
    },
    {
      "inputs": [
        {
          "internalType": "address",
          "name": "_to",
          "type": "address"
        }
      ],
      "name": "chainDestroyCGT",
      "outputs": [],
      "stateMutability": "nonpayable",
      "type": "function"
    },
    {
      "inputs": [
        {
          "internalType": "address",
          "name": "_to",
          "type": "address"
        }
      ],
      "name": "chainDestroyRIPTU",
      "outputs": [],
      "stateMutability": "nonpayable",
      "type": "function"
    },
    {
      "inputs": [
        {
          "internalType": "address",
          "name": "_to",
          "type": "address"
        }
      ],
      "name": "chainMintCGT",
      "outputs": [],
      "stateMutability": "nonpayable",
      "type": "function"
    },
    {
      "inputs": [
        {
          "internalType": "address",
          "name": "_to",
          "type": "address"
        }
      ],
      "name": "chainMintRIPTU",
      "outputs": [],
      "stateMutability": "nonpayable",
      "type": "function"
    },
    {
      "inputs": [
        {
          "internalType": "address",
          "name": "_to",
          "type": "address"
        },
        {
          "internalType": "uint256",
          "name": "_amount",
          "type": "uint256"
        }
      ],
      "name": "chainTransferRIPTU",
      "outputs": [],
      "stateMutability": "nonpayable",
      "type": "function"
    },
    {
      "inputs": [],
      "name": "getCariocaGreenTreeTokenAddress",
      "outputs": [
        {
          "internalType": "address",
          "name": "",
          "type": "address"
        }
      ],
      "stateMutability": "view",
      "type": "function"
    },
    {
      "inputs": [],
      "name": "getCariocaGreenTreeTokenBalance",
      "outputs": [
        {
          "internalType": "uint256",
          "name": "",
          "type": "uint256"
        }
      ],
      "stateMutability": "view",
      "type": "function"
    },
    {
      "inputs": [],
      "name": "getPlantedTrees",
      "outputs": [
        {
          "internalType": "uint256",
          "name": "",
          "type": "uint256"
        }
      ],
      "stateMutability": "view",
      "type": "function"
    },
    {
      "inputs": [],
      "name": "getRioIPTUTokenAddress",
      "outputs": [
        {
          "internalType": "address",
          "name": "",
          "type": "address"
        }
      ],
      "stateMutability": "view",
      "type": "function"
    },
    {
      "inputs": [],
      "name": "getRioIPTUTokenBalance",
      "outputs": [
        {
          "internalType": "uint256",
          "name": "",
          "type": "uint256"
        }
      ],
      "stateMutability": "view",
      "type": "function"
    },
    {
      "inputs": [],
      "name": "getTotalCredits",
      "outputs": [
        {
          "internalType": "uint256",
          "name": "",
          "type": "uint256"
        }
      ],
      "stateMutability": "view",
      "type": "function"
    },
    {
      "inputs": [],
      "name": "owner",
      "outputs": [
        {
          "internalType": "address",
          "name": "",
          "type": "address"
        }
      ],
      "stateMutability": "view",
      "type": "function"
    },
    {
      "inputs": [
        {
          "internalType": "address",
          "name": "_address",
          "type": "address"
        }
      ],
      "name": "registerPlantedTree",
      "outputs": [
        {
          "internalType": "uint256",
          "name": "",
          "type": "uint256"
        }
      ],
      "stateMutability": "nonpayable",
      "type": "function"
    },
    {
      "inputs": [],
      "name": "renounceOwnership",
      "outputs": [],
      "stateMutability": "nonpayable",
      "type": "function"
    },
    {
      "inputs": [],
      "name": "rioIPTUToken",
      "outputs": [
        {
          "internalType": "contract RioIPTUToken",
          "name": "",
          "type": "address"
        }
      ],
      "stateMutability": "view",
      "type": "function"
    },
    {
      "inputs": [],
      "name": "rioIPTUTokenAddress",
      "outputs": [
        {
          "internalType": "address",
          "name": "",
          "type": "address"
        }
      ],
      "stateMutability": "view",
      "type": "function"
    },
    {
      "inputs": [
        {
          "internalType": "address",
          "name": "_to",
          "type": "address"
        },
        {
          "internalType": "uint256",
          "name": "_amount",
          "type": "uint256"
        }
      ],
      "name": "transferCredits",
      "outputs": [
        {
          "internalType": "uint256",
          "name": "",
          "type": "uint256"
        }
      ],
      "stateMutability": "nonpayable",
      "type": "function"
    },
    {
      "inputs": [
        {
          "internalType": "address",
          "name": "newOwner",
          "type": "address"
        }
      ],
      "name": "transferOwnership",
      "outputs": [],
      "stateMutability": "nonpayable",
      "type": "function"
    },
    {
      "inputs": [
        {
          "internalType": "address",
          "name": "_address",
          "type": "address"
        }
      ],
      "name": "unregisteredPlantedTree",
      "outputs": [
        {
          "internalType": "uint256",
          "name": "",
          "type": "uint256"
        }
      ],
      "stateMutability": "nonpayable",
      "type": "function"
    }
  ],
  "bytecode": "0x608060405234801561001057600080fd5b506040516135e33803806135e383398101604081905261002f916102d1565b338061005657604051631e4fbdf760e01b8152600060048201526024015b60405180910390fd5b61005f81610267565b50600081116100d65760405162461bcd60e51b815260206004820152603a60248201527f546f74616c206e756d626572206f66206372656469747320706572205472656560448201527f206d7573742062652067726561746572207468616e207a65726f000000000000606482015260840161004d565b600180546001600160a01b031916339081179091556040516100f7906102b7565b6001600160a01b039091168152602001604051809103906000f080158015610123573d6000803e3d6000fd5b50600580546001600160a01b0319166001600160a01b03928316179055600154604051911690610152906102c4565b6001600160a01b039091168152602001604051809103906000f08015801561017e573d6000803e3d6000fd5b50600680546001600160a01b039283166001600160a01b0319918216811790925560055460038054831691851691909117905560048054909116909117905560028290556001546040519116907f9238bbe20e118c3abc5fb944ec3214e9bb640b4d404d9b99f39c5aa7ed1185a490600090a26001546040516001600160a01b03909116907f05d82cfd09f220671e62142e2e21d1e477aad24779ad95066c585bb0d6aea26290600090a26001546040516001600160a01b03909116907f2321824f22e2deb606c364e8ce3e9cda9160a6e926ce8050ba555649172a5ee990600090a2506102ea565b600080546001600160a01b038381166001600160a01b0319831681178455604051919092169283917f8be0079c531659141344cd1fd0a4f28419497f9722a3daafe3b4186f6b6457e09190a35050565b6119b980610caf83390190565b610f7b8061266883390190565b6000602082840312156102e357600080fd5b5051919050565b6109b6806102f96000396000f3fe608060405234801561001057600080fd5b50600436106101425760003560e01c80638b1c6702116100b85780639c1a3d221161007c5780639c1a3d2214610257578063a80887d21461026c578063b85624001461027f578063d56ded6714610292578063f2fde38b146102a3578063fb97033e146102b657600080fd5b80638b1c6702146101d95780638da5cb5b1461021a5780639276267b1461022b57806397f605b01461023c5780639b0dd06e1461024f57600080fd5b8063527251d51161010a578063527251d5146101475780635e49c89e146101d1578063619b5405146101d957806370a08231146101ec578063715018a6146101ff5780637827b70b1461020757600080fd5b80631050b093146101475780631200295e1461015c5780631410982714610180578063321b89e2146101ab5780633c3c21f6146101be575b600080fd5b61015a6101553660046108bd565b6102c9565b005b336000908152600760205260409020545b6040519081526020015b60405180910390f35b600454610193906001600160a01b031681565b6040516001600160a01b039091168152602001610177565b61015a6101b93660046108df565b610334565b600354610193906001600160a01b031681565b61016d6103b8565b61015a6101e73660046108bd565b61042b565b61015a6101fa3660046108bd565b61046f565b61015a61049b565b61016d6102153660046108bd565b6104af565b6000546001600160a01b0316610193565b6003546001600160a01b0316610193565b61016d61024a3660046108bd565b6105e6565b61016d6106cd565b3360009081526008602052604090205461016d565b600554610193906001600160a01b031681565b600654610193906001600160a01b031681565b6004546001600160a01b0316610193565b61015a6102b13660046108bd565b6106fe565b61016d6102c43660046108df565b61073c565b6102d1610829565b6005546040516340d097c360e01b81526001600160a01b038381166004830152909116906340d097c3906024015b600060405180830381600087803b15801561031957600080fd5b505af115801561032d573d6000803e3d6000fd5b5050505050565b61033c610829565b60065460405163a9059cbb60e01b81526001600160a01b038481166004830152602482018490529091169063a9059cbb906044016020604051808303816000875af115801561038f573d6000803e3d6000fd5b505050506040513d601f19601f820116820180604052508101906103b39190610909565b505050565b6006546040516370a0823160e01b81523360048201526000916001600160a01b0316906370a08231906024015b602060405180830381865afa158015610402573d6000803e3d6000fd5b505050506040513d601f19601f82011682018060405250810190610426919061092b565b905090565b610433610829565b6006546002546040516340c10f1960e01b81526001600160a01b03848116600483015260248201929092529116906340c10f19906044016102ff565b6040516370a0823160e01b81526001600160a01b038216600482015230906370a08231906024016102ff565b6104a3610829565b6104ad6000610856565b565b60006104b9610829565b3360009081526007602052604090205461052a5760405162461bcd60e51b815260206004820152602760248201527f436974697a656e20646f6573206e6f74206861766520616e7920706c616e746560448201526632103a3932b29760c91b60648201526084015b60405180910390fd5b33600090815260076020526040812080546001929061054a90849061095a565b9091555050600254336000908152600860205260408120805490919061057190849061095a565b9091555050336000908152600860209081526040808320546007909252808320549051919290916001600160a01b038616917f49db4c0ded7973c9aebf55c9fdadb30289da2145a4ad8895f3cc6d863a3ec7c191a4506001600160a01b0381166000908152600760205260409020545b919050565b60006105f0610829565b6001600160a01b038216600090815260076020526040812080546001929061061990849061096d565b90915550506002546001600160a01b0383166000908152600860205260408120805490919061064990849061096d565b909155506106589050826102c9565b6106618261042b565b336000908152600860209081526040808320546007909252808320549051919290916001600160a01b038616917f15496e80c4ac81f9165d19c2043ed741817b9de5085c6a7bc9bf97ca7e30c86a91a4506001600160a01b031660009081526007602052604090205490565b6005546040516370a0823160e01b81523360048201526000916001600160a01b0316906370a08231906024016103e5565b610706610829565b6001600160a01b03811661073057604051631e4fbdf760e01b815260006004820152602401610521565b61073981610856565b50565b336000908152600860205260408120548211156107b55760405162461bcd60e51b815260206004820152603160248201527f436974697a656e20646f6573206e6f74206861766520656e6f756768206372656044820152703234ba39903a37903a3930b739b332b91760791b6064820152608401610521565b33600090815260086020526040812080548492906107d490849061095a565b90915550506001600160a01b0383166000908152600860205260408120805484929061080190849061096d565b9091555061081190508383610334565b50336000908152600860205260409020545b92915050565b6000546001600160a01b031633146104ad5760405163118cdaa760e01b8152336004820152602401610521565b600080546001600160a01b038381166001600160a01b0319831681178455604051919092169283917f8be0079c531659141344cd1fd0a4f28419497f9722a3daafe3b4186f6b6457e09190a35050565b80356001600160a01b03811681146105e157600080fd5b6000602082840312156108cf57600080fd5b6108d8826108a6565b9392505050565b600080604083850312156108f257600080fd5b6108fb836108a6565b946020939093013593505050565b60006020828403121561091b57600080fd5b815180151581146108d857600080fd5b60006020828403121561093d57600080fd5b5051919050565b634e487b7160e01b600052601160045260246000fd5b8181038181111561082357610823610944565b808201808211156108235761082361094456fea264697066735822122078218b77f5f5f554fa89c7b427b7a704379c422f8fbadb9e1e8fb9448471d1df64736f6c6343000814003360806040523480156200001157600080fd5b50604051620019b9380380620019b9833981016040819052620000349162000150565b806040518060400160405280601881526020017f436172696f636120477265656e205472656520546f6b656e00000000000000008152506040518060400160405280600381526020016210d1d560ea1b815250816000908162000098919062000227565b506001620000a7828262000227565b5050600a805460ff19169055506001600160a01b038116620000e357604051631e4fbdf760e01b81526000600482015260240160405180910390fd5b620000ee81620000f6565b5050620002f3565b600a80546001600160a01b03838116610100818102610100600160a81b031985161790945560405193909204169182907f8be0079c531659141344cd1fd0a4f28419497f9722a3daafe3b4186f6b6457e090600090a35050565b6000602082840312156200016357600080fd5b81516001600160a01b03811681146200017b57600080fd5b9392505050565b634e487b7160e01b600052604160045260246000fd5b600181811c90821680620001ad57607f821691505b602082108103620001ce57634e487b7160e01b600052602260045260246000fd5b50919050565b601f8211156200022257600081815260208120601f850160051c81016020861015620001fd5750805b601f850160051c820191505b818110156200021e5782815560010162000209565b5050505b505050565b81516001600160401b0381111562000243576200024362000182565b6200025b8162000254845462000198565b84620001d4565b602080601f8311600181146200029357600084156200027a5750858301515b600019600386901b1c1916600185901b1785556200021e565b600085815260208120601f198616915b82811015620002c457888601518255948401946001909101908401620002a3565b5085821015620002e35787850151600019600388901b60f8161c191681555b5050505050600190811b01905550565b6116b680620003036000396000f3fe608060405234801561001057600080fd5b50600436106101735760003560e01c80634f6ccce7116100de5780638da5cb5b11610097578063b88d4fde11610071578063b88d4fde146102fb578063c87b56dd1461030e578063e985e9c514610321578063f2fde38b1461033457600080fd5b80638da5cb5b146102ca57806395d89b41146102e0578063a22cb465146102e857600080fd5b80634f6ccce7146102765780635c975abb146102895780636352211e1461029457806370a08231146102a7578063715018a6146102ba5780638456cb59146102c257600080fd5b806323b872dd1161013057806323b872dd1461020f5780632f745c59146102225780633f4ba83a1461023557806340d097c31461023d57806342842e0e1461025057806342966c681461026357600080fd5b806301ffc9a71461017857806306fdde03146101a0578063081812fc146101b5578063095ea7b3146101e057806312065fe0146101f557806318160ddd146101fd575b600080fd5b61018b6101863660046112b8565b610347565b60405190151581526020015b60405180910390f35b6101a8610358565b6040516101979190611325565b6101c86101c3366004611338565b6103ea565b6040516001600160a01b039091168152602001610197565b6101f36101ee36600461136d565b610413565b005b6101f3610422565b6008545b604051908152602001610197565b6101f361021d366004611397565b610434565b61020161023036600461136d565b6104c4565b6101f3610529565b6101f361024b3660046113d3565b610539565b6101f361025e366004611397565b610562565b6101f3610271366004611338565b610582565b610201610284366004611338565b61058e565b600a5460ff1661018b565b6101c86102a2366004611338565b6105e7565b6102016102b53660046113d3565b6105f2565b6101f361063a565b6101f361064c565b600a5461010090046001600160a01b03166101c8565b6101a861065c565b6101f36102f63660046113ee565b61066b565b6101f3610309366004611440565b610676565b6101a861031c366004611338565b61068d565b61018b61032f36600461151c565b610702565b6101f36103423660046113d3565b610730565b60006103528261076e565b92915050565b6060600080546103679061154f565b80601f01602080910402602001604051908101604052809291908181526020018280546103939061154f565b80156103e05780601f106103b5576101008083540402835291602001916103e0565b820191906000526020600020905b8154815290600101906020018083116103c357829003601f168201915b5050505050905090565b60006103f582610793565b506000828152600460205260409020546001600160a01b0316610352565b61041e8282336107cc565b5050565b61042a6107d9565b610432610422565b565b6001600160a01b03821661046357604051633250574960e11b8152600060048201526024015b60405180910390fd5b600061047083833361080c565b9050836001600160a01b0316816001600160a01b0316146104be576040516364283d7b60e01b81526001600160a01b038086166004830152602482018490528216604482015260640161045a565b50505050565b60006104cf836105f2565b82106105005760405163295f44f760e21b81526001600160a01b03841660048201526024810183905260440161045a565b506001600160a01b03919091166000908152600660209081526040808320938352929052205490565b6105316107d9565b610432610821565b6105416107d9565b600b8054600091826105528361159f565b91905055905061041e8282610873565b61057d83838360405180602001604052806000815250610676565b505050565b61041e6000823361080c565b600061059960085490565b82106105c25760405163295f44f760e21b8152600060048201526024810183905260440161045a565b600882815481106105d5576105d56115b8565b90600052602060002001549050919050565b600061035282610793565b60006001600160a01b03821661061e576040516322718ad960e21b81526000600482015260240161045a565b506001600160a01b031660009081526003602052604090205490565b6106426107d9565b610432600061088d565b6106546107d9565b6104326108e7565b6060600180546103679061154f565b61041e338383610924565b610681848484610434565b6104be848484846109c3565b606061069882610793565b5060006106b060408051602081019091526000815290565b905060008151116106d057604051806020016040528060008152506106fb565b806106da84610aec565b6040516020016106eb9291906115ce565b6040516020818303038152906040525b9392505050565b6001600160a01b03918216600090815260056020908152604080832093909416825291909152205460ff1690565b6107386107d9565b6001600160a01b03811661076257604051631e4fbdf760e01b81526000600482015260240161045a565b61076b8161088d565b50565b60006001600160e01b0319821663780e9d6360e01b1480610352575061035282610b7f565b6000818152600260205260408120546001600160a01b03168061035257604051637e27328960e01b81526004810184905260240161045a565b61057d8383836001610bcf565b600a546001600160a01b036101009091041633146104325760405163118cdaa760e01b815233600482015260240161045a565b6000610819848484610cd5565b949350505050565b610829610cea565b600a805460ff191690557f5db9ee0a495bf2e6ff9c91a7834c1ba4fdd244a5e8aa4e537bd38aeae4b073aa335b6040516001600160a01b03909116815260200160405180910390a1565b61041e828260405180602001604052806000815250610d0d565b600a80546001600160a01b03838116610100818102610100600160a81b031985161790945560405193909204169182907f8be0079c531659141344cd1fd0a4f28419497f9722a3daafe3b4186f6b6457e090600090a35050565b6108ef610d24565b600a805460ff191660011790557f62e78cea01bee320cd4e420270b5ea74000d11b0c9f74754ebdbfc544b05a2586108563390565b6001600160a01b03821661095657604051630b61174360e31b81526001600160a01b038316600482015260240161045a565b6001600160a01b03838116600081815260056020908152604080832094871680845294825291829020805460ff191686151590811790915591519182527f17307eab39ab6107e8899845ad3d59bd9653f200f220920489ca2b5937696c31910160405180910390a3505050565b6001600160a01b0383163b156104be57604051630a85bd0160e11b81526001600160a01b0384169063150b7a0290610a059033908890879087906004016115fd565b6020604051808303816000875af1925050508015610a40575060408051601f3d908101601f19168201909252610a3d9181019061163a565b60015b610aa9573d808015610a6e576040519150601f19603f3d011682016040523d82523d6000602084013e610a73565b606091505b508051600003610aa157604051633250574960e11b81526001600160a01b038516600482015260240161045a565b805181602001fd5b6001600160e01b03198116630a85bd0160e11b14610ae557604051633250574960e11b81526001600160a01b038516600482015260240161045a565b5050505050565b60606000610af983610d48565b600101905060008167ffffffffffffffff811115610b1957610b1961142a565b6040519080825280601f01601f191660200182016040528015610b43576020820181803683370190505b5090508181016020015b600019016f181899199a1a9b1b9c1cb0b131b232b360811b600a86061a8153600a8504945084610b4d57509392505050565b60006001600160e01b031982166380ac58cd60e01b1480610bb057506001600160e01b03198216635b5e139f60e01b145b8061035257506301ffc9a760e01b6001600160e01b0319831614610352565b8080610be357506001600160a01b03821615155b15610ca5576000610bf384610793565b90506001600160a01b03831615801590610c1f5750826001600160a01b0316816001600160a01b031614155b8015610c325750610c308184610702565b155b15610c5b5760405163a9fbf51f60e01b81526001600160a01b038416600482015260240161045a565b8115610ca35783856001600160a01b0316826001600160a01b03167f8c5be1e5ebec7d5bd14f71427d1e84f3dd0314c0f7b2291e5b200ac8c7c3b92560405160405180910390a45b505b5050600090815260046020526040902080546001600160a01b0319166001600160a01b0392909216919091179055565b6000610cdf610d24565b610819848484610e20565b600a5460ff1661043257604051638dfc202b60e01b815260040160405180910390fd5b610d178383610eed565b61057d60008484846109c3565b600a5460ff16156104325760405163d93c066560e01b815260040160405180910390fd5b60008072184f03e93ff9f4daa797ed6e38ed64bf6a1f0160401b8310610d875772184f03e93ff9f4daa797ed6e38ed64bf6a1f0160401b830492506040015b6d04ee2d6d415b85acef81000000008310610db3576d04ee2d6d415b85acef8100000000830492506020015b662386f26fc100008310610dd157662386f26fc10000830492506010015b6305f5e1008310610de9576305f5e100830492506008015b6127108310610dfd57612710830492506004015b60648310610e0f576064830492506002015b600a83106103525760010192915050565b600080610e2e858585610f52565b90506001600160a01b038116610e8b57610e8684600880546000838152600960205260408120829055600182018355919091527ff3f7a9fe364faab93b216da50a3214154f22a0a2b415b23a84c8169e8b636ee30155565b610eae565b846001600160a01b0316816001600160a01b031614610eae57610eae818561104b565b6001600160a01b038516610eca57610ec5846110dc565b610819565b846001600160a01b0316816001600160a01b03161461081957610819858561118b565b6001600160a01b038216610f1757604051633250574960e11b81526000600482015260240161045a565b6000610f258383600061080c565b90506001600160a01b0381161561057d576040516339e3563760e11b81526000600482015260240161045a565b6000828152600260205260408120546001600160a01b0390811690831615610f7f57610f7f8184866111db565b6001600160a01b03811615610fbd57610f9c600085600080610bcf565b6001600160a01b038116600090815260036020526040902080546000190190555b6001600160a01b03851615610fec576001600160a01b0385166000908152600360205260409020805460010190555b60008481526002602052604080822080546001600160a01b0319166001600160a01b0389811691821790925591518793918516917fddf252ad1be2c89b69c2b068fc378daa952ba7f163c4a11628f55a4df523b3ef91a4949350505050565b6000611056836105f2565b6000838152600760205260409020549091508082146110a9576001600160a01b03841660009081526006602090815260408083208584528252808320548484528184208190558352600790915290208190555b5060009182526007602090815260408084208490556001600160a01b039094168352600681528383209183525290812055565b6008546000906110ee90600190611657565b60008381526009602052604081205460088054939450909284908110611116576111166115b8565b906000526020600020015490508060088381548110611137576111376115b8565b600091825260208083209091019290925582815260099091526040808220849055858252812055600880548061116f5761116f61166a565b6001900381819060005260206000200160009055905550505050565b60006001611198846105f2565b6111a29190611657565b6001600160a01b039093166000908152600660209081526040808320868452825280832085905593825260079052919091209190915550565b6111e683838361123f565b61057d576001600160a01b03831661121457604051637e27328960e01b81526004810182905260240161045a565b60405163177e802f60e01b81526001600160a01b03831660048201526024810182905260440161045a565b60006001600160a01b038316158015906108195750826001600160a01b0316846001600160a01b0316148061127957506112798484610702565b806108195750506000908152600460205260409020546001600160a01b03908116911614919050565b6001600160e01b03198116811461076b57600080fd5b6000602082840312156112ca57600080fd5b81356106fb816112a2565b60005b838110156112f05781810151838201526020016112d8565b50506000910152565b600081518084526113118160208601602086016112d5565b601f01601f19169290920160200192915050565b6020815260006106fb60208301846112f9565b60006020828403121561134a57600080fd5b5035919050565b80356001600160a01b038116811461136857600080fd5b919050565b6000806040838503121561138057600080fd5b61138983611351565b946020939093013593505050565b6000806000606084860312156113ac57600080fd5b6113b584611351565b92506113c360208501611351565b9150604084013590509250925092565b6000602082840312156113e557600080fd5b6106fb82611351565b6000806040838503121561140157600080fd5b61140a83611351565b91506020830135801515811461141f57600080fd5b809150509250929050565b634e487b7160e01b600052604160045260246000fd5b6000806000806080858703121561145657600080fd5b61145f85611351565b935061146d60208601611351565b925060408501359150606085013567ffffffffffffffff8082111561149157600080fd5b818701915087601f8301126114a557600080fd5b8135818111156114b7576114b761142a565b604051601f8201601f19908116603f011681019083821181831017156114df576114df61142a565b816040528281528a60208487010111156114f857600080fd5b82602086016020830137600060208483010152809550505050505092959194509250565b6000806040838503121561152f57600080fd5b61153883611351565b915061154660208401611351565b90509250929050565b600181811c9082168061156357607f821691505b60208210810361158357634e487b7160e01b600052602260045260246000fd5b50919050565b634e487b7160e01b600052601160045260246000fd5b6000600182016115b1576115b1611589565b5060010190565b634e487b7160e01b600052603260045260246000fd5b600083516115e08184602088016112d5565b8351908301906115f48183602088016112d5565b01949350505050565b6001600160a01b0385811682528416602082015260408101839052608060608201819052600090611630908301846112f9565b9695505050505050565b60006020828403121561164c57600080fd5b81516106fb816112a2565b8181038181111561035257610352611589565b634e487b7160e01b600052603160045260246000fdfea264697066735822122076f190957409aa56122cfbb983d74443c1a85eb03cbf10938775aaf99d89a0bb64736f6c6343000814003360806040523480156200001157600080fd5b5060405162000f7b38038062000f7b833981016040819052620000349162000312565b806040518060400160405280600e81526020016d2934b79024a82a2a902a37b5b2b760911b81525060405180604001604052806005815260200164524950545560d81b81525081600390816200008b9190620003e8565b5060046200009a8282620003e8565b50506005805460ff19169055506001600160a01b038116620000d757604051631e4fbdf760e01b8152600060048201526024015b60405180910390fd5b620000e281620000f7565b50620000f08160c862000151565b50620004dc565b600580546001600160a01b03838116610100818102610100600160a81b031985161790945560405193909204169182907f8be0079c531659141344cd1fd0a4f28419497f9722a3daafe3b4186f6b6457e090600090a35050565b6001600160a01b0382166200017d5760405163ec442f0560e01b815260006004820152602401620000ce565b6200018b600083836200018f565b5050565b6200019c838383620001a1565b505050565b620001ab620001b8565b6200019c838383620001df565b60055460ff1615620001dd5760405163d93c066560e01b815260040160405180910390fd5b565b6001600160a01b0383166200020e578060026000828254620002029190620004b4565b90915550620002829050565b6001600160a01b03831660009081526020819052604090205481811015620002635760405163391434e360e21b81526001600160a01b03851660048201526024810182905260448101839052606401620000ce565b6001600160a01b03841660009081526020819052604090209082900390555b6001600160a01b038216620002a057600280548290039055620002bf565b6001600160a01b03821660009081526020819052604090208054820190555b816001600160a01b0316836001600160a01b03167fddf252ad1be2c89b69c2b068fc378daa952ba7f163c4a11628f55a4df523b3ef836040516200030591815260200190565b60405180910390a3505050565b6000602082840312156200032557600080fd5b81516001600160a01b03811681146200033d57600080fd5b9392505050565b634e487b7160e01b600052604160045260246000fd5b600181811c908216806200036f57607f821691505b6020821081036200039057634e487b7160e01b600052602260045260246000fd5b50919050565b601f8211156200019c57600081815260208120601f850160051c81016020861015620003bf5750805b601f850160051c820191505b81811015620003e057828155600101620003cb565b505050505050565b81516001600160401b0381111562000404576200040462000344565b6200041c816200041584546200035a565b8462000396565b602080601f8311600181146200045457600084156200043b5750858301515b600019600386901b1c1916600185901b178555620003e0565b600085815260208120601f198616915b82811015620004855788860151825594840194600190910190840162000464565b5085821015620004a45787850151600019600388901b60f8161c191681555b5050505050600190811b01905550565b80820180821115620004d657634e487b7160e01b600052601160045260246000fd5b92915050565b610a8f80620004ec6000396000f3fe608060405234801561001057600080fd5b50600436106101165760003560e01c806370a08231116100a257806395d89b411161007157806395d89b4114610222578063a9059cbb1461022a578063beabacc81461023d578063dd62ed3e14610250578063f2fde38b1461028957600080fd5b806370a08231146101c0578063715018a6146101e95780638456cb59146101f15780638da5cb5b146101f957600080fd5b806323b872dd116100e957806323b872dd14610178578063313ce5671461018b5780633f4ba83a1461019a57806340c10f19146101a25780635c975abb146101b557600080fd5b806306fdde031461011b578063095ea7b31461013957806312065fe01461015c57806318160ddd14610166575b600080fd5b61012361029c565b60405161013091906108d9565b60405180910390f35b61014c610147366004610943565b61032e565b6040519015158152602001610130565b610164610348565b005b6002545b604051908152602001610130565b61014c61018636600461096d565b61035a565b60405160008152602001610130565b61016461037e565b6101646101b0366004610943565b61038e565b60055460ff1661014c565b61016a6101ce3660046109a9565b6001600160a01b031660009081526020819052604090205490565b6101646103a4565b6101646103b6565b60055461010090046001600160a01b03166040516001600160a01b039091168152602001610130565b6101236103c6565b61014c610238366004610943565b6103d5565b61016461024b36600461096d565b6103e3565b61016a61025e3660046109cb565b6001600160a01b03918216600090815260016020908152604080832093909416825291909152205490565b6101646102973660046109a9565b6103fc565b6060600380546102ab906109fe565b80601f01602080910402602001604051908101604052809291908181526020018280546102d7906109fe565b80156103245780601f106102f957610100808354040283529160200191610324565b820191906000526020600020905b81548152906001019060200180831161030757829003601f168201915b5050505050905090565b60003361033c81858561043f565b60019150505b92915050565b610350610451565b610358610348565b565b600033610368858285610484565b6103738585856104fc565b506001949350505050565b610386610451565b61035861055b565b610396610451565b6103a082826105ad565b5050565b6103ac610451565b61035860006105e3565b6103be610451565b61035861063d565b6060600480546102ab906109fe565b60003361033c8185856104fc565b6103eb610451565b6103f683838361035a565b50505050565b610404610451565b6001600160a01b03811661043357604051631e4fbdf760e01b8152600060048201526024015b60405180910390fd5b61043c816105e3565b50565b61044c838383600161067a565b505050565b6005546001600160a01b036101009091041633146103585760405163118cdaa760e01b815233600482015260240161042a565b6001600160a01b0383811660009081526001602090815260408083209386168352929052205460001981146103f657818110156104ed57604051637dc7a0d960e11b81526001600160a01b0384166004820152602481018290526044810183905260640161042a565b6103f68484848403600061067a565b6001600160a01b03831661052657604051634b637e8f60e11b81526000600482015260240161042a565b6001600160a01b0382166105505760405163ec442f0560e01b81526000600482015260240161042a565b61044c83838361074f565b61056361075a565b6005805460ff191690557f5db9ee0a495bf2e6ff9c91a7834c1ba4fdd244a5e8aa4e537bd38aeae4b073aa335b6040516001600160a01b03909116815260200160405180910390a1565b6001600160a01b0382166105d75760405163ec442f0560e01b81526000600482015260240161042a565b6103a06000838361074f565b600580546001600160a01b03838116610100818102610100600160a81b031985161790945560405193909204169182907f8be0079c531659141344cd1fd0a4f28419497f9722a3daafe3b4186f6b6457e090600090a35050565b61064561077d565b6005805460ff191660011790557f62e78cea01bee320cd4e420270b5ea74000d11b0c9f74754ebdbfc544b05a2586105903390565b6001600160a01b0384166106a45760405163e602df0560e01b81526000600482015260240161042a565b6001600160a01b0383166106ce57604051634a1406b160e11b81526000600482015260240161042a565b6001600160a01b03808516600090815260016020908152604080832093871683529290522082905580156103f657826001600160a01b0316846001600160a01b03167f8c5be1e5ebec7d5bd14f71427d1e84f3dd0314c0f7b2291e5b200ac8c7c3b9258460405161074191815260200190565b60405180910390a350505050565b61044c8383836107a1565b60055460ff1661035857604051638dfc202b60e01b815260040160405180910390fd5b60055460ff16156103585760405163d93c066560e01b815260040160405180910390fd5b6107a961077d565b61044c8383836001600160a01b0383166107da5780600260008282546107cf9190610a38565b9091555061084c9050565b6001600160a01b0383166000908152602081905260409020548181101561082d5760405163391434e360e21b81526001600160a01b0385166004820152602481018290526044810183905260640161042a565b6001600160a01b03841660009081526020819052604090209082900390555b6001600160a01b03821661086857600280548290039055610887565b6001600160a01b03821660009081526020819052604090208054820190555b816001600160a01b0316836001600160a01b03167fddf252ad1be2c89b69c2b068fc378daa952ba7f163c4a11628f55a4df523b3ef836040516108cc91815260200190565b60405180910390a3505050565b600060208083528351808285015260005b81811015610906578581018301518582016040015282016108ea565b506000604082860101526040601f19601f8301168501019250505092915050565b80356001600160a01b038116811461093e57600080fd5b919050565b6000806040838503121561095657600080fd5b61095f83610927565b946020939093013593505050565b60008060006060848603121561098257600080fd5b61098b84610927565b925061099960208501610927565b9150604084013590509250925092565b6000602082840312156109bb57600080fd5b6109c482610927565b9392505050565b600080604083850312156109de57600080fd5b6109e783610927565b91506109f560208401610927565b90509250929050565b600181811c90821680610a1257607f821691505b602082108103610a3257634e487b7160e01b600052602260045260246000fd5b50919050565b8082018082111561034257634e487b7160e01b600052601160045260246000fdfea26469706673582212204e3a8724ef95b03672e3a7b003a0a1df9a0d18af77388fcd46587dcfa119267164736f6c63430008140033",
  "linkReferences": {},
  "deployedLinkReferences": {}
}