{
  "_format": "hh-sol-artifact-1",
  "contractName": "CariocaGreenTreeToken",
  "sourceName": "contracts/CariocaGreenTreeToken.sol",
  "abi": [
    {
      "inputs": [
        {
          "internalType": "address",
          "name": "initialOwner",
          "type": "address"
        }
      ],
      "stateMutability": "nonpayable",
      "type": "constructor"
    },
    {
      "inputs": [],
      "name": "ERC721EnumerableForbiddenBatchMint",
      "type": "error"
    },
    {
      "inputs": [
        {
          "internalType": "address",
          "name": "sender",
          "type": "address"
        },
        {
          "internalType": "uint256",
          "name": "tokenId",
          "type": "uint256"
        },
        {
          "internalType": "address",
          "name": "owner",
          "type": "address"
        }
      ],
      "name": "ERC721IncorrectOwner",
      "type": "error"
    },
    {
      "inputs": [
        {
          "internalType": "address",
          "name": "operator",
          "type": "address"
        },
        {
          "internalType": "uint256",
          "name": "tokenId",
          "type": "uint256"
        }
      ],
      "name": "ERC721InsufficientApproval",
      "type": "error"
    },
    {
      "inputs": [
        {
          "internalType": "address",
          "name": "approver",
          "type": "address"
        }
      ],
      "name": "ERC721InvalidApprover",
      "type": "error"
    },
    {
      "inputs": [
        {
          "internalType": "address",
          "name": "operator",
          "type": "address"
        }
      ],
      "name": "ERC721InvalidOperator",
      "type": "error"
    },
    {
      "inputs": [
        {
          "internalType": "address",
          "name": "owner",
          "type": "address"
        }
      ],
      "name": "ERC721InvalidOwner",
      "type": "error"
    },
    {
      "inputs": [
        {
          "internalType": "address",
          "name": "receiver",
          "type": "address"
        }
      ],
      "name": "ERC721InvalidReceiver",
      "type": "error"
    },
    {
      "inputs": [
        {
          "internalType": "address",
          "name": "sender",
          "type": "address"
        }
      ],
      "name": "ERC721InvalidSender",
      "type": "error"
    },
    {
      "inputs": [
        {
          "internalType": "uint256",
          "name": "tokenId",
          "type": "uint256"
        }
      ],
      "name": "ERC721NonexistentToken",
      "type": "error"
    },
    {
      "inputs": [
        {
          "internalType": "address",
          "name": "owner",
          "type": "address"
        },
        {
          "internalType": "uint256",
          "name": "index",
          "type": "uint256"
        }
      ],
      "name": "ERC721OutOfBoundsIndex",
      "type": "error"
    },
    {
      "inputs": [],
      "name": "EnforcedPause",
      "type": "error"
    },
    {
      "inputs": [],
      "name": "ExpectedPause",
      "type": "error"
    },
    {
      "anonymous": false,
      "inputs": [
        {
          "indexed": true,
          "internalType": "address",
          "name": "owner",
          "type": "address"
        },
        {
          "indexed": true,
          "internalType": "address",
          "name": "approved",
          "type": "address"
        },
        {
          "indexed": true,
          "internalType": "uint256",
          "name": "tokenId",
          "type": "uint256"
        }
      ],
      "name": "Approval",
      "type": "event"
    },
    {
      "anonymous": false,
      "inputs": [
        {
          "indexed": true,
          "internalType": "address",
          "name": "owner",
          "type": "address"
        },
        {
          "indexed": true,
          "internalType": "address",
          "name": "operator",
          "type": "address"
        },
        {
          "indexed": false,
          "internalType": "bool",
          "name": "approved",
          "type": "bool"
        }
      ],
      "name": "ApprovalForAll",
      "type": "event"
    },
    {
      "anonymous": false,
      "inputs": [
        {
          "indexed": false,
          "internalType": "address",
          "name": "account",
          "type": "address"
        }
      ],
      "name": "Paused",
      "type": "event"
    },
    {
      "anonymous": false,
      "inputs": [
        {
          "indexed": true,
          "internalType": "address",
          "name": "from",
          "type": "address"
        },
        {
          "indexed": true,
          "internalType": "address",
          "name": "to",
          "type": "address"
        },
        {
          "indexed": true,
          "internalType": "uint256",
          "name": "tokenId",
          "type": "uint256"
        }
      ],
      "name": "Transfer",
      "type": "event"
    },
    {
      "anonymous": false,
      "inputs": [
        {
          "indexed": false,
          "internalType": "address",
          "name": "account",
          "type": "address"
        }
      ],
      "name": "Unpaused",
      "type": "event"
    },
    {
      "inputs": [
        {
          "internalType": "address",
          "name": "to",
          "type": "address"
        },
        {
          "internalType": "uint256",
          "name": "tokenId",
          "type": "uint256"
        }
      ],
      "name": "approve",
      "outputs": [],
      "stateMutability": "nonpayable",
      "type": "function"
    },
    {
      "inputs": [
        {
          "internalType": "address",
          "name": "owner",
          "type": "address"
        }
      ],
      "name": "balanceOf",
      "outputs": [
        {
          "internalType": "uint256",
          "name": "",
          "type": "uint256"
        }
      ],
      "stateMutability": "view",
      "type": "function"
    },
    {
      "inputs": [
        {
          "internalType": "uint256",
          "name": "tokenId",
          "type": "uint256"
        }
      ],
      "name": "burn",
      "outputs": [],
      "stateMutability": "nonpayable",
      "type": "function"
    },
    {
      "inputs": [],
      "name": "contractOwner",
      "outputs": [
        {
          "internalType": "address",
          "name": "",
          "type": "address"
        }
      ],
      "stateMutability": "view",
      "type": "function"
    },
    {
      "inputs": [
        {
          "internalType": "uint256",
          "name": "tokenId",
          "type": "uint256"
        }
      ],
      "name": "getApproved",
      "outputs": [
        {
          "internalType": "address",
          "name": "",
          "type": "address"
        }
      ],
      "stateMutability": "view",
      "type": "function"
    },
    {
      "inputs": [
        {
          "internalType": "address",
          "name": "owner",
          "type": "address"
        },
        {
          "internalType": "address",
          "name": "operator",
          "type": "address"
        }
      ],
      "name": "isApprovedForAll",
      "outputs": [
        {
          "internalType": "bool",
          "name": "",
          "type": "bool"
        }
      ],
      "stateMutability": "view",
      "type": "function"
    },
    {
      "inputs": [],
      "name": "name",
      "outputs": [
        {
          "internalType": "string",
          "name": "",
          "type": "string"
        }
      ],
      "stateMutability": "view",
      "type": "function"
    },
    {
      "inputs": [
        {
          "internalType": "uint256",
          "name": "tokenId",
          "type": "uint256"
        }
      ],
      "name": "ownerOf",
      "outputs": [
        {
          "internalType": "address",
          "name": "",
          "type": "address"
        }
      ],
      "stateMutability": "view",
      "type": "function"
    },
    {
      "inputs": [],
      "name": "pause",
      "outputs": [],
      "stateMutability": "nonpayable",
      "type": "function"
    },
    {
      "inputs": [],
      "name": "paused",
      "outputs": [
        {
          "internalType": "bool",
          "name": "",
          "type": "bool"
        }
      ],
      "stateMutability": "view",
      "type": "function"
    },
    {
      "inputs": [
        {
          "internalType": "address",
          "name": "to",
          "type": "address"
        }
      ],
      "name": "safeMint",
      "outputs": [],
      "stateMutability": "nonpayable",
      "type": "function"
    },
    {
      "inputs": [
        {
          "internalType": "address",
          "name": "from",
          "type": "address"
        },
        {
          "internalType": "address",
          "name": "to",
          "type": "address"
        },
        {
          "internalType": "uint256",
          "name": "tokenId",
          "type": "uint256"
        }
      ],
      "name": "safeTransferFrom",
      "outputs": [],
      "stateMutability": "nonpayable",
      "type": "function"
    },
    {
      "inputs": [
        {
          "internalType": "address",
          "name": "from",
          "type": "address"
        },
        {
          "internalType": "address",
          "name": "to",
          "type": "address"
        },
        {
          "internalType": "uint256",
          "name": "tokenId",
          "type": "uint256"
        },
        {
          "internalType": "bytes",
          "name": "data",
          "type": "bytes"
        }
      ],
      "name": "safeTransferFrom",
      "outputs": [],
      "stateMutability": "nonpayable",
      "type": "function"
    },
    {
      "inputs": [
        {
          "internalType": "address",
          "name": "operator",
          "type": "address"
        },
        {
          "internalType": "bool",
          "name": "approved",
          "type": "bool"
        }
      ],
      "name": "setApprovalForAll",
      "outputs": [],
      "stateMutability": "nonpayable",
      "type": "function"
    },
    {
      "inputs": [
        {
          "internalType": "bytes4",
          "name": "interfaceId",
          "type": "bytes4"
        }
      ],
      "name": "supportsInterface",
      "outputs": [
        {
          "internalType": "bool",
          "name": "",
          "type": "bool"
        }
      ],
      "stateMutability": "view",
      "type": "function"
    },
    {
      "inputs": [],
      "name": "symbol",
      "outputs": [
        {
          "internalType": "string",
          "name": "",
          "type": "string"
        }
      ],
      "stateMutability": "view",
      "type": "function"
    },
    {
      "inputs": [
        {
          "internalType": "uint256",
          "name": "index",
          "type": "uint256"
        }
      ],
      "name": "tokenByIndex",
      "outputs": [
        {
          "internalType": "uint256",
          "name": "",
          "type": "uint256"
        }
      ],
      "stateMutability": "view",
      "type": "function"
    },
    {
      "inputs": [
        {
          "internalType": "address",
          "name": "owner",
          "type": "address"
        },
        {
          "internalType": "uint256",
          "name": "index",
          "type": "uint256"
        }
      ],
      "name": "tokenOfOwnerByIndex",
      "outputs": [
        {
          "internalType": "uint256",
          "name": "",
          "type": "uint256"
        }
      ],
      "stateMutability": "view",
      "type": "function"
    },
    {
      "inputs": [
        {
          "internalType": "uint256",
          "name": "tokenId",
          "type": "uint256"
        }
      ],
      "name": "tokenURI",
      "outputs": [
        {
          "internalType": "string",
          "name": "",
          "type": "string"
        }
      ],
      "stateMutability": "view",
      "type": "function"
    },
    {
      "inputs": [],
      "name": "totalSupply",
      "outputs": [
        {
          "internalType": "uint256",
          "name": "",
          "type": "uint256"
        }
      ],
      "stateMutability": "view",
      "type": "function"
    },
    {
      "inputs": [
        {
          "internalType": "address",
          "name": "from",
          "type": "address"
        },
        {
          "internalType": "address",
          "name": "to",
          "type": "address"
        },
        {
          "internalType": "uint256",
          "name": "tokenId",
          "type": "uint256"
        }
      ],
      "name": "transferFrom",
      "outputs": [],
      "stateMutability": "nonpayable",
      "type": "function"
    },
    {
      "inputs": [],
      "name": "unpause",
      "outputs": [],
      "stateMutability": "nonpayable",
      "type": "function"
    }
  ],
  "bytecode": "0x60806040523480156200001157600080fd5b506040516200180f3803806200180f8339810160408190526200003491620000d5565b6040518060400160405280601881526020017f436172696f636120477265656e205472656520546f6b656e00000000000000008152506040518060400160405280600381526020016210d1d560ea1b8152508160009081620000979190620001ac565b506001620000a68282620001ac565b5050600a80546001600160a01b03909316610100026001600160a81b0319909316929092179091555062000278565b600060208284031215620000e857600080fd5b81516001600160a01b03811681146200010057600080fd5b9392505050565b634e487b7160e01b600052604160045260246000fd5b600181811c908216806200013257607f821691505b6020821081036200015357634e487b7160e01b600052602260045260246000fd5b50919050565b601f821115620001a757600081815260208120601f850160051c81016020861015620001825750805b601f850160051c820191505b81811015620001a3578281556001016200018e565b5050505b505050565b81516001600160401b03811115620001c857620001c862000107565b620001e081620001d984546200011d565b8462000159565b602080601f831160018114620002185760008415620001ff5750858301515b600019600386901b1c1916600185901b178555620001a3565b600085815260208120601f198616915b82811015620002495788860151825594840194600190910190840162000228565b5085821015620002685787850151600019600388901b60f8161c191681555b5050505050600190811b01905550565b61158780620002886000396000f3fe608060405234801561001057600080fd5b50600436106101425760003560e01c80634f6ccce7116100b857806395d89b411161007c57806395d89b4114610289578063a22cb46514610291578063b88d4fde146102a4578063c87b56dd146102b7578063ce606ee0146102ca578063e985e9c5146102e257600080fd5b80634f6ccce71461023d5780635c975abb146102505780636352211e1461025b57806370a082311461026e5780638456cb591461028157600080fd5b806323b872dd1161010a57806323b872dd146101d65780632f745c59146101e95780633f4ba83a146101fc57806340d097c31461020457806342842e0e1461021757806342966c681461022a57600080fd5b806301ffc9a71461014757806306fdde031461016f578063081812fc14610184578063095ea7b3146101af57806318160ddd146101c4575b600080fd5b61015a610155366004611189565b6102f5565b60405190151581526020015b60405180910390f35b610177610306565b60405161016691906111f6565b610197610192366004611209565b610398565b6040516001600160a01b039091168152602001610166565b6101c26101bd36600461123e565b6103c1565b005b6008545b604051908152602001610166565b6101c26101e4366004611268565b6103d0565b6101c86101f736600461123e565b610460565b6101c26104c5565b6101c26102123660046112a4565b6104cf565b6101c2610225366004611268565b6104f0565b6101c2610238366004611209565b610510565b6101c861024b366004611209565b61051c565b600a5460ff1661015a565b610197610269366004611209565b610575565b6101c861027c3660046112a4565b610580565b6101c26105c8565b6101776105d0565b6101c261029f3660046112bf565b6105df565b6101c26102b2366004611311565b6105ea565b6101776102c5366004611209565b610601565b600a546101979061010090046001600160a01b031681565b61015a6102f03660046113ed565b61069b565b6000610300826106c9565b92915050565b60606000805461031590611420565b80601f016020809104026020016040519081016040528092919081815260200182805461034190611420565b801561038e5780601f106103635761010080835404028352916020019161038e565b820191906000526020600020905b81548152906001019060200180831161037157829003601f168201915b5050505050905090565b60006103a3826106ee565b506000828152600460205260409020546001600160a01b0316610300565b6103cc828233610727565b5050565b6001600160a01b0382166103ff57604051633250574960e11b8152600060048201526024015b60405180910390fd5b600061040c838333610734565b9050836001600160a01b0316816001600160a01b03161461045a576040516364283d7b60e01b81526001600160a01b03808616600483015260248201849052821660448201526064016103f6565b50505050565b600061046b83610580565b821061049c5760405163295f44f760e21b81526001600160a01b0384166004820152602481018390526044016103f6565b506001600160a01b03919091166000908152600660209081526040808320938352929052205490565b6104cd610749565b565b600b8054600091826104e083611470565b9190505590506103cc828261079b565b61050b838383604051806020016040528060008152506105ea565b505050565b6103cc60008233610734565b600061052760085490565b82106105505760405163295f44f760e21b815260006004820152602481018390526044016103f6565b6008828154811061056357610563611489565b90600052602060002001549050919050565b6000610300826106ee565b60006001600160a01b0382166105ac576040516322718ad960e21b8152600060048201526024016103f6565b506001600160a01b031660009081526003602052604090205490565b6104cd6107b5565b60606001805461031590611420565b6103cc3383836107f2565b6105f58484846103d0565b61045a84848484610891565b606061060c826106ee565b50600061064960408051808201909152601b81527f68747470733a2f2f72696f64656a616e6569726f2e676f762e62720000000000602082015290565b905060008151116106695760405180602001604052806000815250610694565b80610673846109ba565b60405160200161068492919061149f565b6040516020818303038152906040525b9392505050565b6001600160a01b03918216600090815260056020908152604080832093909416825291909152205460ff1690565b60006001600160e01b0319821663780e9d6360e01b1480610300575061030082610a4d565b6000818152600260205260408120546001600160a01b03168061030057604051637e27328960e01b8152600481018490526024016103f6565b61050b8383836001610a9d565b6000610741848484610ba3565b949350505050565b610751610bb8565b600a805460ff191690557f5db9ee0a495bf2e6ff9c91a7834c1ba4fdd244a5e8aa4e537bd38aeae4b073aa335b6040516001600160a01b03909116815260200160405180910390a1565b6103cc828260405180602001604052806000815250610bdb565b6107bd610bf2565b600a805460ff191660011790557f62e78cea01bee320cd4e420270b5ea74000d11b0c9f74754ebdbfc544b05a25861077e3390565b6001600160a01b03821661082457604051630b61174360e31b81526001600160a01b03831660048201526024016103f6565b6001600160a01b03838116600081815260056020908152604080832094871680845294825291829020805460ff191686151590811790915591519182527f17307eab39ab6107e8899845ad3d59bd9653f200f220920489ca2b5937696c31910160405180910390a3505050565b6001600160a01b0383163b1561045a57604051630a85bd0160e11b81526001600160a01b0384169063150b7a02906108d39033908890879087906004016114ce565b6020604051808303816000875af192505050801561090e575060408051601f3d908101601f1916820190925261090b9181019061150b565b60015b610977573d80801561093c576040519150601f19603f3d011682016040523d82523d6000602084013e610941565b606091505b50805160000361096f57604051633250574960e11b81526001600160a01b03851660048201526024016103f6565b805181602001fd5b6001600160e01b03198116630a85bd0160e11b146109b357604051633250574960e11b81526001600160a01b03851660048201526024016103f6565b5050505050565b606060006109c783610c16565b600101905060008167ffffffffffffffff8111156109e7576109e76112fb565b6040519080825280601f01601f191660200182016040528015610a11576020820181803683370190505b5090508181016020015b600019016f181899199a1a9b1b9c1cb0b131b232b360811b600a86061a8153600a8504945084610a1b57509392505050565b60006001600160e01b031982166380ac58cd60e01b1480610a7e57506001600160e01b03198216635b5e139f60e01b145b8061030057506301ffc9a760e01b6001600160e01b0319831614610300565b8080610ab157506001600160a01b03821615155b15610b73576000610ac1846106ee565b90506001600160a01b03831615801590610aed5750826001600160a01b0316816001600160a01b031614155b8015610b005750610afe818461069b565b155b15610b295760405163a9fbf51f60e01b81526001600160a01b03841660048201526024016103f6565b8115610b715783856001600160a01b0316826001600160a01b03167f8c5be1e5ebec7d5bd14f71427d1e84f3dd0314c0f7b2291e5b200ac8c7c3b92560405160405180910390a45b505b5050600090815260046020526040902080546001600160a01b0319166001600160a01b0392909216919091179055565b6000610bad610bf2565b610741848484610cee565b600a5460ff166104cd57604051638dfc202b60e01b815260040160405180910390fd5b610be58383610dbb565b61050b6000848484610891565b600a5460ff16156104cd5760405163d93c066560e01b815260040160405180910390fd5b60008072184f03e93ff9f4daa797ed6e38ed64bf6a1f0160401b8310610c555772184f03e93ff9f4daa797ed6e38ed64bf6a1f0160401b830492506040015b6d04ee2d6d415b85acef81000000008310610c81576d04ee2d6d415b85acef8100000000830492506020015b662386f26fc100008310610c9f57662386f26fc10000830492506010015b6305f5e1008310610cb7576305f5e100830492506008015b6127108310610ccb57612710830492506004015b60648310610cdd576064830492506002015b600a83106103005760010192915050565b600080610cfc858585610e20565b90506001600160a01b038116610d5957610d5484600880546000838152600960205260408120829055600182018355919091527ff3f7a9fe364faab93b216da50a3214154f22a0a2b415b23a84c8169e8b636ee30155565b610d7c565b846001600160a01b0316816001600160a01b031614610d7c57610d7c8185610f19565b6001600160a01b038516610d9857610d9384610faa565b610741565b846001600160a01b0316816001600160a01b031614610741576107418585611059565b6001600160a01b038216610de557604051633250574960e11b8152600060048201526024016103f6565b6000610df383836000610734565b90506001600160a01b0381161561050b576040516339e3563760e11b8152600060048201526024016103f6565b6000828152600260205260408120546001600160a01b0390811690831615610e4d57610e4d8184866110a9565b6001600160a01b03811615610e8b57610e6a600085600080610a9d565b6001600160a01b038116600090815260036020526040902080546000190190555b6001600160a01b03851615610eba576001600160a01b0385166000908152600360205260409020805460010190555b60008481526002602052604080822080546001600160a01b0319166001600160a01b0389811691821790925591518793918516917fddf252ad1be2c89b69c2b068fc378daa952ba7f163c4a11628f55a4df523b3ef91a4949350505050565b6000610f2483610580565b600083815260076020526040902054909150808214610f77576001600160a01b03841660009081526006602090815260408083208584528252808320548484528184208190558352600790915290208190555b5060009182526007602090815260408084208490556001600160a01b039094168352600681528383209183525290812055565b600854600090610fbc90600190611528565b60008381526009602052604081205460088054939450909284908110610fe457610fe4611489565b90600052602060002001549050806008838154811061100557611005611489565b600091825260208083209091019290925582815260099091526040808220849055858252812055600880548061103d5761103d61153b565b6001900381819060005260206000200160009055905550505050565b6000600161106684610580565b6110709190611528565b6001600160a01b039093166000908152600660209081526040808320868452825280832085905593825260079052919091209190915550565b6110b483838361110d565b61050b576001600160a01b0383166110e257604051637e27328960e01b8152600481018290526024016103f6565b60405163177e802f60e01b81526001600160a01b0383166004820152602481018290526044016103f6565b60006001600160a01b038316158015906107415750826001600160a01b0316846001600160a01b031614806111475750611147848461069b565b806107415750506000908152600460205260409020546001600160a01b03908116911614919050565b6001600160e01b03198116811461118657600080fd5b50565b60006020828403121561119b57600080fd5b813561069481611170565b60005b838110156111c15781810151838201526020016111a9565b50506000910152565b600081518084526111e28160208601602086016111a6565b601f01601f19169290920160200192915050565b60208152600061069460208301846111ca565b60006020828403121561121b57600080fd5b5035919050565b80356001600160a01b038116811461123957600080fd5b919050565b6000806040838503121561125157600080fd5b61125a83611222565b946020939093013593505050565b60008060006060848603121561127d57600080fd5b61128684611222565b925061129460208501611222565b9150604084013590509250925092565b6000602082840312156112b657600080fd5b61069482611222565b600080604083850312156112d257600080fd5b6112db83611222565b9150602083013580151581146112f057600080fd5b809150509250929050565b634e487b7160e01b600052604160045260246000fd5b6000806000806080858703121561132757600080fd5b61133085611222565b935061133e60208601611222565b925060408501359150606085013567ffffffffffffffff8082111561136257600080fd5b818701915087601f83011261137657600080fd5b813581811115611388576113886112fb565b604051601f8201601f19908116603f011681019083821181831017156113b0576113b06112fb565b816040528281528a60208487010111156113c957600080fd5b82602086016020830137600060208483010152809550505050505092959194509250565b6000806040838503121561140057600080fd5b61140983611222565b915061141760208401611222565b90509250929050565b600181811c9082168061143457607f821691505b60208210810361145457634e487b7160e01b600052602260045260246000fd5b50919050565b634e487b7160e01b600052601160045260246000fd5b6000600182016114825761148261145a565b5060010190565b634e487b7160e01b600052603260045260246000fd5b600083516114b18184602088016111a6565b8351908301906114c58183602088016111a6565b01949350505050565b6001600160a01b0385811682528416602082015260408101839052608060608201819052600090611501908301846111ca565b9695505050505050565b60006020828403121561151d57600080fd5b815161069481611170565b818103818111156103005761030061145a565b634e487b7160e01b600052603160045260246000fdfea26469706673582212207fcfa32d3e3eb346e130fd66a6ac2a3f01b03329edb38e8c8d85e9fbc4e2cfd064736f6c63430008140033",
  "linkReferences": {},
  "deployedLinkReferences": {}
}