{
  "_format": "hh-sol-artifact-1",
  "contractName": "CariocaGreenSC",
  "sourceName": "contracts/CariocaGreenSC.sol",
  "abi": [
    {
      "inputs": [
        {
          "internalType": "uint256",
          "name": "_creditsPerPlantedTree",
          "type": "uint256"
        }
      ],
      "stateMutability": "nonpayable",
      "type": "constructor"
    },
    {
      "inputs": [
        {
          "internalType": "address",
          "name": "owner",
          "type": "address"
        }
      ],
      "name": "OwnableInvalidOwner",
      "type": "error"
    },
    {
      "inputs": [
        {
          "internalType": "address",
          "name": "account",
          "type": "address"
        }
      ],
      "name": "OwnableUnauthorizedAccount",
      "type": "error"
    },
    {
      "anonymous": false,
      "inputs": [
        {
          "indexed": true,
          "internalType": "address",
          "name": "owner",
          "type": "address"
        }
      ],
      "name": "CariocaGreenSCCreated",
      "type": "event"
    },
    {
      "anonymous": false,
      "inputs": [
        {
          "indexed": true,
          "internalType": "address",
          "name": "previousOwner",
          "type": "address"
        },
        {
          "indexed": true,
          "internalType": "address",
          "name": "newOwner",
          "type": "address"
        }
      ],
      "name": "OwnershipTransferred",
      "type": "event"
    },
    {
      "anonymous": false,
      "inputs": [
        {
          "indexed": true,
          "internalType": "address",
          "name": "citizen",
          "type": "address"
        },
        {
          "indexed": true,
          "internalType": "uint256",
          "name": "trees",
          "type": "uint256"
        },
        {
          "indexed": true,
          "internalType": "uint256",
          "name": "credits",
          "type": "uint256"
        }
      ],
      "name": "PlantedTreeRegistered",
      "type": "event"
    },
    {
      "anonymous": false,
      "inputs": [
        {
          "indexed": true,
          "internalType": "address",
          "name": "citizen",
          "type": "address"
        },
        {
          "indexed": true,
          "internalType": "uint256",
          "name": "trees",
          "type": "uint256"
        },
        {
          "indexed": true,
          "internalType": "uint256",
          "name": "credits",
          "type": "uint256"
        }
      ],
      "name": "PlantedTreeUnRegistered",
      "type": "event"
    },
    {
      "inputs": [
        {
          "internalType": "address",
          "name": "_citizen",
          "type": "address"
        }
      ],
      "name": "getPlantedTrees",
      "outputs": [
        {
          "internalType": "uint256",
          "name": "",
          "type": "uint256"
        }
      ],
      "stateMutability": "view",
      "type": "function"
    },
    {
      "inputs": [
        {
          "internalType": "address",
          "name": "_citizen",
          "type": "address"
        }
      ],
      "name": "getTotalCredits",
      "outputs": [
        {
          "internalType": "uint256",
          "name": "",
          "type": "uint256"
        }
      ],
      "stateMutability": "view",
      "type": "function"
    },
    {
      "inputs": [],
      "name": "owner",
      "outputs": [
        {
          "internalType": "address",
          "name": "",
          "type": "address"
        }
      ],
      "stateMutability": "view",
      "type": "function"
    },
    {
      "inputs": [
        {
          "internalType": "address",
          "name": "_citizen",
          "type": "address"
        }
      ],
      "name": "registerPlantedTree",
      "outputs": [
        {
          "internalType": "uint256",
          "name": "",
          "type": "uint256"
        }
      ],
      "stateMutability": "nonpayable",
      "type": "function"
    },
    {
      "inputs": [],
      "name": "renounceOwnership",
      "outputs": [],
      "stateMutability": "nonpayable",
      "type": "function"
    },
    {
      "inputs": [
        {
          "internalType": "address",
          "name": "newOwner",
          "type": "address"
        }
      ],
      "name": "transferOwnership",
      "outputs": [],
      "stateMutability": "nonpayable",
      "type": "function"
    },
    {
      "inputs": [
        {
          "internalType": "address",
          "name": "_citizen",
          "type": "address"
        }
      ],
      "name": "unregisterPlantedTree",
      "outputs": [],
      "stateMutability": "nonpayable",
      "type": "function"
    }
  ],
  "bytecode": "0x608060405234801561001057600080fd5b5060405161072b38038061072b83398101604081905261002f9161016f565b338061005657604051631e4fbdf760e01b8152600060048201526024015b60405180910390fd5b61005f8161011f565b50600081116100d65760405162461bcd60e51b815260206004820152603a60248201527f546f74616c206e756d626572206f66206372656469747320706572205472656560448201527f206d7573742062652067726561746572207468616e207a65726f000000000000606482015260840161004d565b600180546001600160a01b0319163390811790915560028290556040517f9238bbe20e118c3abc5fb944ec3214e9bb640b4d404d9b99f39c5aa7ed1185a490600090a250610188565b600080546001600160a01b038381166001600160a01b0319831681178455604051919092169283917f8be0079c531659141344cd1fd0a4f28419497f9722a3daafe3b4186f6b6457e09190a35050565b60006020828403121561018157600080fd5b5051919050565b610594806101976000396000f3fe608060405234801561001057600080fd5b506004361061007d5760003560e01c80638da5cb5b1161005b5780638da5cb5b146100c557806397f605b0146100e0578063d8166732146100f3578063f2fde38b1461010657600080fd5b806356c31f5a14610082578063715018a6146100a85780637d6c4ef2146100b2575b600080fd5b61009561009036600461048f565b610119565b6040519081526020015b60405180910390f35b6100b061017e565b005b6100956100c036600461048f565b610192565b6000546040516001600160a01b03909116815260200161009f565b6100956100ee36600461048f565b6101ee565b6100b061010136600461048f565b6102c2565b6100b061011436600461048f565b6103d4565b6001546000906001600160a01b031633148061013d5750336001600160a01b038316145b6101625760405162461bcd60e51b8152600401610159906104bf565b60405180910390fd5b506001600160a01b031660009081526004602052604090205490565b610186610412565b610190600061043f565b565b6001546000906001600160a01b03163314806101b65750336001600160a01b038316145b6101d25760405162461bcd60e51b8152600401610159906104bf565b506001600160a01b031660009081526003602052604090205490565b60006101f8610412565b6001600160a01b0382166000908152600360205260408120805460019290610221908490610532565b90915550506002546001600160a01b03831660009081526004602052604081208054909190610251908490610532565b9091555050336000908152600460209081526040808320546003909252808320549051919290916001600160a01b038616917f15496e80c4ac81f9165d19c2043ed741817b9de5085c6a7bc9bf97ca7e30c86a91a4506001600160a01b031660009081526003602052604090205490565b6102ca610412565b336000908152600360205260409020546103355760405162461bcd60e51b815260206004820152602660248201527f436974697a656e20646f6573206e6f74206861766520616e7920706c616e746560448201526564207472656560d01b6064820152608401610159565b33600090815260036020526040812080546001929061035590849061054b565b9091555050600254336000908152600460205260408120805490919061037c90849061054b565b9091555050336000908152600460209081526040808320546003909252808320549051919290916001600160a01b038516917fdfed91c5a3eea108ff698e16f24fee5de3a6acf8244a7bc6e7ba1a207937f93a91a450565b6103dc610412565b6001600160a01b03811661040657604051631e4fbdf760e01b815260006004820152602401610159565b61040f8161043f565b50565b6000546001600160a01b031633146101905760405163118cdaa760e01b8152336004820152602401610159565b600080546001600160a01b038381166001600160a01b0319831681178455604051919092169283917f8be0079c531659141344cd1fd0a4f28419497f9722a3daafe3b4186f6b6457e09190a35050565b6000602082840312156104a157600080fd5b81356001600160a01b03811681146104b857600080fd5b9392505050565b60208082526039908201527f4f6e6c79206f776e20636974697a656e206f7220636f6e7472616374206f776e60408201527f65722063616e2063616c6c20746869732066756e6374696f6e00000000000000606082015260800190565b634e487b7160e01b600052601160045260246000fd5b808201808211156105455761054561051c565b92915050565b818103818111156105455761054561051c56fea2646970667358221220d8d0be6824a4d10a6cc20eee330d2e471f0cd43de1ca876a2da1b33e57aa843c64736f6c63430008180033",
  "linkReferences": {},
  "deployedLinkReferences": {}
}