{
  "_format": "hh-sol-artifact-1",
  "contractName": "RioIPTUToken",
  "sourceName": "contracts/RioIPTUToken.sol",
  "abi": [
    {
      "inputs": [
        {
          "internalType": "address",
          "name": "_initialOwner",
          "type": "address"
        }
      ],
      "stateMutability": "nonpayable",
      "type": "constructor"
    },
    {
      "inputs": [
        {
          "internalType": "address",
          "name": "spender",
          "type": "address"
        },
        {
          "internalType": "uint256",
          "name": "allowance",
          "type": "uint256"
        },
        {
          "internalType": "uint256",
          "name": "needed",
          "type": "uint256"
        }
      ],
      "name": "ERC20InsufficientAllowance",
      "type": "error"
    },
    {
      "inputs": [
        {
          "internalType": "address",
          "name": "sender",
          "type": "address"
        },
        {
          "internalType": "uint256",
          "name": "balance",
          "type": "uint256"
        },
        {
          "internalType": "uint256",
          "name": "needed",
          "type": "uint256"
        }
      ],
      "name": "ERC20InsufficientBalance",
      "type": "error"
    },
    {
      "inputs": [
        {
          "internalType": "address",
          "name": "approver",
          "type": "address"
        }
      ],
      "name": "ERC20InvalidApprover",
      "type": "error"
    },
    {
      "inputs": [
        {
          "internalType": "address",
          "name": "receiver",
          "type": "address"
        }
      ],
      "name": "ERC20InvalidReceiver",
      "type": "error"
    },
    {
      "inputs": [
        {
          "internalType": "address",
          "name": "sender",
          "type": "address"
        }
      ],
      "name": "ERC20InvalidSender",
      "type": "error"
    },
    {
      "inputs": [
        {
          "internalType": "address",
          "name": "spender",
          "type": "address"
        }
      ],
      "name": "ERC20InvalidSpender",
      "type": "error"
    },
    {
      "inputs": [],
      "name": "EnforcedPause",
      "type": "error"
    },
    {
      "inputs": [],
      "name": "ExpectedPause",
      "type": "error"
    },
    {
      "inputs": [
        {
          "internalType": "address",
          "name": "owner",
          "type": "address"
        }
      ],
      "name": "OwnableInvalidOwner",
      "type": "error"
    },
    {
      "inputs": [
        {
          "internalType": "address",
          "name": "account",
          "type": "address"
        }
      ],
      "name": "OwnableUnauthorizedAccount",
      "type": "error"
    },
    {
      "anonymous": false,
      "inputs": [
        {
          "indexed": true,
          "internalType": "address",
          "name": "owner",
          "type": "address"
        },
        {
          "indexed": true,
          "internalType": "address",
          "name": "spender",
          "type": "address"
        },
        {
          "indexed": false,
          "internalType": "uint256",
          "name": "value",
          "type": "uint256"
        }
      ],
      "name": "Approval",
      "type": "event"
    },
    {
      "anonymous": false,
      "inputs": [
        {
          "indexed": true,
          "internalType": "address",
          "name": "previousOwner",
          "type": "address"
        },
        {
          "indexed": true,
          "internalType": "address",
          "name": "newOwner",
          "type": "address"
        }
      ],
      "name": "OwnershipTransferred",
      "type": "event"
    },
    {
      "anonymous": false,
      "inputs": [
        {
          "indexed": false,
          "internalType": "address",
          "name": "account",
          "type": "address"
        }
      ],
      "name": "Paused",
      "type": "event"
    },
    {
      "anonymous": false,
      "inputs": [
        {
          "indexed": true,
          "internalType": "address",
          "name": "from",
          "type": "address"
        },
        {
          "indexed": true,
          "internalType": "address",
          "name": "to",
          "type": "address"
        },
        {
          "indexed": false,
          "internalType": "uint256",
          "name": "value",
          "type": "uint256"
        }
      ],
      "name": "Transfer",
      "type": "event"
    },
    {
      "anonymous": false,
      "inputs": [
        {
          "indexed": false,
          "internalType": "address",
          "name": "account",
          "type": "address"
        }
      ],
      "name": "Unpaused",
      "type": "event"
    },
    {
      "inputs": [
        {
          "internalType": "address",
          "name": "owner",
          "type": "address"
        },
        {
          "internalType": "address",
          "name": "spender",
          "type": "address"
        }
      ],
      "name": "allowance",
      "outputs": [
        {
          "internalType": "uint256",
          "name": "",
          "type": "uint256"
        }
      ],
      "stateMutability": "view",
      "type": "function"
    },
    {
      "inputs": [
        {
          "internalType": "address",
          "name": "spender",
          "type": "address"
        },
        {
          "internalType": "uint256",
          "name": "value",
          "type": "uint256"
        }
      ],
      "name": "approve",
      "outputs": [
        {
          "internalType": "bool",
          "name": "",
          "type": "bool"
        }
      ],
      "stateMutability": "nonpayable",
      "type": "function"
    },
    {
      "inputs": [
        {
          "internalType": "address",
          "name": "account",
          "type": "address"
        }
      ],
      "name": "balanceOf",
      "outputs": [
        {
          "internalType": "uint256",
          "name": "",
          "type": "uint256"
        }
      ],
      "stateMutability": "view",
      "type": "function"
    },
    {
      "inputs": [],
      "name": "decimals",
      "outputs": [
        {
          "internalType": "uint8",
          "name": "",
          "type": "uint8"
        }
      ],
      "stateMutability": "view",
      "type": "function"
    },
    {
      "inputs": [
        {
          "internalType": "address",
          "name": "to",
          "type": "address"
        },
        {
          "internalType": "uint256",
          "name": "amount",
          "type": "uint256"
        }
      ],
      "name": "mint",
      "outputs": [],
      "stateMutability": "nonpayable",
      "type": "function"
    },
    {
      "inputs": [],
      "name": "name",
      "outputs": [
        {
          "internalType": "string",
          "name": "",
          "type": "string"
        }
      ],
      "stateMutability": "view",
      "type": "function"
    },
    {
      "inputs": [],
      "name": "owner",
      "outputs": [
        {
          "internalType": "address",
          "name": "",
          "type": "address"
        }
      ],
      "stateMutability": "view",
      "type": "function"
    },
    {
      "inputs": [],
      "name": "pause",
      "outputs": [],
      "stateMutability": "nonpayable",
      "type": "function"
    },
    {
      "inputs": [],
      "name": "paused",
      "outputs": [
        {
          "internalType": "bool",
          "name": "",
          "type": "bool"
        }
      ],
      "stateMutability": "view",
      "type": "function"
    },
    {
      "inputs": [],
      "name": "renounceOwnership",
      "outputs": [],
      "stateMutability": "nonpayable",
      "type": "function"
    },
    {
      "inputs": [],
      "name": "symbol",
      "outputs": [
        {
          "internalType": "string",
          "name": "",
          "type": "string"
        }
      ],
      "stateMutability": "view",
      "type": "function"
    },
    {
      "inputs": [],
      "name": "totalSupply",
      "outputs": [
        {
          "internalType": "uint256",
          "name": "",
          "type": "uint256"
        }
      ],
      "stateMutability": "view",
      "type": "function"
    },
    {
      "inputs": [
        {
          "internalType": "address",
          "name": "to",
          "type": "address"
        },
        {
          "internalType": "uint256",
          "name": "value",
          "type": "uint256"
        }
      ],
      "name": "transfer",
      "outputs": [
        {
          "internalType": "bool",
          "name": "",
          "type": "bool"
        }
      ],
      "stateMutability": "nonpayable",
      "type": "function"
    },
    {
      "inputs": [
        {
          "internalType": "address",
          "name": "from",
          "type": "address"
        },
        {
          "internalType": "address",
          "name": "to",
          "type": "address"
        },
        {
          "internalType": "uint256",
          "name": "value",
          "type": "uint256"
        }
      ],
      "name": "transferFrom",
      "outputs": [
        {
          "internalType": "bool",
          "name": "",
          "type": "bool"
        }
      ],
      "stateMutability": "nonpayable",
      "type": "function"
    },
    {
      "inputs": [
        {
          "internalType": "address",
          "name": "newOwner",
          "type": "address"
        }
      ],
      "name": "transferOwnership",
      "outputs": [],
      "stateMutability": "nonpayable",
      "type": "function"
    },
    {
      "inputs": [],
      "name": "unpause",
      "outputs": [],
      "stateMutability": "nonpayable",
      "type": "function"
    }
  ],
  "bytecode": "0x60806040523480156200001157600080fd5b5060405162000f2738038062000f27833981016040819052620000349162000312565b806040518060400160405280600e81526020016d2934b79024a82a2a902a37b5b2b760911b81525060405180604001604052806005815260200164524950545560d81b81525081600390816200008b9190620003e8565b5060046200009a8282620003e8565b50506005805460ff19169055506001600160a01b038116620000d757604051631e4fbdf760e01b8152600060048201526024015b60405180910390fd5b620000e281620000f7565b50620000f08160c862000151565b50620004dc565b600580546001600160a01b03838116610100818102610100600160a81b031985161790945560405193909204169182907f8be0079c531659141344cd1fd0a4f28419497f9722a3daafe3b4186f6b6457e090600090a35050565b6001600160a01b0382166200017d5760405163ec442f0560e01b815260006004820152602401620000ce565b6200018b600083836200018f565b5050565b6200019c838383620001a1565b505050565b620001ab620001b8565b6200019c838383620001df565b60055460ff1615620001dd5760405163d93c066560e01b815260040160405180910390fd5b565b6001600160a01b0383166200020e578060026000828254620002029190620004b4565b90915550620002829050565b6001600160a01b03831660009081526020819052604090205481811015620002635760405163391434e360e21b81526001600160a01b03851660048201526024810182905260448101839052606401620000ce565b6001600160a01b03841660009081526020819052604090209082900390555b6001600160a01b038216620002a057600280548290039055620002bf565b6001600160a01b03821660009081526020819052604090208054820190555b816001600160a01b0316836001600160a01b03167fddf252ad1be2c89b69c2b068fc378daa952ba7f163c4a11628f55a4df523b3ef836040516200030591815260200190565b60405180910390a3505050565b6000602082840312156200032557600080fd5b81516001600160a01b03811681146200033d57600080fd5b9392505050565b634e487b7160e01b600052604160045260246000fd5b600181811c908216806200036f57607f821691505b6020821081036200039057634e487b7160e01b600052602260045260246000fd5b50919050565b601f8211156200019c57600081815260208120601f850160051c81016020861015620003bf5750805b601f850160051c820191505b81811015620003e057828155600101620003cb565b505050505050565b81516001600160401b0381111562000404576200040462000344565b6200041c816200041584546200035a565b8462000396565b602080601f8311600181146200045457600084156200043b5750858301515b600019600386901b1c1916600185901b178555620003e0565b600085815260208120601f198616915b82811015620004855788860151825594840194600190910190840162000464565b5085821015620004a45787850151600019600388901b60f8161c191681555b5050505050600190811b01905550565b80820180821115620004d657634e487b7160e01b600052601160045260246000fd5b92915050565b610a3b80620004ec6000396000f3fe608060405234801561001057600080fd5b50600436106101005760003560e01c806370a082311161009757806395d89b411161006657806395d89b4114610204578063a9059cbb1461020c578063dd62ed3e1461021f578063f2fde38b1461025857600080fd5b806370a08231146101a2578063715018a6146101cb5780638456cb59146101d35780638da5cb5b146101db57600080fd5b8063313ce567116100d3578063313ce5671461016b5780633f4ba83a1461017a57806340c10f19146101845780635c975abb1461019757600080fd5b806306fdde0314610105578063095ea7b31461012357806318160ddd1461014657806323b872dd14610158575b600080fd5b61010d61026b565b60405161011a9190610885565b60405180910390f35b6101366101313660046108ef565b6102fd565b604051901515815260200161011a565b6002545b60405190815260200161011a565b610136610166366004610919565b610317565b6040516000815260200161011a565b61018261033b565b005b6101826101923660046108ef565b61034d565b60055460ff16610136565b61014a6101b0366004610955565b6001600160a01b031660009081526020819052604090205490565b610182610363565b610182610375565b60055461010090046001600160a01b03166040516001600160a01b03909116815260200161011a565b61010d610385565b61013661021a3660046108ef565b610394565b61014a61022d366004610977565b6001600160a01b03918216600090815260016020908152604080832093909416825291909152205490565b610182610266366004610955565b6103a2565b60606003805461027a906109aa565b80601f01602080910402602001604051908101604052809291908181526020018280546102a6906109aa565b80156102f35780601f106102c8576101008083540402835291602001916102f3565b820191906000526020600020905b8154815290600101906020018083116102d657829003601f168201915b5050505050905090565b60003361030b8185856103e5565b60019150505b92915050565b6000336103258582856103f7565b610330858585610475565b506001949350505050565b6103436104d4565b61034b610507565b565b6103556104d4565b61035f8282610559565b5050565b61036b6104d4565b61034b600061058f565b61037d6104d4565b61034b6105e9565b60606004805461027a906109aa565b60003361030b818585610475565b6103aa6104d4565b6001600160a01b0381166103d957604051631e4fbdf760e01b8152600060048201526024015b60405180910390fd5b6103e28161058f565b50565b6103f28383836001610626565b505050565b6001600160a01b03838116600090815260016020908152604080832093861683529290522054600019811461046f578181101561046057604051637dc7a0d960e11b81526001600160a01b038416600482015260248101829052604481018390526064016103d0565b61046f84848484036000610626565b50505050565b6001600160a01b03831661049f57604051634b637e8f60e11b8152600060048201526024016103d0565b6001600160a01b0382166104c95760405163ec442f0560e01b8152600060048201526024016103d0565b6103f28383836106fb565b6005546001600160a01b0361010090910416331461034b5760405163118cdaa760e01b81523360048201526024016103d0565b61050f610706565b6005805460ff191690557f5db9ee0a495bf2e6ff9c91a7834c1ba4fdd244a5e8aa4e537bd38aeae4b073aa335b6040516001600160a01b03909116815260200160405180910390a1565b6001600160a01b0382166105835760405163ec442f0560e01b8152600060048201526024016103d0565b61035f600083836106fb565b600580546001600160a01b03838116610100818102610100600160a81b031985161790945560405193909204169182907f8be0079c531659141344cd1fd0a4f28419497f9722a3daafe3b4186f6b6457e090600090a35050565b6105f1610729565b6005805460ff191660011790557f62e78cea01bee320cd4e420270b5ea74000d11b0c9f74754ebdbfc544b05a25861053c3390565b6001600160a01b0384166106505760405163e602df0560e01b8152600060048201526024016103d0565b6001600160a01b03831661067a57604051634a1406b160e11b8152600060048201526024016103d0565b6001600160a01b038085166000908152600160209081526040808320938716835292905220829055801561046f57826001600160a01b0316846001600160a01b03167f8c5be1e5ebec7d5bd14f71427d1e84f3dd0314c0f7b2291e5b200ac8c7c3b925846040516106ed91815260200190565b60405180910390a350505050565b6103f283838361074d565b60055460ff1661034b57604051638dfc202b60e01b815260040160405180910390fd5b60055460ff161561034b5760405163d93c066560e01b815260040160405180910390fd5b610755610729565b6103f28383836001600160a01b03831661078657806002600082825461077b91906109e4565b909155506107f89050565b6001600160a01b038316600090815260208190526040902054818110156107d95760405163391434e360e21b81526001600160a01b038516600482015260248101829052604481018390526064016103d0565b6001600160a01b03841660009081526020819052604090209082900390555b6001600160a01b03821661081457600280548290039055610833565b6001600160a01b03821660009081526020819052604090208054820190555b816001600160a01b0316836001600160a01b03167fddf252ad1be2c89b69c2b068fc378daa952ba7f163c4a11628f55a4df523b3ef8360405161087891815260200190565b60405180910390a3505050565b600060208083528351808285015260005b818110156108b257858101830151858201604001528201610896565b506000604082860101526040601f19601f8301168501019250505092915050565b80356001600160a01b03811681146108ea57600080fd5b919050565b6000806040838503121561090257600080fd5b61090b836108d3565b946020939093013593505050565b60008060006060848603121561092e57600080fd5b610937846108d3565b9250610945602085016108d3565b9150604084013590509250925092565b60006020828403121561096757600080fd5b610970826108d3565b9392505050565b6000806040838503121561098a57600080fd5b610993836108d3565b91506109a1602084016108d3565b90509250929050565b600181811c908216806109be57607f821691505b6020821081036109de57634e487b7160e01b600052602260045260246000fd5b50919050565b8082018082111561031157634e487b7160e01b600052601160045260246000fdfea2646970667358221220d750ae0e0e13699df14a6d8c3409ec3b1201b3a1c1a34eb2373a5a0bc4143beb64736f6c63430008140033",
  "linkReferences": {},
  "deployedLinkReferences": {}
}