{
  "_format": "hh-sol-artifact-1",
  "contractName": "RioIPTUToken",
  "sourceName": "contracts/RioIPTUToken.sol",
  "abi": [
    {
      "inputs": [
        {
          "internalType": "address",
          "name": "_initialOwner",
          "type": "address"
        }
      ],
      "stateMutability": "nonpayable",
      "type": "constructor"
    },
    {
      "inputs": [
        {
          "internalType": "address",
          "name": "spender",
          "type": "address"
        },
        {
          "internalType": "uint256",
          "name": "allowance",
          "type": "uint256"
        },
        {
          "internalType": "uint256",
          "name": "needed",
          "type": "uint256"
        }
      ],
      "name": "ERC20InsufficientAllowance",
      "type": "error"
    },
    {
      "inputs": [
        {
          "internalType": "address",
          "name": "sender",
          "type": "address"
        },
        {
          "internalType": "uint256",
          "name": "balance",
          "type": "uint256"
        },
        {
          "internalType": "uint256",
          "name": "needed",
          "type": "uint256"
        }
      ],
      "name": "ERC20InsufficientBalance",
      "type": "error"
    },
    {
      "inputs": [
        {
          "internalType": "address",
          "name": "approver",
          "type": "address"
        }
      ],
      "name": "ERC20InvalidApprover",
      "type": "error"
    },
    {
      "inputs": [
        {
          "internalType": "address",
          "name": "receiver",
          "type": "address"
        }
      ],
      "name": "ERC20InvalidReceiver",
      "type": "error"
    },
    {
      "inputs": [
        {
          "internalType": "address",
          "name": "sender",
          "type": "address"
        }
      ],
      "name": "ERC20InvalidSender",
      "type": "error"
    },
    {
      "inputs": [
        {
          "internalType": "address",
          "name": "spender",
          "type": "address"
        }
      ],
      "name": "ERC20InvalidSpender",
      "type": "error"
    },
    {
      "inputs": [],
      "name": "EnforcedPause",
      "type": "error"
    },
    {
      "inputs": [],
      "name": "ExpectedPause",
      "type": "error"
    },
    {
      "inputs": [
        {
          "internalType": "address",
          "name": "owner",
          "type": "address"
        }
      ],
      "name": "OwnableInvalidOwner",
      "type": "error"
    },
    {
      "inputs": [
        {
          "internalType": "address",
          "name": "account",
          "type": "address"
        }
      ],
      "name": "OwnableUnauthorizedAccount",
      "type": "error"
    },
    {
      "anonymous": false,
      "inputs": [
        {
          "indexed": true,
          "internalType": "address",
          "name": "owner",
          "type": "address"
        },
        {
          "indexed": true,
          "internalType": "address",
          "name": "spender",
          "type": "address"
        },
        {
          "indexed": false,
          "internalType": "uint256",
          "name": "value",
          "type": "uint256"
        }
      ],
      "name": "Approval",
      "type": "event"
    },
    {
      "anonymous": false,
      "inputs": [
        {
          "indexed": true,
          "internalType": "address",
          "name": "previousOwner",
          "type": "address"
        },
        {
          "indexed": true,
          "internalType": "address",
          "name": "newOwner",
          "type": "address"
        }
      ],
      "name": "OwnershipTransferred",
      "type": "event"
    },
    {
      "anonymous": false,
      "inputs": [
        {
          "indexed": false,
          "internalType": "address",
          "name": "account",
          "type": "address"
        }
      ],
      "name": "Paused",
      "type": "event"
    },
    {
      "anonymous": false,
      "inputs": [
        {
          "indexed": true,
          "internalType": "address",
          "name": "from",
          "type": "address"
        },
        {
          "indexed": true,
          "internalType": "address",
          "name": "to",
          "type": "address"
        },
        {
          "indexed": false,
          "internalType": "uint256",
          "name": "value",
          "type": "uint256"
        }
      ],
      "name": "Transfer",
      "type": "event"
    },
    {
      "anonymous": false,
      "inputs": [
        {
          "indexed": false,
          "internalType": "address",
          "name": "account",
          "type": "address"
        }
      ],
      "name": "Unpaused",
      "type": "event"
    },
    {
      "inputs": [
        {
          "internalType": "address",
          "name": "owner",
          "type": "address"
        },
        {
          "internalType": "address",
          "name": "spender",
          "type": "address"
        }
      ],
      "name": "allowance",
      "outputs": [
        {
          "internalType": "uint256",
          "name": "",
          "type": "uint256"
        }
      ],
      "stateMutability": "view",
      "type": "function"
    },
    {
      "inputs": [
        {
          "internalType": "address",
          "name": "spender",
          "type": "address"
        },
        {
          "internalType": "uint256",
          "name": "value",
          "type": "uint256"
        }
      ],
      "name": "approve",
      "outputs": [
        {
          "internalType": "bool",
          "name": "",
          "type": "bool"
        }
      ],
      "stateMutability": "nonpayable",
      "type": "function"
    },
    {
      "inputs": [
        {
          "internalType": "address",
          "name": "account",
          "type": "address"
        }
      ],
      "name": "balanceOf",
      "outputs": [
        {
          "internalType": "uint256",
          "name": "",
          "type": "uint256"
        }
      ],
      "stateMutability": "view",
      "type": "function"
    },
    {
      "inputs": [],
      "name": "decimals",
      "outputs": [
        {
          "internalType": "uint8",
          "name": "",
          "type": "uint8"
        }
      ],
      "stateMutability": "view",
      "type": "function"
    },
    {
      "inputs": [
        {
          "internalType": "address",
          "name": "to",
          "type": "address"
        },
        {
          "internalType": "uint256",
          "name": "amount",
          "type": "uint256"
        }
      ],
      "name": "mint",
      "outputs": [],
      "stateMutability": "nonpayable",
      "type": "function"
    },
    {
      "inputs": [],
      "name": "name",
      "outputs": [
        {
          "internalType": "string",
          "name": "",
          "type": "string"
        }
      ],
      "stateMutability": "view",
      "type": "function"
    },
    {
      "inputs": [],
      "name": "owner",
      "outputs": [
        {
          "internalType": "address",
          "name": "",
          "type": "address"
        }
      ],
      "stateMutability": "view",
      "type": "function"
    },
    {
      "inputs": [],
      "name": "pause",
      "outputs": [],
      "stateMutability": "nonpayable",
      "type": "function"
    },
    {
      "inputs": [],
      "name": "paused",
      "outputs": [
        {
          "internalType": "bool",
          "name": "",
          "type": "bool"
        }
      ],
      "stateMutability": "view",
      "type": "function"
    },
    {
      "inputs": [],
      "name": "renounceOwnership",
      "outputs": [],
      "stateMutability": "nonpayable",
      "type": "function"
    },
    {
      "inputs": [],
      "name": "symbol",
      "outputs": [
        {
          "internalType": "string",
          "name": "",
          "type": "string"
        }
      ],
      "stateMutability": "view",
      "type": "function"
    },
    {
      "inputs": [],
      "name": "totalSupply",
      "outputs": [
        {
          "internalType": "uint256",
          "name": "",
          "type": "uint256"
        }
      ],
      "stateMutability": "view",
      "type": "function"
    },
    {
      "inputs": [
        {
          "internalType": "address",
          "name": "to",
          "type": "address"
        },
        {
          "internalType": "uint256",
          "name": "value",
          "type": "uint256"
        }
      ],
      "name": "transfer",
      "outputs": [
        {
          "internalType": "bool",
          "name": "",
          "type": "bool"
        }
      ],
      "stateMutability": "nonpayable",
      "type": "function"
    },
    {
      "inputs": [
        {
          "internalType": "address",
          "name": "from",
          "type": "address"
        },
        {
          "internalType": "address",
          "name": "to",
          "type": "address"
        },
        {
          "internalType": "uint256",
          "name": "amount",
          "type": "uint256"
        }
      ],
      "name": "transfer",
      "outputs": [],
      "stateMutability": "nonpayable",
      "type": "function"
    },
    {
      "inputs": [
        {
          "internalType": "address",
          "name": "from",
          "type": "address"
        },
        {
          "internalType": "address",
          "name": "to",
          "type": "address"
        },
        {
          "internalType": "uint256",
          "name": "value",
          "type": "uint256"
        }
      ],
      "name": "transferFrom",
      "outputs": [
        {
          "internalType": "bool",
          "name": "",
          "type": "bool"
        }
      ],
      "stateMutability": "nonpayable",
      "type": "function"
    },
    {
      "inputs": [
        {
          "internalType": "address",
          "name": "newOwner",
          "type": "address"
        }
      ],
      "name": "transferOwnership",
      "outputs": [],
      "stateMutability": "nonpayable",
      "type": "function"
    },
    {
      "inputs": [],
      "name": "unpause",
      "outputs": [],
      "stateMutability": "nonpayable",
      "type": "function"
    }
  ],
  "bytecode": "0x60806040523480156200001157600080fd5b5060405162000f5b38038062000f5b833981016040819052620000349162000312565b806040518060400160405280600e81526020016d2934b79024a82a2a902a37b5b2b760911b81525060405180604001604052806005815260200164524950545560d81b81525081600390816200008b9190620003ea565b5060046200009a8282620003ea565b50506005805460ff19169055506001600160a01b038116620000d757604051631e4fbdf760e01b8152600060048201526024015b60405180910390fd5b620000e281620000f7565b50620000f08160c862000151565b50620004de565b600580546001600160a01b03838116610100818102610100600160a81b031985161790945560405193909204169182907f8be0079c531659141344cd1fd0a4f28419497f9722a3daafe3b4186f6b6457e090600090a35050565b6001600160a01b0382166200017d5760405163ec442f0560e01b815260006004820152602401620000ce565b6200018b600083836200018f565b5050565b6200019c838383620001a1565b505050565b620001ab620001b8565b6200019c838383620001df565b60055460ff1615620001dd5760405163d93c066560e01b815260040160405180910390fd5b565b6001600160a01b0383166200020e578060026000828254620002029190620004b6565b90915550620002829050565b6001600160a01b03831660009081526020819052604090205481811015620002635760405163391434e360e21b81526001600160a01b03851660048201526024810182905260448101839052606401620000ce565b6001600160a01b03841660009081526020819052604090209082900390555b6001600160a01b038216620002a057600280548290039055620002bf565b6001600160a01b03821660009081526020819052604090208054820190555b816001600160a01b0316836001600160a01b03167fddf252ad1be2c89b69c2b068fc378daa952ba7f163c4a11628f55a4df523b3ef836040516200030591815260200190565b60405180910390a3505050565b6000602082840312156200032557600080fd5b81516001600160a01b03811681146200033d57600080fd5b9392505050565b634e487b7160e01b600052604160045260246000fd5b600181811c908216806200036f57607f821691505b6020821081036200039057634e487b7160e01b600052602260045260246000fd5b50919050565b601f8211156200019c576000816000526020600020601f850160051c81016020861015620003c15750805b601f850160051c820191505b81811015620003e257828155600101620003cd565b505050505050565b81516001600160401b0381111562000406576200040662000344565b6200041e816200041784546200035a565b8462000396565b602080601f8311600181146200045657600084156200043d5750858301515b600019600386901b1c1916600185901b178555620003e2565b600085815260208120601f198616915b82811015620004875788860151825594840194600190910190840162000466565b5085821015620004a65787850151600019600388901b60f8161c191681555b5050505050600190811b01905550565b80820180821115620004d857634e487b7160e01b600052601160045260246000fd5b92915050565b610a6d80620004ee6000396000f3fe608060405234801561001057600080fd5b506004361061010b5760003560e01c806370a08231116100a257806395d89b411161007157806395d89b411461020f578063a9059cbb14610217578063beabacc81461022a578063dd62ed3e1461023d578063f2fde38b1461027657600080fd5b806370a08231146101ad578063715018a6146101d65780638456cb59146101de5780638da5cb5b146101e657600080fd5b8063313ce567116100de578063313ce567146101765780633f4ba83a1461018557806340c10f191461018f5780635c975abb146101a257600080fd5b806306fdde0314610110578063095ea7b31461012e57806318160ddd1461015157806323b872dd14610163575b600080fd5b610118610289565b60405161012591906108b6565b60405180910390f35b61014161013c366004610921565b61031b565b6040519015158152602001610125565b6002545b604051908152602001610125565b61014161017136600461094b565b610335565b60405160008152602001610125565b61018d610359565b005b61018d61019d366004610921565b61036b565b60055460ff16610141565b6101556101bb366004610987565b6001600160a01b031660009081526020819052604090205490565b61018d610381565b61018d610393565b60055461010090046001600160a01b03166040516001600160a01b039091168152602001610125565b6101186103a3565b610141610225366004610921565b6103b2565b61018d61023836600461094b565b6103c0565b61015561024b3660046109a9565b6001600160a01b03918216600090815260016020908152604080832093909416825291909152205490565b61018d610284366004610987565b6103d9565b606060038054610298906109dc565b80601f01602080910402602001604051908101604052809291908181526020018280546102c4906109dc565b80156103115780601f106102e657610100808354040283529160200191610311565b820191906000526020600020905b8154815290600101906020018083116102f457829003601f168201915b5050505050905090565b60003361032981858561041c565b60019150505b92915050565b60003361034385828561042e565b61034e8585856104a6565b506001949350505050565b610361610505565b610369610538565b565b610373610505565b61037d828261058a565b5050565b610389610505565b61036960006105c0565b61039b610505565b61036961061a565b606060048054610298906109dc565b6000336103298185856104a6565b6103c8610505565b6103d3838383610335565b50505050565b6103e1610505565b6001600160a01b03811661041057604051631e4fbdf760e01b8152600060048201526024015b60405180910390fd5b610419816105c0565b50565b6104298383836001610657565b505050565b6001600160a01b0383811660009081526001602090815260408083209386168352929052205460001981146103d3578181101561049757604051637dc7a0d960e11b81526001600160a01b03841660048201526024810182905260448101839052606401610407565b6103d384848484036000610657565b6001600160a01b0383166104d057604051634b637e8f60e11b815260006004820152602401610407565b6001600160a01b0382166104fa5760405163ec442f0560e01b815260006004820152602401610407565b61042983838361072c565b6005546001600160a01b036101009091041633146103695760405163118cdaa760e01b8152336004820152602401610407565b610540610737565b6005805460ff191690557f5db9ee0a495bf2e6ff9c91a7834c1ba4fdd244a5e8aa4e537bd38aeae4b073aa335b6040516001600160a01b03909116815260200160405180910390a1565b6001600160a01b0382166105b45760405163ec442f0560e01b815260006004820152602401610407565b61037d6000838361072c565b600580546001600160a01b03838116610100818102610100600160a81b031985161790945560405193909204169182907f8be0079c531659141344cd1fd0a4f28419497f9722a3daafe3b4186f6b6457e090600090a35050565b61062261075a565b6005805460ff191660011790557f62e78cea01bee320cd4e420270b5ea74000d11b0c9f74754ebdbfc544b05a25861056d3390565b6001600160a01b0384166106815760405163e602df0560e01b815260006004820152602401610407565b6001600160a01b0383166106ab57604051634a1406b160e11b815260006004820152602401610407565b6001600160a01b03808516600090815260016020908152604080832093871683529290522082905580156103d357826001600160a01b0316846001600160a01b03167f8c5be1e5ebec7d5bd14f71427d1e84f3dd0314c0f7b2291e5b200ac8c7c3b9258460405161071e91815260200190565b60405180910390a350505050565b61042983838361077e565b60055460ff1661036957604051638dfc202b60e01b815260040160405180910390fd5b60055460ff16156103695760405163d93c066560e01b815260040160405180910390fd5b61078661075a565b6104298383836001600160a01b0383166107b75780600260008282546107ac9190610a16565b909155506108299050565b6001600160a01b0383166000908152602081905260409020548181101561080a5760405163391434e360e21b81526001600160a01b03851660048201526024810182905260448101839052606401610407565b6001600160a01b03841660009081526020819052604090209082900390555b6001600160a01b03821661084557600280548290039055610864565b6001600160a01b03821660009081526020819052604090208054820190555b816001600160a01b0316836001600160a01b03167fddf252ad1be2c89b69c2b068fc378daa952ba7f163c4a11628f55a4df523b3ef836040516108a991815260200190565b60405180910390a3505050565b60006020808352835180602085015260005b818110156108e4578581018301518582016040015282016108c8565b506000604082860101526040601f19601f8301168501019250505092915050565b80356001600160a01b038116811461091c57600080fd5b919050565b6000806040838503121561093457600080fd5b61093d83610905565b946020939093013593505050565b60008060006060848603121561096057600080fd5b61096984610905565b925061097760208501610905565b9150604084013590509250925092565b60006020828403121561099957600080fd5b6109a282610905565b9392505050565b600080604083850312156109bc57600080fd5b6109c583610905565b91506109d360208401610905565b90509250929050565b600181811c908216806109f057607f821691505b602082108103610a1057634e487b7160e01b600052602260045260246000fd5b50919050565b8082018082111561032f57634e487b7160e01b600052601160045260246000fdfea2646970667358221220887a15fd98fe913f4ff7b9936dd5c79b8c55ae3511e4f2e34a5723480a50b71364736f6c63430008180033",
  "linkReferences": {},
  "deployedLinkReferences": {}
}