{
  "_format": "hh-sol-artifact-1",
  "contractName": "RioIPTUToken",
  "sourceName": "contracts/RioIPTUToken.sol",
  "abi": [
    {
      "inputs": [
        {
          "internalType": "address",
          "name": "_initialOwner",
          "type": "address"
        }
      ],
      "stateMutability": "nonpayable",
      "type": "constructor"
    },
    {
      "inputs": [
        {
          "internalType": "address",
          "name": "spender",
          "type": "address"
        },
        {
          "internalType": "uint256",
          "name": "allowance",
          "type": "uint256"
        },
        {
          "internalType": "uint256",
          "name": "needed",
          "type": "uint256"
        }
      ],
      "name": "ERC20InsufficientAllowance",
      "type": "error"
    },
    {
      "inputs": [
        {
          "internalType": "address",
          "name": "sender",
          "type": "address"
        },
        {
          "internalType": "uint256",
          "name": "balance",
          "type": "uint256"
        },
        {
          "internalType": "uint256",
          "name": "needed",
          "type": "uint256"
        }
      ],
      "name": "ERC20InsufficientBalance",
      "type": "error"
    },
    {
      "inputs": [
        {
          "internalType": "address",
          "name": "approver",
          "type": "address"
        }
      ],
      "name": "ERC20InvalidApprover",
      "type": "error"
    },
    {
      "inputs": [
        {
          "internalType": "address",
          "name": "receiver",
          "type": "address"
        }
      ],
      "name": "ERC20InvalidReceiver",
      "type": "error"
    },
    {
      "inputs": [
        {
          "internalType": "address",
          "name": "sender",
          "type": "address"
        }
      ],
      "name": "ERC20InvalidSender",
      "type": "error"
    },
    {
      "inputs": [
        {
          "internalType": "address",
          "name": "spender",
          "type": "address"
        }
      ],
      "name": "ERC20InvalidSpender",
      "type": "error"
    },
    {
      "inputs": [],
      "name": "EnforcedPause",
      "type": "error"
    },
    {
      "inputs": [],
      "name": "ExpectedPause",
      "type": "error"
    },
    {
      "inputs": [
        {
          "internalType": "address",
          "name": "owner",
          "type": "address"
        }
      ],
      "name": "OwnableInvalidOwner",
      "type": "error"
    },
    {
      "inputs": [
        {
          "internalType": "address",
          "name": "account",
          "type": "address"
        }
      ],
      "name": "OwnableUnauthorizedAccount",
      "type": "error"
    },
    {
      "anonymous": false,
      "inputs": [
        {
          "indexed": true,
          "internalType": "address",
          "name": "owner",
          "type": "address"
        },
        {
          "indexed": true,
          "internalType": "address",
          "name": "spender",
          "type": "address"
        },
        {
          "indexed": false,
          "internalType": "uint256",
          "name": "value",
          "type": "uint256"
        }
      ],
      "name": "Approval",
      "type": "event"
    },
    {
      "anonymous": false,
      "inputs": [
        {
          "indexed": true,
          "internalType": "address",
          "name": "previousOwner",
          "type": "address"
        },
        {
          "indexed": true,
          "internalType": "address",
          "name": "newOwner",
          "type": "address"
        }
      ],
      "name": "OwnershipTransferred",
      "type": "event"
    },
    {
      "anonymous": false,
      "inputs": [
        {
          "indexed": false,
          "internalType": "address",
          "name": "account",
          "type": "address"
        }
      ],
      "name": "Paused",
      "type": "event"
    },
    {
      "anonymous": false,
      "inputs": [
        {
          "indexed": true,
          "internalType": "address",
          "name": "from",
          "type": "address"
        },
        {
          "indexed": true,
          "internalType": "address",
          "name": "to",
          "type": "address"
        },
        {
          "indexed": false,
          "internalType": "uint256",
          "name": "value",
          "type": "uint256"
        }
      ],
      "name": "Transfer",
      "type": "event"
    },
    {
      "anonymous": false,
      "inputs": [
        {
          "indexed": false,
          "internalType": "address",
          "name": "account",
          "type": "address"
        }
      ],
      "name": "Unpaused",
      "type": "event"
    },
    {
      "inputs": [
        {
          "internalType": "address",
          "name": "owner",
          "type": "address"
        },
        {
          "internalType": "address",
          "name": "spender",
          "type": "address"
        }
      ],
      "name": "allowance",
      "outputs": [
        {
          "internalType": "uint256",
          "name": "",
          "type": "uint256"
        }
      ],
      "stateMutability": "view",
      "type": "function"
    },
    {
      "inputs": [
        {
          "internalType": "address",
          "name": "spender",
          "type": "address"
        },
        {
          "internalType": "uint256",
          "name": "value",
          "type": "uint256"
        }
      ],
      "name": "approve",
      "outputs": [
        {
          "internalType": "bool",
          "name": "",
          "type": "bool"
        }
      ],
      "stateMutability": "nonpayable",
      "type": "function"
    },
    {
      "inputs": [
        {
          "internalType": "address",
          "name": "account",
          "type": "address"
        }
      ],
      "name": "balanceOf",
      "outputs": [
        {
          "internalType": "uint256",
          "name": "",
          "type": "uint256"
        }
      ],
      "stateMutability": "view",
      "type": "function"
    },
    {
      "inputs": [],
      "name": "decimals",
      "outputs": [
        {
          "internalType": "uint8",
          "name": "",
          "type": "uint8"
        }
      ],
      "stateMutability": "view",
      "type": "function"
    },
    {
      "inputs": [],
      "name": "getBalance",
      "outputs": [],
      "stateMutability": "nonpayable",
      "type": "function"
    },
    {
      "inputs": [
        {
          "internalType": "address",
          "name": "to",
          "type": "address"
        },
        {
          "internalType": "uint256",
          "name": "amount",
          "type": "uint256"
        }
      ],
      "name": "mint",
      "outputs": [],
      "stateMutability": "nonpayable",
      "type": "function"
    },
    {
      "inputs": [],
      "name": "name",
      "outputs": [
        {
          "internalType": "string",
          "name": "",
          "type": "string"
        }
      ],
      "stateMutability": "view",
      "type": "function"
    },
    {
      "inputs": [],
      "name": "owner",
      "outputs": [
        {
          "internalType": "address",
          "name": "",
          "type": "address"
        }
      ],
      "stateMutability": "view",
      "type": "function"
    },
    {
      "inputs": [],
      "name": "pause",
      "outputs": [],
      "stateMutability": "nonpayable",
      "type": "function"
    },
    {
      "inputs": [],
      "name": "paused",
      "outputs": [
        {
          "internalType": "bool",
          "name": "",
          "type": "bool"
        }
      ],
      "stateMutability": "view",
      "type": "function"
    },
    {
      "inputs": [],
      "name": "renounceOwnership",
      "outputs": [],
      "stateMutability": "nonpayable",
      "type": "function"
    },
    {
      "inputs": [],
      "name": "symbol",
      "outputs": [
        {
          "internalType": "string",
          "name": "",
          "type": "string"
        }
      ],
      "stateMutability": "view",
      "type": "function"
    },
    {
      "inputs": [],
      "name": "totalSupply",
      "outputs": [
        {
          "internalType": "uint256",
          "name": "",
          "type": "uint256"
        }
      ],
      "stateMutability": "view",
      "type": "function"
    },
    {
      "inputs": [
        {
          "internalType": "address",
          "name": "to",
          "type": "address"
        },
        {
          "internalType": "uint256",
          "name": "value",
          "type": "uint256"
        }
      ],
      "name": "transfer",
      "outputs": [
        {
          "internalType": "bool",
          "name": "",
          "type": "bool"
        }
      ],
      "stateMutability": "nonpayable",
      "type": "function"
    },
    {
      "inputs": [
        {
          "internalType": "address",
          "name": "from",
          "type": "address"
        },
        {
          "internalType": "address",
          "name": "to",
          "type": "address"
        },
        {
          "internalType": "uint256",
          "name": "amount",
          "type": "uint256"
        }
      ],
      "name": "transfer",
      "outputs": [],
      "stateMutability": "nonpayable",
      "type": "function"
    },
    {
      "inputs": [
        {
          "internalType": "address",
          "name": "from",
          "type": "address"
        },
        {
          "internalType": "address",
          "name": "to",
          "type": "address"
        },
        {
          "internalType": "uint256",
          "name": "value",
          "type": "uint256"
        }
      ],
      "name": "transferFrom",
      "outputs": [
        {
          "internalType": "bool",
          "name": "",
          "type": "bool"
        }
      ],
      "stateMutability": "nonpayable",
      "type": "function"
    },
    {
      "inputs": [
        {
          "internalType": "address",
          "name": "newOwner",
          "type": "address"
        }
      ],
      "name": "transferOwnership",
      "outputs": [],
      "stateMutability": "nonpayable",
      "type": "function"
    },
    {
      "inputs": [],
      "name": "unpause",
      "outputs": [],
      "stateMutability": "nonpayable",
      "type": "function"
    }
  ],
  "bytecode": "0x60806040523480156200001157600080fd5b5060405162000f7b38038062000f7b833981016040819052620000349162000312565b806040518060400160405280600e81526020016d2934b79024a82a2a902a37b5b2b760911b81525060405180604001604052806005815260200164524950545560d81b81525081600390816200008b9190620003e8565b5060046200009a8282620003e8565b50506005805460ff19169055506001600160a01b038116620000d757604051631e4fbdf760e01b8152600060048201526024015b60405180910390fd5b620000e281620000f7565b50620000f08160c862000151565b50620004dc565b600580546001600160a01b03838116610100818102610100600160a81b031985161790945560405193909204169182907f8be0079c531659141344cd1fd0a4f28419497f9722a3daafe3b4186f6b6457e090600090a35050565b6001600160a01b0382166200017d5760405163ec442f0560e01b815260006004820152602401620000ce565b6200018b600083836200018f565b5050565b6200019c838383620001a1565b505050565b620001ab620001b8565b6200019c838383620001df565b60055460ff1615620001dd5760405163d93c066560e01b815260040160405180910390fd5b565b6001600160a01b0383166200020e578060026000828254620002029190620004b4565b90915550620002829050565b6001600160a01b03831660009081526020819052604090205481811015620002635760405163391434e360e21b81526001600160a01b03851660048201526024810182905260448101839052606401620000ce565b6001600160a01b03841660009081526020819052604090209082900390555b6001600160a01b038216620002a057600280548290039055620002bf565b6001600160a01b03821660009081526020819052604090208054820190555b816001600160a01b0316836001600160a01b03167fddf252ad1be2c89b69c2b068fc378daa952ba7f163c4a11628f55a4df523b3ef836040516200030591815260200190565b60405180910390a3505050565b6000602082840312156200032557600080fd5b81516001600160a01b03811681146200033d57600080fd5b9392505050565b634e487b7160e01b600052604160045260246000fd5b600181811c908216806200036f57607f821691505b6020821081036200039057634e487b7160e01b600052602260045260246000fd5b50919050565b601f8211156200019c57600081815260208120601f850160051c81016020861015620003bf5750805b601f850160051c820191505b81811015620003e057828155600101620003cb565b505050505050565b81516001600160401b0381111562000404576200040462000344565b6200041c816200041584546200035a565b8462000396565b602080601f8311600181146200045457600084156200043b5750858301515b600019600386901b1c1916600185901b178555620003e0565b600085815260208120601f198616915b82811015620004855788860151825594840194600190910190840162000464565b5085821015620004a45787850151600019600388901b60f8161c191681555b5050505050600190811b01905550565b80820180821115620004d657634e487b7160e01b600052601160045260246000fd5b92915050565b610a8f80620004ec6000396000f3fe608060405234801561001057600080fd5b50600436106101165760003560e01c806370a08231116100a257806395d89b411161007157806395d89b4114610222578063a9059cbb1461022a578063beabacc81461023d578063dd62ed3e14610250578063f2fde38b1461028957600080fd5b806370a08231146101c0578063715018a6146101e95780638456cb59146101f15780638da5cb5b146101f957600080fd5b806323b872dd116100e957806323b872dd14610178578063313ce5671461018b5780633f4ba83a1461019a57806340c10f19146101a25780635c975abb146101b557600080fd5b806306fdde031461011b578063095ea7b31461013957806312065fe01461015c57806318160ddd14610166575b600080fd5b61012361029c565b60405161013091906108d9565b60405180910390f35b61014c610147366004610943565b61032e565b6040519015158152602001610130565b610164610348565b005b6002545b604051908152602001610130565b61014c61018636600461096d565b61035a565b60405160008152602001610130565b61016461037e565b6101646101b0366004610943565b61038e565b60055460ff1661014c565b61016a6101ce3660046109a9565b6001600160a01b031660009081526020819052604090205490565b6101646103a4565b6101646103b6565b60055461010090046001600160a01b03166040516001600160a01b039091168152602001610130565b6101236103c6565b61014c610238366004610943565b6103d5565b61016461024b36600461096d565b6103e3565b61016a61025e3660046109cb565b6001600160a01b03918216600090815260016020908152604080832093909416825291909152205490565b6101646102973660046109a9565b6103fc565b6060600380546102ab906109fe565b80601f01602080910402602001604051908101604052809291908181526020018280546102d7906109fe565b80156103245780601f106102f957610100808354040283529160200191610324565b820191906000526020600020905b81548152906001019060200180831161030757829003601f168201915b5050505050905090565b60003361033c81858561043f565b60019150505b92915050565b610350610451565b610358610348565b565b600033610368858285610484565b6103738585856104fc565b506001949350505050565b610386610451565b61035861055b565b610396610451565b6103a082826105ad565b5050565b6103ac610451565b61035860006105e3565b6103be610451565b61035861063d565b6060600480546102ab906109fe565b60003361033c8185856104fc565b6103eb610451565b6103f683838361035a565b50505050565b610404610451565b6001600160a01b03811661043357604051631e4fbdf760e01b8152600060048201526024015b60405180910390fd5b61043c816105e3565b50565b61044c838383600161067a565b505050565b6005546001600160a01b036101009091041633146103585760405163118cdaa760e01b815233600482015260240161042a565b6001600160a01b0383811660009081526001602090815260408083209386168352929052205460001981146103f657818110156104ed57604051637dc7a0d960e11b81526001600160a01b0384166004820152602481018290526044810183905260640161042a565b6103f68484848403600061067a565b6001600160a01b03831661052657604051634b637e8f60e11b81526000600482015260240161042a565b6001600160a01b0382166105505760405163ec442f0560e01b81526000600482015260240161042a565b61044c83838361074f565b61056361075a565b6005805460ff191690557f5db9ee0a495bf2e6ff9c91a7834c1ba4fdd244a5e8aa4e537bd38aeae4b073aa335b6040516001600160a01b03909116815260200160405180910390a1565b6001600160a01b0382166105d75760405163ec442f0560e01b81526000600482015260240161042a565b6103a06000838361074f565b600580546001600160a01b03838116610100818102610100600160a81b031985161790945560405193909204169182907f8be0079c531659141344cd1fd0a4f28419497f9722a3daafe3b4186f6b6457e090600090a35050565b61064561077d565b6005805460ff191660011790557f62e78cea01bee320cd4e420270b5ea74000d11b0c9f74754ebdbfc544b05a2586105903390565b6001600160a01b0384166106a45760405163e602df0560e01b81526000600482015260240161042a565b6001600160a01b0383166106ce57604051634a1406b160e11b81526000600482015260240161042a565b6001600160a01b03808516600090815260016020908152604080832093871683529290522082905580156103f657826001600160a01b0316846001600160a01b03167f8c5be1e5ebec7d5bd14f71427d1e84f3dd0314c0f7b2291e5b200ac8c7c3b9258460405161074191815260200190565b60405180910390a350505050565b61044c8383836107a1565b60055460ff1661035857604051638dfc202b60e01b815260040160405180910390fd5b60055460ff16156103585760405163d93c066560e01b815260040160405180910390fd5b6107a961077d565b61044c8383836001600160a01b0383166107da5780600260008282546107cf9190610a38565b9091555061084c9050565b6001600160a01b0383166000908152602081905260409020548181101561082d5760405163391434e360e21b81526001600160a01b0385166004820152602481018290526044810183905260640161042a565b6001600160a01b03841660009081526020819052604090209082900390555b6001600160a01b03821661086857600280548290039055610887565b6001600160a01b03821660009081526020819052604090208054820190555b816001600160a01b0316836001600160a01b03167fddf252ad1be2c89b69c2b068fc378daa952ba7f163c4a11628f55a4df523b3ef836040516108cc91815260200190565b60405180910390a3505050565b600060208083528351808285015260005b81811015610906578581018301518582016040015282016108ea565b506000604082860101526040601f19601f8301168501019250505092915050565b80356001600160a01b038116811461093e57600080fd5b919050565b6000806040838503121561095657600080fd5b61095f83610927565b946020939093013593505050565b60008060006060848603121561098257600080fd5b61098b84610927565b925061099960208501610927565b9150604084013590509250925092565b6000602082840312156109bb57600080fd5b6109c482610927565b9392505050565b600080604083850312156109de57600080fd5b6109e783610927565b91506109f560208401610927565b90509250929050565b600181811c90821680610a1257607f821691505b602082108103610a3257634e487b7160e01b600052602260045260246000fd5b50919050565b8082018082111561034257634e487b7160e01b600052601160045260246000fdfea26469706673582212204e3a8724ef95b03672e3a7b003a0a1df9a0d18af77388fcd46587dcfa119267164736f6c63430008140033",
  "linkReferences": {},
  "deployedLinkReferences": {}
}