{
  "_format": "hh-sol-artifact-1",
  "contractName": "RioIPTUToken",
  "sourceName": "contracts/RioIPTUToken.sol",
  "abi": [
    {
      "inputs": [
        {
          "internalType": "address",
          "name": "_initialOwner",
          "type": "address"
        },
        {
          "internalType": "uint256",
          "name": "_minTransferAmount",
          "type": "uint256"
        }
      ],
      "stateMutability": "nonpayable",
      "type": "constructor"
    },
    {
      "inputs": [
        {
          "internalType": "address",
          "name": "spender",
          "type": "address"
        },
        {
          "internalType": "uint256",
          "name": "allowance",
          "type": "uint256"
        },
        {
          "internalType": "uint256",
          "name": "needed",
          "type": "uint256"
        }
      ],
      "name": "ERC20InsufficientAllowance",
      "type": "error"
    },
    {
      "inputs": [
        {
          "internalType": "address",
          "name": "sender",
          "type": "address"
        },
        {
          "internalType": "uint256",
          "name": "balance",
          "type": "uint256"
        },
        {
          "internalType": "uint256",
          "name": "needed",
          "type": "uint256"
        }
      ],
      "name": "ERC20InsufficientBalance",
      "type": "error"
    },
    {
      "inputs": [
        {
          "internalType": "address",
          "name": "approver",
          "type": "address"
        }
      ],
      "name": "ERC20InvalidApprover",
      "type": "error"
    },
    {
      "inputs": [
        {
          "internalType": "address",
          "name": "receiver",
          "type": "address"
        }
      ],
      "name": "ERC20InvalidReceiver",
      "type": "error"
    },
    {
      "inputs": [
        {
          "internalType": "address",
          "name": "sender",
          "type": "address"
        }
      ],
      "name": "ERC20InvalidSender",
      "type": "error"
    },
    {
      "inputs": [
        {
          "internalType": "address",
          "name": "spender",
          "type": "address"
        }
      ],
      "name": "ERC20InvalidSpender",
      "type": "error"
    },
    {
      "inputs": [],
      "name": "EnforcedPause",
      "type": "error"
    },
    {
      "inputs": [],
      "name": "ExpectedPause",
      "type": "error"
    },
    {
      "anonymous": false,
      "inputs": [
        {
          "indexed": true,
          "internalType": "address",
          "name": "owner",
          "type": "address"
        },
        {
          "indexed": true,
          "internalType": "address",
          "name": "spender",
          "type": "address"
        },
        {
          "indexed": false,
          "internalType": "uint256",
          "name": "value",
          "type": "uint256"
        }
      ],
      "name": "Approval",
      "type": "event"
    },
    {
      "anonymous": false,
      "inputs": [
        {
          "indexed": false,
          "internalType": "address",
          "name": "account",
          "type": "address"
        }
      ],
      "name": "Paused",
      "type": "event"
    },
    {
      "anonymous": false,
      "inputs": [
        {
          "indexed": true,
          "internalType": "address",
          "name": "from",
          "type": "address"
        },
        {
          "indexed": true,
          "internalType": "address",
          "name": "to",
          "type": "address"
        },
        {
          "indexed": false,
          "internalType": "uint256",
          "name": "value",
          "type": "uint256"
        }
      ],
      "name": "Transfer",
      "type": "event"
    },
    {
      "anonymous": false,
      "inputs": [
        {
          "indexed": false,
          "internalType": "address",
          "name": "account",
          "type": "address"
        }
      ],
      "name": "Unpaused",
      "type": "event"
    },
    {
      "inputs": [
        {
          "internalType": "address",
          "name": "owner",
          "type": "address"
        },
        {
          "internalType": "address",
          "name": "spender",
          "type": "address"
        }
      ],
      "name": "allowance",
      "outputs": [
        {
          "internalType": "uint256",
          "name": "",
          "type": "uint256"
        }
      ],
      "stateMutability": "view",
      "type": "function"
    },
    {
      "inputs": [
        {
          "internalType": "address",
          "name": "spender",
          "type": "address"
        },
        {
          "internalType": "uint256",
          "name": "value",
          "type": "uint256"
        }
      ],
      "name": "approve",
      "outputs": [
        {
          "internalType": "bool",
          "name": "",
          "type": "bool"
        }
      ],
      "stateMutability": "nonpayable",
      "type": "function"
    },
    {
      "inputs": [
        {
          "internalType": "address",
          "name": "account",
          "type": "address"
        }
      ],
      "name": "balanceOf",
      "outputs": [
        {
          "internalType": "uint256",
          "name": "",
          "type": "uint256"
        }
      ],
      "stateMutability": "view",
      "type": "function"
    },
    {
      "inputs": [
        {
          "internalType": "uint256",
          "name": "value",
          "type": "uint256"
        }
      ],
      "name": "burn",
      "outputs": [],
      "stateMutability": "nonpayable",
      "type": "function"
    },
    {
      "inputs": [
        {
          "internalType": "address",
          "name": "account",
          "type": "address"
        },
        {
          "internalType": "uint256",
          "name": "value",
          "type": "uint256"
        }
      ],
      "name": "burnFrom",
      "outputs": [],
      "stateMutability": "nonpayable",
      "type": "function"
    },
    {
      "inputs": [
        {
          "internalType": "address",
          "name": "from",
          "type": "address"
        },
        {
          "internalType": "uint256",
          "name": "amount",
          "type": "uint256"
        }
      ],
      "name": "burnFromAddress",
      "outputs": [],
      "stateMutability": "nonpayable",
      "type": "function"
    },
    {
      "inputs": [],
      "name": "contractOwner",
      "outputs": [
        {
          "internalType": "address",
          "name": "",
          "type": "address"
        }
      ],
      "stateMutability": "view",
      "type": "function"
    },
    {
      "inputs": [],
      "name": "decimals",
      "outputs": [
        {
          "internalType": "uint8",
          "name": "",
          "type": "uint8"
        }
      ],
      "stateMutability": "pure",
      "type": "function"
    },
    {
      "inputs": [],
      "name": "minTransferAmount",
      "outputs": [
        {
          "internalType": "uint256",
          "name": "",
          "type": "uint256"
        }
      ],
      "stateMutability": "view",
      "type": "function"
    },
    {
      "inputs": [
        {
          "internalType": "address",
          "name": "to",
          "type": "address"
        },
        {
          "internalType": "uint256",
          "name": "amount",
          "type": "uint256"
        }
      ],
      "name": "mint",
      "outputs": [],
      "stateMutability": "nonpayable",
      "type": "function"
    },
    {
      "inputs": [],
      "name": "name",
      "outputs": [
        {
          "internalType": "string",
          "name": "",
          "type": "string"
        }
      ],
      "stateMutability": "view",
      "type": "function"
    },
    {
      "inputs": [],
      "name": "pause",
      "outputs": [],
      "stateMutability": "nonpayable",
      "type": "function"
    },
    {
      "inputs": [],
      "name": "paused",
      "outputs": [
        {
          "internalType": "bool",
          "name": "",
          "type": "bool"
        }
      ],
      "stateMutability": "view",
      "type": "function"
    },
    {
      "inputs": [
        {
          "internalType": "uint256",
          "name": "_newMinTransferAmount",
          "type": "uint256"
        }
      ],
      "name": "setMinTransferAmount",
      "outputs": [],
      "stateMutability": "nonpayable",
      "type": "function"
    },
    {
      "inputs": [],
      "name": "symbol",
      "outputs": [
        {
          "internalType": "string",
          "name": "",
          "type": "string"
        }
      ],
      "stateMutability": "view",
      "type": "function"
    },
    {
      "inputs": [],
      "name": "totalSupply",
      "outputs": [
        {
          "internalType": "uint256",
          "name": "",
          "type": "uint256"
        }
      ],
      "stateMutability": "view",
      "type": "function"
    },
    {
      "inputs": [
        {
          "internalType": "address",
          "name": "recipient",
          "type": "address"
        },
        {
          "internalType": "uint256",
          "name": "amount",
          "type": "uint256"
        }
      ],
      "name": "transfer",
      "outputs": [
        {
          "internalType": "bool",
          "name": "",
          "type": "bool"
        }
      ],
      "stateMutability": "nonpayable",
      "type": "function"
    },
    {
      "inputs": [
        {
          "internalType": "address",
          "name": "sender",
          "type": "address"
        },
        {
          "internalType": "address",
          "name": "recipient",
          "type": "address"
        },
        {
          "internalType": "uint256",
          "name": "amount",
          "type": "uint256"
        }
      ],
      "name": "transferFrom",
      "outputs": [
        {
          "internalType": "bool",
          "name": "",
          "type": "bool"
        }
      ],
      "stateMutability": "nonpayable",
      "type": "function"
    },
    {
      "inputs": [],
      "name": "unpause",
      "outputs": [],
      "stateMutability": "nonpayable",
      "type": "function"
    }
  ],
  "bytecode": "0x60806040523480156200001157600080fd5b5060405162000e3c38038062000e3c8339810160408190526200003491620000cb565b6040518060400160405280600e81526020016d2934b79024a82a2a902a37b5b2b760911b81525060405180604001604052806005815260200164524950545560d81b81525081600390816200008a9190620001ac565b506004620000998282620001ac565b5050600580546001600160a01b03909416610100026001600160a81b0319909416939093179092556006555062000278565b60008060408385031215620000df57600080fd5b82516001600160a01b0381168114620000f757600080fd5b6020939093015192949293505050565b634e487b7160e01b600052604160045260246000fd5b600181811c908216806200013257607f821691505b6020821081036200015357634e487b7160e01b600052602260045260246000fd5b50919050565b601f821115620001a757600081815260208120601f850160051c81016020861015620001825750805b601f850160051c820191505b81811015620001a3578281556001016200018e565b5050505b505050565b81516001600160401b03811115620001c857620001c862000107565b620001e081620001d984546200011d565b8462000159565b602080601f831160018114620002185760008415620001ff5750858301515b600019600386901b1c1916600185901b178555620001a3565b600085815260208120601f198616915b82811015620002495788860151825594840194600190910190840162000228565b5085821015620002685787850151600019600388901b60f8161c191681555b5050505050600190811b01905550565b610bb480620002886000396000f3fe608060405234801561001057600080fd5b50600436106101215760003560e01c80635c975abb116100ad57806395d89b411161007157806395d89b4114610236578063a9059cbb1461023e578063b92e639614610251578063ce606ee014610264578063dd62ed3e1461029457600080fd5b80635c975abb146101de57806368841431146101e957806370a08231146101f257806379cc67901461021b5780638456cb591461022e57600080fd5b8063313ce567116100f4578063313ce5671461018c578063365342ca1461019b5780633f4ba83a146101b057806340c10f19146101b857806342966c68146101cb57600080fd5b806306fdde0314610126578063095ea7b31461014457806318160ddd1461016757806323b872dd14610179575b600080fd5b61012e6102cd565b60405161013b919061098f565b60405180910390f35b6101576101523660046109f9565b61035f565b604051901515815260200161013b565b6002545b60405190815260200161013b565b610157610187366004610a23565b610379565b6040516000815260200161013b565b6101ae6101a93660046109f9565b6103b9565b005b6101ae6104a0565b6101ae6101c63660046109f9565b6104aa565b6101ae6101d9366004610a5f565b6104b4565b60055460ff16610157565b61016b60065481565b61016b610200366004610a78565b6001600160a01b031660009081526020819052604090205490565b6101ae6102293660046109f9565b6104c1565b6101ae6104cc565b61012e6104d4565b61015761024c3660046109f9565b6104e3565b6101ae61025f366004610a5f565b600655565b60055461027c9061010090046001600160a01b031681565b6040516001600160a01b03909116815260200161013b565b61016b6102a2366004610a93565b6001600160a01b03918216600090815260016020908152604080832093909416825291909152205490565b6060600380546102dc90610ac6565b80601f016020809104026020016040519081016040528092919081815260200182805461030890610ac6565b80156103555780601f1061032a57610100808354040283529160200191610355565b820191906000526020600020905b81548152906001019060200180831161033857829003601f168201915b5050505050905090565b60003361036d818585610518565b60019150505b92915050565b60006006548210156103a65760405162461bcd60e51b815260040161039d90610b00565b60405180910390fd5b6103b184848461052a565b949350505050565b6001600160a01b0382166104195760405162461bcd60e51b815260206004820152602160248201527f45524332303a206275726e2066726f6d20746865207a65726f206164647265736044820152607360f81b606482015260840161039d565b80610439836001600160a01b031660009081526020819052604090205490565b10156104925760405162461bcd60e51b815260206004820152602260248201527f45524332303a206275726e20616d6f756e7420657863656564732062616c616e604482015261636560f01b606482015260840161039d565b61049c828261054e565b5050565b6104a8610584565b565b61049c82826105d6565b6104be338261054e565b50565b61049282338361060c565b6104a861068a565b6060600480546102dc90610ac6565b60006006548210156105075760405162461bcd60e51b815260040161039d90610b00565b61051183836106c7565b9392505050565b61052583838360016106d5565b505050565b60003361053885828561060c565b6105438585856107aa565b506001949350505050565b6001600160a01b03821661057857604051634b637e8f60e11b81526000600482015260240161039d565b61049c82600083610805565b61058c610810565b6005805460ff191690557f5db9ee0a495bf2e6ff9c91a7834c1ba4fdd244a5e8aa4e537bd38aeae4b073aa335b6040516001600160a01b03909116815260200160405180910390a1565b6001600160a01b0382166106005760405163ec442f0560e01b81526000600482015260240161039d565b61049c60008383610805565b6001600160a01b038381166000908152600160209081526040808320938616835292905220546000198114610684578181101561067557604051637dc7a0d960e11b81526001600160a01b0384166004820152602481018290526044810183905260640161039d565b610684848484840360006106d5565b50505050565b610692610833565b6005805460ff191660011790557f62e78cea01bee320cd4e420270b5ea74000d11b0c9f74754ebdbfc544b05a2586105b93390565b60003361036d8185856107aa565b6001600160a01b0384166106ff5760405163e602df0560e01b81526000600482015260240161039d565b6001600160a01b03831661072957604051634a1406b160e11b81526000600482015260240161039d565b6001600160a01b038085166000908152600160209081526040808320938716835292905220829055801561068457826001600160a01b0316846001600160a01b03167f8c5be1e5ebec7d5bd14f71427d1e84f3dd0314c0f7b2291e5b200ac8c7c3b9258460405161079c91815260200190565b60405180910390a350505050565b6001600160a01b0383166107d457604051634b637e8f60e11b81526000600482015260240161039d565b6001600160a01b0382166107fe5760405163ec442f0560e01b81526000600482015260240161039d565b6105258383835b610525838383610857565b60055460ff166104a857604051638dfc202b60e01b815260040160405180910390fd5b60055460ff16156104a85760405163d93c066560e01b815260040160405180910390fd5b61085f610833565b6105258383836001600160a01b0383166108905780600260008282546108859190610b5d565b909155506109029050565b6001600160a01b038316600090815260208190526040902054818110156108e35760405163391434e360e21b81526001600160a01b0385166004820152602481018290526044810183905260640161039d565b6001600160a01b03841660009081526020819052604090209082900390555b6001600160a01b03821661091e5760028054829003905561093d565b6001600160a01b03821660009081526020819052604090208054820190555b816001600160a01b0316836001600160a01b03167fddf252ad1be2c89b69c2b068fc378daa952ba7f163c4a11628f55a4df523b3ef8360405161098291815260200190565b60405180910390a3505050565b600060208083528351808285015260005b818110156109bc578581018301518582016040015282016109a0565b506000604082860101526040601f19601f8301168501019250505092915050565b80356001600160a01b03811681146109f457600080fd5b919050565b60008060408385031215610a0c57600080fd5b610a15836109dd565b946020939093013593505050565b600080600060608486031215610a3857600080fd5b610a41846109dd565b9250610a4f602085016109dd565b9150604084013590509250925092565b600060208284031215610a7157600080fd5b5035919050565b600060208284031215610a8a57600080fd5b610511826109dd565b60008060408385031215610aa657600080fd5b610aaf836109dd565b9150610abd602084016109dd565b90509250929050565b600181811c90821680610ada57607f821691505b602082108103610afa57634e487b7160e01b600052602260045260246000fd5b50919050565b60208082526039908201527f416d6f756e74206d7573742062652067726561746572207468616e206f72206560408201527f7175616c20746f206d696e5472616e73666572416d6f756e7400000000000000606082015260800190565b8082018082111561037357634e487b7160e01b600052601160045260246000fdfea2646970667358221220808b0a072b5dd658d09d2f5e73a0f5ff067237d76a9da8356b0babca6188561a64736f6c63430008140033",
  "linkReferences": {},
  "deployedLinkReferences": {}
}